:020000040000FA
:100000000C9462000C94A5060C947E060C948A0055
:100010000C948A000C948A000C948A000C948A0038
:100020000C948A000C948A000C948A000C948A0028
:100030000C948A000C948A000C948A000C948A0018
:100040000C9434060C948A000C94F2060C94CC06A2
:100050000C948A000C948A000C948A000C948A00F8
:100060000C9424070C948A00000000002400270050
:100070002A0000000000250028002B0000000008D6
:10008000000201000003040700000000000000005F
:10009000010204081020408001020408102001021F
:1000A000040810200000000023002600290004049A
:1000B0000404040404040202020202020303030310
:1000C0000303430811241FBECFEFD8E0DEBFCDBF2E
:1000D00011E0A0E0B1E0E2EDF9E102C005900D927F
:1000E000AE3CB107D9F723E0AEECB1E001C01D9200
:1000F000A736B207E1F710E0C2E6D0E004C02197CE
:10010000FE010E94E10CC136D107C9F70E94FA082E
:100110000C94E70C0C940000833081F028F48130BB
:1001200099F08230A9F008958730A9F08830C9F09D
:100130008430B1F4809180008F7D03C08091800075
:100140008F7780938000089584B58F7784BD08955C
:1001500084B58F7DFBCF8091B0008F778093B00006
:1001600008958091B0008F7DF9CF1F93CF93DF93D7
:10017000282F30E0F901E458FF4F8491F901E0574E
:10018000FF4FD491F901E255FF4FC491CC23A9F060
:10019000162F81110E948C00EC2FF0E0EE0FFF1F54
:1001A000EE58FF4FA591B4918FB7F894EC911111CF
:1001B00008C0D095DE23DC938FBFDF91CF911F91D4
:1001C0000895DE2BF8CFCF93DF9390E0FC01E0574A
:1001D000FF4F249182559F4FFC0184918823D1F0D9
:1001E00090E0880F991FFC01E859FF4FA591B49149
:1001F000FC01EE58FF4FC591D491623071F49FB766
:10020000F8943C91822F809583238C93E8812E2B48
:1002100028839FBFDF91CF9108958FB7F894EC9119
:100220002E2B2C938FBFF6CF1F93CF93DF93182FD6
:10023000EB0161E00E94E300209739F460E0812F38
:10024000DF91CF911F910C94B500CF3FD10511F4F0
:1002500061E0F5CFE12FF0E0E458FF4FE491E330A7
:1002600031F140F4E130B1F0E230E1F0C038D105D5
:100270007CF7E4CFE73029F1E83059F1E430B1F709
:1002800080918000806280938000D0938B00C09327
:100290008A0004C084B5806884BDC7BDDF91CF915A
:1002A0001F91089584B5806284BDC8BDF7CF809149
:1002B0008000806880938000D0938900C09388007C
:1002C000EDCF8091B00080688093B000C093B30000
:1002D000E5CF8091B00080628093B000C093B400FD
:1002E000DDCF8E50806480937C0080917A008064A2
:1002F00080937A0080917A0086FDFCCF809178000F
:100300009091790008953FB7F89480919E02909162
:100310009F02A091A002B091A10226B5A89B05C0A2
:100320002F3F19F00196A11DB11D3FBFBA2FA92F74
:10033000982F8827BC01CD01620F711D811D911D71
:1003400042E0660F771F881F991F4A95D1F70895DD
:100350008F929F92AF92BF92CF92DF92EF92FF92D5
:100360004B015C010E9483016B017C010E948301AF
:100370006C197D098E099F09683E734081059105BE
:10038000A8F321E0821A9108A108B10888EEC80EEE
:1003900083E0D81EE11CF11C81149104A104B10476
:1003A00029F7FF90EF90DF90CF90BF90AF909F9094
:1003B0008F900895089508950895AF92BF92CF92B7
:1003C000DF92EF92FF920F931F93CF93DF936C0115
:1003D0007B018B01040F151FEB015E01AE18BF08F6
:1003E000C017D10759F06991D601ED91FC910190A8
:1003F000F081E02DC6010995892B79F7C501DF91C0
:10040000CF911F910F91FF90EF90DF90CF90BF9011
:10041000AF900895FC01538D448D252F30E0842F3B
:1004200090E0821B930B541710F0CF96089501971C
:100430000895FC01918D828D981761F0A28DAE0F09
:10044000BF2FB11D5D968C91928D9F5F9F73928F90
:1004500090E008958FEF9FEF0895FC01918D828DBC
:10046000981731F0828DE80FF11D858D90E0089589
:100470008FEF9FEF0895FC01918D228D892F90E0E1
:10048000805C9F4F821B91098F739927089582EAA0
:1004900092E00E943B0221E0892B09F420E0822FA8
:1004A000089580E090E0892B29F00E944702811195
:1004B0000C9400000895FC01A48DA80FB92FB11D64
:1004C000A35ABF4F2C91848D90E001968F7399278A
:1004D000848FA689B7892C93A089B1898C91837068
:1004E00080648C93938D848D981306C00288F38961
:1004F000E02D80818F7D80830895EF92FF920F938E
:100500001F93CF93DF93EC0181E0888F9B8D8C8DBF
:1005100098131AC0E889F989808185FF15C09FB7B3
:10052000F894EE89FF896083E889F9898081837076
:10053000806480839FBF81E090E0DF91CF911F9125
:100540000F91FF90EF900895F62E0B8D10E00F5F46
:100550001F4F0F731127E02E8C8D8E110CC00FB61C
:1005600007FCFACFE889F989808185FFF5CFCE01B4
:100570000E945B02F1CFEB8DEC0FFD2FF11DE35AD2
:10058000FF4FF0829FB7F8940B8FEA89FB89808137
:100590008062CFCFCF93DF93EC01888D8823B9F0B1
:1005A000AA89BB89E889F9898C9185FD03C080817E
:1005B00086FD0DC00FB607FCF7CF8C9185FFF2CFFB
:1005C000808185FFEDCFCE010E945B02E9CFDF91F4
:1005D000CF91089520913602260F3327331F213201
:1005E0003105ECF420915A02FC0190E080E02430C7
:1005F00069F082E00895A09136022191AC014A5E33
:100600005D4FA40FB52FB11D2C930196861798F35B
:1006100080913602680F6093360280E0089581E091
:10062000089510925A0281E080935C0210925B025E
:1006300061E082E10E94B50061E083E10E94B500C3
:10064000E9EBF0E080818E7F808380818D7F8083E5
:1006500088E48093B80085E48093BC000895CF932C
:10066000DF9391E0909315028823B9F0C091B80010
:10067000D091BA008091BC008A7B8093BC0060E07E
:1006800082E10E94B50060E083E10E94B5000E9413
:100690001103D093BA00C093B800DF91CF910895B1
:1006A0000895E091870280918602E81730F4F0E027
:1006B000E051FE4F808190E008958FEF9FEF089505
:1006C00090918702809186022FEF3FEF981748F4B0
:1006D000E92FF0E0E051FE4F208130E09F5F9093E2
:1006E0008702C90108958091860290918702891B33
:1006F000990B0895CF92DF92EF92FF920F931F9381
:10070000CF93DF937C01CB018A012091EF0122235B
:1007100089F0EB016B01C40ED51ECC15DD0569F027
:100720006991D701ED91FC910190F081E02DC70115
:100730000995F3CF642F0E94EA02C801DF91CF919F
:100740001F910F91FF90EF90DF90CF900895CF937E
:10075000DF931F92CDB7DEB769832091EF0122238B
:10076000F9F020918402203258F021E030E0FC01C1
:100770003383228390E080E00F90DF91CF91089542
:1007800080918502E82FF0E0E153FE4F998190833C
:100790008F5F809385028093840281E090E0ECCFAC
:1007A00061E0CE0101960E94EA02F7CFCF92DF927C
:1007B000EF92FF920F931F93CF93DF93FC01C481BD
:1007C00021E02093EF01C093CE0110928502109298
:1007D00084028385682B8FE393E00E94A703D09166
:1007E0008402D13208F092C00E9483016B017C0127
:1007F00080915A02811165C082E080935A0281E0A3
:1008000080935C028FEF8093590210927E02D09306
:100810007D02AFECB1E0EDE5F2E080E0D81385C0F9
:1008200010927F0280917F02CC0FC82BC0937F0271
:1008300080915B02813009F07CC010925B020E94C3
:1008400083016B017C0180917F028093BB008091CA
:10085000110290911202A0911302B0911402892BFF
:100860008A2B8B2B99F00E94830100911102109129
:10087000120220911302309114026C197D098E0925
:100880009F090617170728073907E0F18091BC0078
:1008900083FDD9CF85EC8093BC000E9483016B015E
:1008A0007C0180915A02823009F445C0809159023E
:1008B0008F3F61F180915902803241F1809159025C
:1008C00025C08091110290911202A0911302B09163
:1008D0001402892B8A2B8B2B09F48ACF0E94830167
:1008E0000091110210911202209113023091140212
:1008F0006C197D098E099F09061717072807390704
:1009000008F076CF809110020E942F03109285028A
:10091000109284021092EF01DF91CF911F910F91FD
:10092000FF90EF90DF90CF9008959D9191938F5F0E
:1009300075CF85EEB0CF8091110290911202A091F7
:100940001302B0911402892B8A2B8B2B09F4A9CFA7
:100950000E94830100911102109112022091130252
:10096000309114026C197D098E099F09061717072B
:100970002807390708F095CFC5CF089590E080E0AB
:100980000895DC01ED91FD918081ED91FD919081C3
:10099000ED91FD916C9163708E2309F064609F234B
:1009A00009F06860EEEDF4E0E60FF11D65956595E0
:1009B0006D936D917D918D919D91099423C01AC085
:1009C00012C016C010C01EC009C014C013C006C09B
:1009D00019C009C00DC007C00DC014C062507040DE
:1009E000804090400BC0615070408040904006C0F5
:1009F0006E5F01C06F5F7F4F8F4F9F4F9E938E93AF
:100A00007E936E93089580914B0390914C030C94C8
:100A1000C10480914D0390914E030C94C1040F9337
:100A20001F93CF938C01C62F0E94D6036C2F646056
:100A3000C8010E94D6036C2F6B7FC8010E94D603A9
:100A400083EC90E00197F1F7CF911F910F910895FA
:100A50000F931F93CF93DF938C01D62FC42F607F0A
:100A6000642B0E940F0580E1D89FB00111246C2BEC
:100A7000C801DF91CF911F910F910C940F0541E0B8
:100A80000E94280581E090E00895CF93DF93CDB7D1
:100A9000DEB728970FB6F894DEBF0FBECDBF98E043
:100AA000E6E8F1E0DE01119601900D929A95E1F7EA
:100AB00090916303961708F46FEF262F30E0220F12
:100AC000331F41E050E04C0F5D1F240F351FF9012B
:100AD0006081680F606840E08BE593E028960FB670
:100AE000F894DEBF0FBECDBFDF91CF910C942805E7
:100AF0008F929F92AF92BF920F931F93CF93DF93EA
:100B0000CDB7DEB7A1970FB6F894DEBF0FBECDBF4D
:100B100019A2423008F44AE08E010F5D1F4F842E67
:100B2000912CB12CA12CA50194010E94790CE62FE7
:100B3000B901CA01EA3044F5E05DD801EE938D01B8
:100B4000232B242B252B79F790E080E0109769F078
:100B5000FD0101900020E9F73197AF014A1B5B0BC3
:100B6000BD018BE593E00E94DD01A1960FB6F894DC
:100B7000DEBF0FBECDBFDF91CF911F910F91BF9010
:100B8000AF909F908F900895E95CD7CFCF92DF927E
:100B9000EF92FF926C01990FEE08FF08F7FE16C066
:100BA00041E06DE28BE593E00E94280566277727F8
:100BB000CB016C197D098E099F094AE00E947805D6
:100BC0000196FF90EF90DF90CF9008954AE0C70123
:100BD000B601FF90EF90DF90CF900C947805FC0168
:100BE00001900020E9F73197AF01481B590BBC0178
:100BF0008BE593E00C94DD0185ED8093BC00809142
:100C0000110290911202A0911302B0911402079662
:100C1000A11DB11D23E0B695A795979587952A95B7
:100C2000D1F72091BC0024FD03C010925A02089510
:100C300040911102509112026091130270911402BE
:100C4000452B462B472B69F30097A105B10541F0D1
:100C50002AE22A95F1F700C00197A109B109E1CF75
:100C6000809110020C942F031F920F920FB60F92D7
:100C700011242F933F938F939F93AF93BF938091B2
:100C80009A0290919B02A0919C02B0919D0230919A
:100C9000990223E0230F2D3758F50196A11DB11DB0
:100CA0002093990280939A0290939B02A0939C02B6
:100CB000B0939D0280919E0290919F02A091A0020C
:100CC000B091A1020196A11DB11D80939E02909347
:100CD0009F02A093A002B093A102BF91AF919F91F8
:100CE0008F913F912F910F900FBE0F901F901895ED
:100CF00026E8230F0296A11DB11DD2CF1F920F929D
:100D00000FB60F9211242F933F934F935F936F93DE
:100D10007F938F939F93AF93BF93EF93FF93E09154
:100D20000201F09103010995FF91EF91BF91AF91FD
:100D30009F918F917F916F915F914F913F912F91F3
:100D40000F900FBE0F901F9018951F920F920FB625
:100D50000F9211242F933F934F935F936F937F9341
:100D60008F939F93AF93BF93EF93FF93E091000115
:100D7000F09101010995FF91EF91BF91AF919F9182
:100D80008F917F916F915F914F913F912F910F9034
:100D90000FBE0F901F9018951F920F920FB60F92D3
:100DA00011242F933F934F935F936F937F938F9370
:100DB0009F93AF93BF93EF93FF9382EA92E00E94D9
:100DC0005B02FF91EF91BF91AF919F918F917F91C6
:100DD0006F915F914F913F912F910F900FBE0F90A8
:100DE0001F9018951F920F920FB60F9211242F93F8
:100DF0008F939F93EF93FF93E091B202F091B30230
:100E00008081E091B802F091B90282FD1BC090810F
:100E10008091BB028F5F8F732091BC02821741F0DB
:100E2000E091BB02F0E0EE55FD4F958F8093BB0241
:100E3000FF91EF919F918F912F910F900FBE0F9087
:100E40001F9018958081F4CF1F920F920FB60F92CA
:100E500011242F933F934F935F936F937F938F93BF
:100E60009F93AF93BF93EF93FF938091B900887FD7
:100E7000803609F44AC0F0F5883209F4A7C018F5A5
:100E8000803109F49BC0B8F4882309F4F9C0883094
:100E900009F494C0FF91EF91BF91AF919F918F9111
:100EA0007F916F915F914F913F912F910F900FBE66
:100EB0000F901F901895883109F488C0803251F73F
:100EC0008093590214C0803409F49DC040F48033EB
:100ED000B9F38833F9F68093590285ECB0C08035B8
:100EE00009F485C0883509F496C0883499F60E94C3
:100EF000FC05D0CF883909F48CC038F5883729F043
:100F000050F4883611F0803729F683E080935A0236
:100F10001092580257C0883809F47BC0803919F004
:100F2000803809F0B7CF80915802803208F071C044
:100F3000E091580281E08E0F809358028091BB00AF
:100F4000F0E0E85CFD4F80833DC0803B39F0E0F489
:100F5000803A09F479C0883A09F09CCF84E0809304
:100F60005A021092370210923602E0918202F091FA
:100F7000830209958091360281110FC081E0809330
:100F800036021092160209C0803C09F4A6CF883CB4
:100F900009F4A3CF883B09F07DCFE091370281E0CF
:100FA0008E0F80933702F0E0EA5EFD4F80818093E0
:100FB000BB00909137028091360229C080917F0258
:100FC0008093BB0085EC8093BC0064CF90917E023F
:100FD00080917D02981758F5E0917E0281E08E0F96
:100FE00080937E02F0E0E35AFD4F8081E9CFE091EB
:100FF0007E0281E08E0F80937E028091BB00F0E044
:10100000E35AFD4F808390917E0280917D02981774
:10101000C8F285E8D8CFE0917E0281E08E0F809300
:101020007E028091BB00F0E0E35AFD4F8083809107
:101030005C0281115CCF81E080935B0284EA809343
:10104000BC0010925A0226CF85EC8093BC0010920F
:101050005A0280915802803230F4E0915802F0E058
:10106000E85CFD4F10826091580270E0E0918002D0
:10107000F091810288E392E00995109258020ACF1C
:101080001092590234CFCF93DF931092A5021092A1
:10109000A40288EE93E0A0E0B0E08093A6029093D3
:1010A000A702A093A802B093A90222E931E03093ED
:1010B000A3022093A20225EC30E03093AF022093EC
:1010C000AE0224EC30E03093B1022093B00220EC69
:1010D00030E03093B3022093B20221EC30E0309341
:1010E000B5022093B40222EC30E03093B702209393
:1010F000B60226EC30E03093B9022093B802109289
:10110000BB021092BC021092BD021092BE0210925D
:101110004203109241038093430390934403A093AE
:101120004503B093460384EA91E090934003809393
:101130003F0310925E0310925D0386EB91E0909363
:101140005C0380935B0387E280935F0380E180937D
:10115000640382E0809365031092660362E085E099
:101160000E94E30062E086E00E94E300E3EBF0E02F
:10117000E491F0E0EE0FFF1FEC55FF4FA591B49105
:10118000B0935003A0934F03E5E9F0E044914093FE
:101190005303E4EBF0E0E491F0E0EE0FFF1FEC55B9
:1011A000FF4FC591D491D0935203C0935103E6E908
:1011B000F0E0E491E0935403109256031092570329
:1011C00010925803109259032BE33FE1C901019794
:1011D000F1F79C91842F892391E009F490E08881B4
:1011E000E82309F092609093550310925A03DF911F
:1011F000CF910895CF93DF93CDB7DEB729970FB680
:10120000F894DEBF0FBECDBF789484B5826084BDF4
:1012100084B5816084BD85B5826085BD85B58160FA
:1012200085BD80916E00816080936E001092810078
:101230008091810082608093810080918100816033
:1012400080938100809180008160809380008091F4
:10125000B10084608093B1008091B0008160809380
:10126000B00080917A00846080937A0080917A0047
:10127000826080937A0080917A00816080937A0006
:1012800080917A00806880937A001092C10061E0BA
:1012900082E00E94E30061E083E00E94E30061E0FD
:1012A00084E00E94E30062E087E00E94E30061E0E6
:1012B0008AE00E94E30061E08BE00E94E30010926C
:1012C00087021092860210928502109284020E9478
:1012D00011038AED91E090938302809382028BED5B
:1012E00091E090938102809380021092600380913C
:1012F0006503823018F098E0909360038093630355
:1013000062E370E080E090E00E94A80160916603D3
:101310008BE593E00E94D60368EE73E080E090E0F6
:101320000E94A80160E38BE593E00E940F058BE427
:1013300096E40197F1F760E38BE593E00E940F05D7
:101340002BE436E4C9010197F1F760E38BE593E004
:101350000E940F0583E592E00197F1F760E28BE5CB
:1013600093E00E940F0560916003606240E08BE5AE
:1013700093E00E94280584E08093610340E06CE0E4
:101380008BE593E00E94280540E061E08BE593E067
:101390000E9428058BE39FE10197F1F782E080939B
:1013A000620340E066E08BE593E00E94280540E0A0
:1013B00062E08BE593E00E942805ABE3BFE1119763
:1013C000F1F788E08093660360E08BE593E00E948C
:1013D000D60304E011E0198240E0698160648BE586
:1013E00093E00E9428057801B8E0EB0EF11CF801AB
:1013F00061918F018BE593E00E943F05E016F106B5
:10140000B1F7F981F85FF983F03431F7E091B20276
:10141000F091B30282E08083E091AE02F091AF02DE
:101420001082E091B002F091B1028FE380831092BC
:10143000BA02E091B602F091B70286E08083E091B3
:10144000B402F091B502808180618083E091B402A2
:10145000F091B502808188608083E091B402F091C0
:10146000B502808180688083E091B402F091B5027A
:1014700080818F7D808344244A9473E0572E612CB1
:10148000712C80E10E9471011C0120919702309122
:101490009802A9EFBFEF0E94BE0CA30192010E9427
:1014A0004F0CDA01C9010796A11DB11D8B839C83E6
:1014B000AD83BE83809195029091960228163906DD
:1014C00021F03092980220929702A6E7B1E0BA8309
:1014D000A98366E4C62E61E0D62E06E511E01986E2
:1014E0001886B885BF836B2F617082E00E94B500BB
:1014F0006885798575956795617083E00E94B50070
:1015000068857985759567957595679584E00E94DE
:10151000B5008EE00E9471012FE730E0DC010E94EF
:10152000C60CA30192010E944F0C49015A01E981A6
:10153000FA8180819181281B390BC90137FF03C0D3
:101540009195819591090297BCF0D8011296FC9073
:1015500012976D917C9161507109606B82EA92E003
:101560000E947D026F2D82EA92E00E947D02682D2A
:1015700082EA92E00E947D02E981FA819182808272
:10158000A7E0B0E0A50194010E946E0C2FE730E0C7
:1015900040E050E00E944F0C922EE22EF32EA090DD
:1015A0009302B0909402D6018D919C91E816F906B1
:1015B00039F480914401909145018A159B05F1F021
:1015C0008F80B8E08B0E60E0882D0E944505692D64
:1015D0008BE593E00E943F0561E0882D0E94450560
:1015E000E885F9858EEB91E0EA15FB0511F080ECBA
:1015F00091E00E94EF05D601ED92FC92E885F98515
:101600003196F987E88729813A812E5F3F4F3A83E7
:10161000298332E0C30ED11C0C5F1F4F389709F0AD
:1016200060CF60E080E00E94450582EC91E00E947E
:10163000EF05E0919302F0919402EE0FFF1FEE0F81
:10164000FF1FEA5AFE4F828193810E94C60585ECF6
:1016500091E00E94EF056B818BE593E00E943F05CE
:1016600061E080E00E94450587EC91E00E94EF0573
:10167000E0919302F0919402EE0FFF1FEE0FFF1F17
:10168000EA5AFE4F808191810E94C60530929602EF
:10169000209295028091930290919402909345013B
:1016A000809344016B817C818AE00E94140164E094
:1016B00070E04B815C81641B750B77FF02C070E0AA
:1016C00060E08BE00E941401E3E8F0E08491E7E938
:1016D000F0E0F491FB83E5EBF0E0F491F98330E086
:1016E00020E0FF23A9F081110E948C002981E22FC4
:1016F000F0E0EE0FFF1FEC55FF4FA591B4918C91D8
:101700003B81382391E080E009F490E0292F382FC5
:10171000422F417049834FB7F89480919A0290917B
:101720009B02A0919C02B0919D024FBF0B97A10517
:10173000B105E8F0232BD9F4809188028823B9F011
:101740008091930290919402019664E070E00E946F
:10175000AA0C909394028093930240E061E08BE5A1
:1017600093E00E9428058BE39FE10197F1F75981EF
:101770005093880280915A03823008F08EC0F8940A
:101780008FE493E00E94C104609156037091570367
:101790008091580390915903789424E030E040E020
:1017A00050E00E944F0C809191029091920282171A
:1017B0009307B9F06FB7F89480919A0290919B02C9
:1017C000A0919C02B0919D026FBF80938D02909377
:1017D0008E02A0938F02B0939002309392022093D6
:1017E00091022FB7F89480919A0290919B02A09158
:1017F0009C02B0919D022FBF40918D0250918E02AC
:1018000060918F0270919002841B950BA60BB70B11
:101810000B97A105B105A0F12091910230919202A0
:1018200080918B0290918C028217930749F130933B
:101830008C0220938B02E0919302F0919402EE0FC0
:10184000FF1FEE0FFF1FEA5AFE4F80918902909111
:101850008A02D901A81BB90BCD0142815381840FA3
:10186000951F8038910514F08FE790E097FF02C034
:1018700090E080E09383828330938A0220938902F0
:1018800080E090E0892B09F4FCCD0E944702882378
:1018900009F4F7CD0E940000F4CDF89475CF052E21
:1018A00097FB1EF400940E94660C57FD07D00E941F
:1018B000790C07FC03D04EF40C94660C50954095BF
:1018C000309521953F4F4F4F5F4F089590958095EC
:1018D000709561957F4F8F4F9F4F08950E949B0C8D
:1018E000A59F900DB49F900DA49F800D911D112474
:1018F0000895A1E21A2EAA1BBB1BFD010DC0AA1F51
:10190000BB1FEE1FFF1FA217B307E407F50720F068
:10191000A21BB30BE40BF50B661F771F881F991FE3
:101920001A9469F760957095809590959B01AC012C
:10193000BD01CF010895A29FB001B39FC001A39F35
:10194000700D811D1124911DB29F700D811D1124F8
:10195000911D089597FB072E16F4009407D077FD8C
:1019600009D00E94CD0C07FC05D03EF490958195DE
:101970009F4F0895709561957F4F08950E949B0C2D
:10198000332312F48A1B9B0B0C94C80C0E949B0CF3
:10199000B7FF0895821B930B0895AA1BBB1B51E14F
:1019A00007C0AA1FBB1FA617B70710F0A61BB70BCF
:1019B000881F991F5A95A9F780959095BC01CD0174
:1019C0000895EE0FFF1F0590F491E02D0994F8940F
:1019D000FFCFDC01DC01000000000000001F000060
:1019E000000000001F0000000000001F00000000B9
:1019F00000001F0000000000001F000000000000A9
:101A00001F0000000000001F0000000000001F0079
:101A1000000000000000FFFFFFFFFFFFFFFFFFFFD0
:101A2000FFFFFFFFFFFFFFFF0100020002000400B5
:101A300003000600040030000500370006004200E5
:101A400007004D0008005800FFFFFFFFFFFFFFFFEA
:101A5000FFFFFFFFFFFFFFFF0000400014005400E6
:101A6000000000007D02DD010A02CA023B021902E9
:101A70002D0200000000A7037A03BE045003730385
:101A800060035103000000003F05DD01BE04BD04FA
:101A90002A00200043430058004D4944493A0000C1
:107E0000112484B714BE81FFF0D085E080938100F7
:107E100082E08093C00088E18093C10086E0809377
:107E2000C20080E18093C4008EE0C9D0259A86E02C
:107E300020E33CEF91E0309385002093840096BBD3
:107E4000B09BFECF1D9AA8958150A9F7CC24DD24C4
:107E500088248394B5E0AB2EA1E19A2EF3E0BF2EE7
:107E6000A2D0813461F49FD0082FAFD0023811F036
:107E7000013811F484E001C083E08DD089C08234E0
:107E800011F484E103C0853419F485E0A6D080C0E4
:107E9000853579F488D0E82EFF2485D0082F10E0AE
:107EA000102F00270E291F29000F111F8ED06801E7
:107EB0006FC0863521F484E090D080E0DECF843638
:107EC00009F040C070D06FD0082F6DD080E0C81688
:107ED00080E7D80618F4F601B7BEE895C0E0D1E017
:107EE00062D089930C17E1F7F0E0CF16F0E7DF06D8
:107EF00018F0F601B7BEE89568D007B600FCFDCFD4
:107F0000A601A0E0B1E02C9130E011968C91119780
:107F100090E0982F8827822B932B1296FA010C0160
:107F200087BEE89511244E5F5F4FF1E0A038BF0790
:107F300051F7F601A7BEE89507B600FCFDCF97BE46
:107F4000E89526C08437B1F42ED02DD0F82E2BD052
:107F50003CD0F601EF2C8F010F5F1F4F84911BD097
:107F6000EA94F801C1F70894C11CD11CFA94CF0C13
:107F7000D11C0EC0853739F428D08EE10CD085E9AC
:107F80000AD08FE07ACF813511F488E018D01DD067
:107F900080E101D065CF982F8091C00085FFFCCF94
:107FA0009093C60008958091C00087FFFCCF809118
:107FB000C00084FD01C0A8958091C6000895E0E648
:107FC000F0E098E1908380830895EDDF803219F02E
:107FD00088E0F5DFFFCF84E1DECF1F93182FE3DFCA
:107FE0001150E9F7F2DF1F91089580E0E8DFEE27F6
:047FF000FF270994CA
:027FFE00040479
:00000001FF
