:020000040000FA
:100000000C9462000C9429060C9402060C948A004D
:100010000C948A000C948A000C948A000C948A0038
:100020000C948A000C948A000C948A000C948A0028
:100030000C948A000C948A000C948A000C948A0018
:100040000C94B8050C948A000C9476060C94500617
:100050000C948A000C948A000C948A000C948A00F8
:100060000C94A8060C948A000000000024002700CD
:100070002A0000000000250028002B0000000008D6
:10008000000201000003040700000000000000005F
:10009000010204081020408001020408102001021F
:1000A000040810200000000023002600290004049A
:1000B0000404040404040202020202020303030310
:1000C0000303C70711241FBECFEFD8E0DEBFCDBFAB
:1000D00011E0A0E0B1E0E4EFF8E102C005900D927C
:1000E000AC3CB107D9F723E0ACECB1E001C01D9204
:1000F000A136B207E1F710E0C2E6D0E004C02197D4
:10010000FE010E94720CC136D107C9F70E947E0819
:100110000C94780C0C940000833081F028F481302A
:1001200099F08230A9F008958730A9F08830C9F09D
:100130008430B1F4809180008F7D03C08091800075
:100140008F7780938000089584B58F7784BD08955C
:1001500084B58F7DFBCF8091B0008F778093B00006
:1001600008958091B0008F7DF9CF1F93CF93DF93D7
:10017000282F30E0F901E458FF4F8491F901E0574E
:10018000FF4FD491F901E255FF4FC491CC23A9F060
:10019000162F81110E948C00EC2FF0E0EE0FFF1F54
:1001A000EE58FF4FA591B4918FB7F894EC911111CF
:1001B00008C0D095DE23DC938FBFDF91CF911F91D4
:1001C0000895DE2BF8CFCF93DF9390E0FC01E0574A
:1001D000FF4F249182559F4FFC0184918823D1F0D9
:1001E00090E0880F991FFC01E859FF4FA591B49149
:1001F000FC01EE58FF4FC591D491623071F49FB766
:10020000F8943C91822F809583238C93E8812E2B48
:1002100028839FBFDF91CF9108958FB7F894EC9119
:100220002E2B2C938FBFF6CF3FB7F8948091980276
:1002300090919902A0919A02B0919B0226B5A89B39
:1002400005C02F3F19F00196A11DB11D3FBFBA2F68
:10025000A92F982F8827BC01CD01620F711D811D28
:10026000911D42E0660F771F881F991F4A95D1F7AD
:1002700008958F929F92AF92BF92CF92DF92EF92AA
:10028000FF924B015C010E9414016B017C010E94F2
:1002900014016C197D098E099F09683E7340810520
:1002A0009105A8F321E0821A9108A108B10888EE0F
:1002B000C80E83E0D81EE11CF11C81149104A10436
:1002C000B10429F7FF90EF90DF90CF90BF90AF90EF
:1002D0009F908F900895089508950895AF92BF92CA
:1002E000CF92DF92EF92FF920F931F93CF93DF9302
:1002F0006C017B018B01040F151FEB015E01AE1831
:10030000BF08C017D10759F06991D601ED91FC9152
:100310000190F081E02DC6010995892B79F7C5017F
:10032000DF91CF911F910F91FF90EF90DF90CF90D1
:10033000BF90AF900895FC01538D448D252F30E080
:10034000842F90E0821B930B541710F0CF960895E2
:1003500001970895FC01918D828D981761F0A28D0F
:10036000AE0FBF2FB11D5D968C91928D9F5F9F73D5
:10037000928F90E008958FEF9FEF0895FC01918D8B
:10038000828D981731F0828DE80FF11D858D90E0F8
:1003900008958FEF9FEF0895FC01918D228D892F95
:1003A00090E0805C9F4F821B91098F73992708957D
:1003B0008CE992E00E94CC0121E0892B09F420E035
:1003C000822F089580E090E0892B29F00E94D801C7
:1003D00081110C9400000895FC01A48DA80FB92F81
:1003E000B11DA35ABF4F2C91848D90E001968F735D
:1003F0009927848FA689B7892C93A089B1898C917C
:10040000837080648C93938D848D981306C00288CA
:10041000F389E02D80818F7D80830895EF92FF9294
:100420000F931F93CF93DF93EC0181E0888F9B8D17
:100430008C8D98131AC0E889F989808185FF15C0D1
:100440009FB7F894EE89FF896083E889F9898081F4
:100450008370806480839FBF81E090E0DF91CF91C3
:100460001F910F91FF90EF900895F62E0B8D10E0E5
:100470000F5F1F4F0F731127E02E8C8D8E110CC054
:100480000FB607FCFACFE889F989808185FFF5CF9F
:10049000CE010E94EC01F1CFEB8DEC0FFD2FF11D91
:1004A000E35AFF4FF0829FB7F8940B8FEA89FB89DC
:1004B00080818062CFCFCF93DF93EC01888D88233A
:1004C000B9F0AA89BB89E889F9898C9185FD03C0B7
:1004D000808186FD0DC00FB607FCF7CF8C9185FF9C
:1004E000F2CF808185FFEDCFCE010E94EC01E9CFF4
:1004F000DF91CF91089520913402260F3327331FC7
:1005000021323105ECF420915802FC0190E080E0AA
:10051000243069F082E00895A09134022191AC0169
:100520004C5E5D4FA40FB52FB11D2C93019686171D
:1005300098F380913402680F6093340280E008954C
:1005400081E008951092580281E080935A0210923F
:10055000590261E082E10E94B50061E083E10E94FE
:10056000B500E9EBF0E080818E7F808380818D7F14
:10057000808388E48093B80085E48093BC0008956C
:10058000CF93DF9391E0909313028823B9F0C09149
:10059000B800D091BA008091BC008A7B8093BC00E7
:1005A00060E082E10E94B50060E083E10E94B50056
:1005B0000E94A202D093BA00C093B800DF91CF91FD
:1005C00008950895E091850280918402E81730F43F
:1005D000F0E0E251FE4F808190E008958FEF9FEFB1
:1005E000089590918502809184022FEF3FEF981734
:1005F00048F4E92FF0E0E251FE4F208130E09F5FA8
:1006000090938502C901089580918402909185029A
:10061000891B990B0895CF92DF92EF92FF920F936F
:100620001F93CF93DF937C01CB018A012091ED01D1
:10063000222389F0EB016B01C40ED51ECC15DD051C
:1006400069F06991D701ED91FC910190F081E02D65
:10065000C7010995F3CF642F0E947B02C801DF9187
:10066000CF911F910F91FF90EF90DF90CF90089561
:10067000CF93DF931F92CDB7DEB769832091ED0151
:100680002223F9F020918202203258F021E030E05C
:10069000FC013383228390E080E00F90DF91CF91C3
:1006A000089580918302E82FF0E0E353FE4F998193
:1006B00090838F5F809383028093820281E090E039
:1006C000ECCF61E0CE0101960E947B02F7CFCF9282
:1006D000DF92EF92FF920F931F93CF93DF93FC0172
:1006E000C48121E02093ED01C093CC0110928302DC
:1006F000109282028385682B89E393E00E9438037D
:10070000D0918202D13208F092C00E9414016B0194
:100710007C0180915802811165C082E0809358026B
:1007200081E080935A028FEF8093570210927C02EF
:10073000D0937B02ADECB1E0EBE5F2E080E0D813C2
:1007400085C010927D0280917D02CC0FC82BC09392
:100750007D0280915902813009F07CC010925902CB
:100760000E9414016B017C0180917D028093BB008B
:1007700080910F0290911002A0911102B09112028B
:10078000892B8A2B8B2B99F00E94140100910F0268
:100790001091100220911102309112026C197D0902
:1007A0008E099F090617170728073907E0F180917E
:1007B000BC0083FDD9CF85EC8093BC000E9414015E
:1007C0006B017C0180915802823009F445C0809110
:1007D00057028F3F61F180915702803241F1809141
:1007E000570225C080910F0290911002A091110232
:1007F000B0911202892B8A2B8B2B09F48ACF0E948D
:10080000140100910F0210911002209111023091F9
:1008100012026C197D098E099F0906171707280710
:10082000390708F076CF80910E020E94C002109224
:100830008302109282021092ED01DF91CF911F91FD
:100840000F91FF90EF90DF90CF9008959D9191933D
:100850008F5F75CF85EEB0CF80910F02909110021F
:10086000A0911102B0911202892B8A2B8B2B09F4D3
:10087000A9CF0E94140100910F0210911002209143
:100880001102309112026C197D098E099F09061719
:1008900017072807390708F095CFC5CF089590E0CE
:1008A00080E00895DC01ED91FD918081ED91FD9155
:1008B0009081ED91FD916C9163708E2309F06460DD
:1008C0009F2309F06860EFE6F4E0E60FF11D6595FF
:1008D00065956D936D917D918D919D91099423C046
:1008E0001AC012C016C010C01EC009C014C013C068
:1008F00006C019C009C00DC007C00DC014C06250A9
:100900007040804090400BC06150704080409040EB
:1009100006C06E5F01C06F5F7F4F8F4F9F4F9E93EA
:100920008E937E936E930895809145039091460334
:100930000C94520480914703909148030C94520404
:100940000F931F93CF938C01C62F0E9467036C2FC8
:100950006460C8010E9467036C2F6B7FC8010E940E
:10096000670383EC90E00197F1F7CF911F910F910E
:1009700008950F931F93CF93DF938C01D62FC42F2D
:10098000607F642B0E94A00480E1D89FB0011124F5
:100990006C2BC801DF91CF911F910F910C94A00493
:1009A000CF93DF93CDB7DEB728970FB6F894DEBFAD
:1009B0000FBECDBF98E0E6E8F1E0DE0111960190B0
:1009C0000D929A95E1F790915103961708F46FEF05
:1009D000262F30E0220F331F41E050E04C0F5D1F07
:1009E000240F351FF9016081680F606840E089E4D9
:1009F00093E028960FB6F894DEBF0FBECDBFDF910F
:100A0000CF910C94B90441E00E94B90481E090E0D8
:100A100008958F929F92AF92BF920F931F93CF939F
:100A2000DF93CDB7DEB7A1970FB6F894DEBF0FBE48
:100A3000CDBF19A2423008F44AE08E010F5D1F4F6E
:100A4000842E912CB12CA12CA50194010E94120C92
:100A5000E62FB901CA01EA3044F5E05DD801EE9312
:100A60008D01232B242B252B79F790E080E0109724
:100A700069F0FD0101900020E9F73197AF014A1BB1
:100A80005B0BBD0189E493E00E946E01A1960FB655
:100A9000F894DEBF0FBECDBFDF91CF911F910F91B4
:100AA000BF90AF909F908F900895E95CD7CFCF9281
:100AB000DF92EF92FF926B017C0141E06DE289E4ED
:100AC00093E00E94B90466277727CB016C197D0952
:100AD0008E099F094AE00E9409050196FF90EF9058
:100AE000DF90CF900895FC0101900020E9F7319745
:100AF000AF01481B590BBC0189E493E00C946E01D3
:100B000085ED8093BC0080910F0290911002A0911E
:100B10001102B09112020796A11DB11D23E0B695F6
:100B2000A795979587952A95D1F72091BC0024FD2C
:100B300003C010925802089540910F025091100284
:100B40006091110270911202452B462B472B69F3DD
:100B50000097A105B10541F02AE22A95F1F700C0FE
:100B60000197A109B109E1CF80910E020C94C00256
:100B70001F920F920FB60F9211242F933F938F93D2
:100B80009F93AF93BF938091940290919502A0910F
:100B90009602B09197023091930223E0230F2D37F4
:100BA00058F50196A11DB11D2093930280939402E4
:100BB00090939502A0939602B09397028091980229
:100BC00090919902A0919A02B0919B020196A11D69
:100BD000B11D8093980290939902A0939A02B093CA
:100BE0009B02BF91AF919F918F913F912F910F9059
:100BF0000FBE0F901F90189526E8230F0296A11D97
:100C0000B11DD2CF1F920F920FB60F9211242F93C6
:100C10003F934F935F936F937F938F939F93AF9384
:100C2000BF93EF93FF93E0910201F09103010995C7
:100C3000FF91EF91BF91AF919F918F917F916F91B4
:100C40005F914F913F912F910F900FBE0F901F908A
:100C500018951F920F920FB60F9211242F933F9366
:100C60004F935F936F937F938F939F93AF93BF93B4
:100C7000EF93FF93E0910001F09101010995FF913D
:100C8000EF91BF91AF919F918F917F916F915F9104
:100C90004F913F912F910F900FBE0F901F9018957D
:100CA0001F920F920FB60F9211242F933F934F93E1
:100CB0005F936F937F938F939F93AF93BF93EF93C4
:100CC000FF938CE992E00E94EC01FF91EF91BF91BC
:100CD000AF919F918F917F916F915F914F913F91D4
:100CE0002F910F900FBE0F901F9018951F920F928B
:100CF0000FB60F9211242F938F939F93EF93FF932F
:100D0000E091AC02F091AD028081E091B202F091ED
:100D1000B30282FD1BC090818091B5028F5F8F73FB
:100D20002091B602821741F0E091B502F0E0E4565E
:100D3000FD4F958F8093B502FF91EF919F918F9119
:100D40002F910F900FBE0F901F9018958081F4CFB8
:100D50001F920F920FB60F9211242F933F934F9330
:100D60005F936F937F938F939F93AF93BF93EF9313
:100D7000FF938091B900887F803609F44AC0F0F56E
:100D8000883209F4A7C018F5803109F49BC0B8F483
:100D9000882309F4F9C0883009F494C0FF91EF91D9
:100DA000BF91AF919F918F917F916F915F914F9183
:100DB0003F912F910F900FBE0F901F901895883183
:100DC00009F488C0803251F78093570214C08034F0
:100DD00009F49DC040F48033B9F38833F9F6809369
:100DE000570285ECB0C0803509F485C0883509F418
:100DF00096C0883499F60E948005D0CF883909F4CE
:100E00008CC038F5883729F050F4883611F08037D7
:100E100029F683E0809358021092560257C0883812
:100E200009F47BC0803919F0803809F0B7CF809180
:100E30005602803208F071C0E091560281E08E0FB8
:100E4000809356028091BB00F0E0EA5CFD4F808306
:100E50003DC0803B39F0E0F4803A09F479C0883A2B
:100E600009F09CCF84E080935802109235021092D2
:100E70003402E0918002F091810209958091340260
:100E800081110FC081E0809334021092140209C0D6
:100E9000803C09F4A6CF883C09F4A3CF883B09F035
:100EA0007DCFE091350281E08E0F80933502F0E036
:100EB000EC5EFD4F80818093BB0090913502809164
:100EC000340229C080917D028093BB0085EC809321
:100ED000BC0064CF90917C0280917B02981758F5FA
:100EE000E0917C0281E08E0F80937C02F0E0E55A75
:100EF000FD4F8081E9CFE0917C0281E08E0F8093ED
:100F00007C028091BB00F0E0E55AFD4F8083909118
:100F10007C0280917B029817C8F285E8D8CFE091D7
:100F20007C0281E08E0F80937C028091BB00F0E018
:100F3000E55AFD4F808380915A0281115CCF81E098
:100F40008093590284EA8093BC001092580226CF05
:100F500085EC8093BC00109258028091560280323A
:100F600030F4E0915602F0E0EA5CFD4F10826091AF
:100F7000560270E0E0917E02F0917F0286E392E0FB
:100F80000995109256020ACF1092570234CFCF9390
:100F9000DF9310929F0210929E0288EE93E0A0E0F1
:100FA000B0E08093A0029093A102A093A202B0931C
:100FB000A30222E931E030939D0220939C0225ECAC
:100FC00030E03093A9022093A80224EC30E0309363
:100FD000AB022093AA0220EC30E03093AD022093C4
:100FE000AC0221EC30E03093AF022093AE0222EC51
:100FF00030E03093B1022093B00226EC30E0309321
:10100000B3022093B2021092B5021092B60210926F
:10101000B7021092B80210923C0310923B038093E7
:101020003D0390933E03A0933F03B093400384EAB3
:1010300091E090933A038093390362E085E00E9447
:10104000E30062E086E00E94E300E3EBF0E0E4917D
:10105000F0E0EE0FFF1FEC55FF4FA591B491B09358
:101060005603A0935503E5E9F0E0449140935903FA
:10107000E4EBF0E0E491F0E0EE0FFF1FEC55FF4FE2
:10108000C591D491D0935803C0935703E6E9F0E09B
:10109000E491E0935A0310925C0310925D03109266
:1010A0005E0310925F032BE33FE1C9010197F1F763
:1010B0009C91842F892391E009F490E08881E823B2
:1010C00009F0926090935B031092600310924C03BE
:1010D00010924B0386EB91E090934A03809349036F
:1010E00087E280934D0380E18093520382E08093F6
:1010F000530310925403DF91CF910895789484B5EF
:10110000826084BD84B5816084BD85B5826085BD03
:1011100085B5816085BD80916E00816080936E0091
:101120001092810080918100826080938100809183
:101130008100816080938100809180008160809334
:1011400080008091B10084608093B1008091B000F4
:1011500081608093B00080917A00846080937A00EF
:1011600080917A00826080937A0080917A00816019
:1011700080937A0080917A00806880937A00109240
:10118000C10061E082E00E94E30061E083E00E9430
:10119000E30061E084E00E94E30062E087E00E94F7
:1011A000E30061E08AE00E94E30010928502109261
:1011B000840210928302109282020E94A2028BE6A5
:1011C00091E090938102809380028CE691E090936D
:1011D0007F0280937E0210924E03809153038230EF
:1011E00018F098E090934E038093510362E370E00F
:1011F00080E090E00E9439016091540389E493E01B
:101200000E94670368EE73E080E090E00E9439017D
:1012100060E389E493E00E94A004CBE4D6E4CE012D
:101220000197F1F760E389E493E00E94A00421971D
:10123000F1F760E389E493E00E94A00483E592E083
:101240000197F1F760E289E493E00E94A0046091C5
:101250004E03606240E089E493E00E94B90484E0B8
:1012600080934F0340E06CE089E493E00E94B9046E
:1012700040E061E089E493E00E94B904CBE3DFE160
:10128000CE010197F1F782E08093500340E066E0E1
:1012900089E493E00E94B90440E062E089E493E0CD
:1012A0000E94B9042197F1F788E08093540360E02D
:1012B00089E493E00E94670304E011E0C0E040E0AD
:1012C0006C2F606489E493E00E94B904780128E0FF
:1012D000E20EF11CF80161918F0189E493E00E9414
:1012E0000305E016F106B1F7C85FC03441F7E0919D
:1012F000AC02F091AD0282E08083E091A802F0910F
:10130000A9021082E091AA02F091AB028FE38083E0
:101310001092B402E091B002F091B10286E08083B5
:10132000E091AE02F091AF02808180618083E09114
:10133000AE02F091AF02808188608083E091AE02BE
:10134000F091AF02808180688083E091AE02F091DD
:10135000AF0280818F7D808344244A94C3E05C2E59
:10136000612C712CE3E8F0E08491E7E9F0E0C491AE
:10137000E5EBF0E0D491DD2309F4DDC181110E9499
:101380008C00ED2FF0E0EE0FFF1FEC55FF4FA59105
:10139000B4918C91C82331E020E009F430E0832F30
:1013A000922FC82FC1702FB7F8944091940250919A
:1013B000950260919602709197022FBF45315105B9
:1013C00061057105E8F0892BD9F4809186028823A4
:1013D000B9F08091910290919202019668E070E0DC
:1013E0000E94430C909392028093910240E061E04E
:1013F00089E493E00E94B9048BE39FE10197F1F740
:10140000C093860280916003823008F097C1F894FF
:1014100085E593E00E94520460915C0370915D0346
:1014200080915E0390915F03789423E030E040E088
:1014300050E00E94F30B80918F02909190028217EE
:101440009307B9F06FB7F894809194029091950248
:10145000A0919602B09197026FBF80938B029093F8
:101460008C02A0938D02B0938E0230939002209351
:101470008F022FB7F8948091940290919502A091D9
:101480009602B09197022FBF40918B0250918C022F
:1014900060918D0270918E02841B950BA60BB70B89
:1014A0004597A105B105A0F120918F0230919002DE
:1014B0008091890290918A028217930749F13093B3
:1014C0008A0220938902E0919102F0919202EE0F3C
:1014D000FF1FEE0FFF1FEA5AFE4F80918702909187
:1014E0008802A901481B590BCA0142815381840F0C
:1014F000951F8038910514F08FE790E097FF02C0A8
:1015000090E080E093838283309388022093870267
:1015100060E080E00E94D00482EC91E00E947305BC
:10152000E0919102F0919202EE0FFF1FEE0FFF1F6C
:10153000EA5AFE4F62817381072E000C880B990BCB
:1015400097FFFEC00E94570580EC91E00E94730552
:1015500061E080E00E94D00486EC91E00E94730577
:10156000E0919102F0919202EE0FFF1FEE0FFF1F2C
:10157000EA5AFE4F60817181072E000C880B990B8F
:1015800097FFE2C00E94570546E7C42E41E0D42EE3
:1015900056E4E52E51E0F52E5601D0E0C0E0F5010D
:1015A000A191B1915F0127E030E00E94570C2FE735
:1015B00030E040E050E00E94F30B222E022F132F68
:1015C000F701819191917F01809091029090920218
:1015D0000817190739F48091440190914501881545
:1015E0009905E9F060E03C2EF8E03F0E832D0E9463
:1015F000D004622D89E493E00E94030561E0832D0D
:101600000E94D0048EEB91E0C815D90511F080EC52
:1016100091E00E947305F7013297118300832196B0
:10162000C830D10509F0BBCF809191029091920210
:10163000909345018093440126E5E22E21E0F22EAD
:1016400010E000E030E4932E602F617082E00E9491
:10165000B500B80175956795617083E00E94B5008B
:10166000B801759567957595679584E00E94B500FA
:1016700090927C0080917A00806480937A008091BF
:101680007A0086FDFCCFA0917800B09179002FE719
:1016900030E00E94570CA30192010E94F30BB22E7E
:1016A000A32EC22FD32FF601819191916F019E013C
:1016B000281B390BC90137FF03C09195819591090A
:1016C0000297CCF0F6013297D183C083F701828074
:1016D0006081718161507109606B8CE992E00E94B8
:1016E0000E02682D8CE992E00E940E026B2D8CE9AF
:1016F00092E00E940E0261E08AE00E94E3002097DF
:1017000039F560E08AE00E94B5000F5F1F4FF4E0FA
:10171000EF0EF11C0830110509F096CF80E090E043
:10172000892B09F41FCE0E94D801882309F41ACE10
:101730000E94000017CE90E080E033CEF8946CCE8B
:101740004AE00E94090500CF4AE00E9409051CCF2B
:10175000CF3FD10511F461E0D5CFE6E8F0E0849108
:10176000833029F140F48130C1F08230D9F0C038A3
:10177000D1058CF7C6CF873031F1883061F18430E4
:10178000B1F7809180008062809380008B2D9A2D2C
:1017900090938B0080938A00B8CF84B5806884BD15
:1017A000B7BCB3CF84B5806284BDB8BCAECF8091E6
:1017B00080008068809380008B2D9A2D9093890003
:1017C00080938800A2CF8091B00080688093B000A1
:1017D000B092B3009ACF8091B00080628093B00045
:1017E000B092B40092CF052E97FB1EF400940E9495
:1017F0000A0C57FD07D00E94120C07FC03D04EF4D0
:101800000C940A0C50954095309521953F4F4F4FC1
:101810005F4F089590958095709561957F4F8F4F9C
:101820009F4F0895A1E21A2EAA1BBB1BFD010DC0FC
:10183000AA1FBB1FEE1FFF1FA217B307E407F50780
:1018400020F0A21BB30BE40BF50B661F771F881F5C
:10185000991F1A9469F760957095809590959B01F2
:10186000AC01BD01CF010895A29FB001B39FC0019B
:10187000A39F700D811D1124911DB29F700D811DBC
:101880001124911D089597FB072E16F4009407D09C
:1018900077FD09D00E945E0C07FC05D03EF49095C0
:1018A00081959F4F0895709561957F4F08950E948F
:1018B000340CB7FF0895821B930B0895AA1BBB1B22
:1018C00051E107C0AA1FBB1FA617B70710F0A61B40
:1018D000B70B881F991F5A95A9F780959095BC0161
:1018E000CD010895EE0FFF1F0590F491E02D0994AE
:1018F000F894FFCF6D016D01000000000000001F93
:101900000000000000001F1F00000000001F1F1F3C
:10191000000000001F1F1F1F0000001F1F1F1F1FB0
:1019200000001F1F1F1F1F1F001F1F1F1F1F1F1F24
:101930001F1F1F1F1F1F1F1FFFFFFFFFFFFFFFFFB7
:10194000FFFFFFFFFFFFFFFFFFFF0100020001009D
:101950000400020006000200080001000A00010065
:1019600016000200210002002C00FFFFFFFFFFFF16
:10197000FFFFFFFFFFFFFFFFFFFF0000400014001D
:101980005400000000000E026E019B015B02CC01BE
:10199000AA01BE010000000038030B034F04E1025E
:1019A0000403F102E2020000000003056E014F048F
:1019B0004E042A00200043433A004D4944493A006E
:107E0000112484B714BE81FFF0D085E080938100F7
:107E100082E08093C00088E18093C10086E0809377
:107E2000C20080E18093C4008EE0C9D0259A86E02C
:107E300020E33CEF91E0309385002093840096BBD3
:107E4000B09BFECF1D9AA8958150A9F7CC24DD24C4
:107E500088248394B5E0AB2EA1E19A2EF3E0BF2EE7
:107E6000A2D0813461F49FD0082FAFD0023811F036
:107E7000013811F484E001C083E08DD089C08234E0
:107E800011F484E103C0853419F485E0A6D080C0E4
:107E9000853579F488D0E82EFF2485D0082F10E0AE
:107EA000102F00270E291F29000F111F8ED06801E7
:107EB0006FC0863521F484E090D080E0DECF843638
:107EC00009F040C070D06FD0082F6DD080E0C81688
:107ED00080E7D80618F4F601B7BEE895C0E0D1E017
:107EE00062D089930C17E1F7F0E0CF16F0E7DF06D8
:107EF00018F0F601B7BEE89568D007B600FCFDCFD4
:107F0000A601A0E0B1E02C9130E011968C91119780
:107F100090E0982F8827822B932B1296FA010C0160
:107F200087BEE89511244E5F5F4FF1E0A038BF0790
:107F300051F7F601A7BEE89507B600FCFDCF97BE46
:107F4000E89526C08437B1F42ED02DD0F82E2BD052
:107F50003CD0F601EF2C8F010F5F1F4F84911BD097
:107F6000EA94F801C1F70894C11CD11CFA94CF0C13
:107F7000D11C0EC0853739F428D08EE10CD085E9AC
:107F80000AD08FE07ACF813511F488E018D01DD067
:107F900080E101D065CF982F8091C00085FFFCCF94
:107FA0009093C60008958091C00087FFFCCF809118
:107FB000C00084FD01C0A8958091C6000895E0E648
:107FC000F0E098E1908380830895EDDF803219F02E
:107FD00088E0F5DFFFCF84E1DECF1F93182FE3DFCA
:107FE0001150E9F7F2DF1F91089580E0E8DFEE27F6
:047FF000FF270994CA
:027FFE00040479
:00000001FF
