:020000040000FA
:100000000C9462000C94A5060C947E060C948A0055
:100010000C948A000C948A000C948A000C948A0038
:100020000C948A000C948A000C948A000C948A0028
:100030000C948A000C948A000C948A000C948A0018
:100040000C9434060C948A000C94F2060C94CC06A2
:100050000C948A000C948A000C948A000C948A00F8
:100060000C9424070C948A00000000002400270050
:100070002A0000000000250028002B0000000008D6
:10008000000201000003040700000000000000005F
:10009000010204081020408001020408102001021F
:1000A000040810200000000023002600290004049A
:1000B0000404040404040202020202020303030310
:1000C0000303430811241FBECFEFD8E0DEBFCDBF2E
:1000D00011E0A0E0B1E0E2EBFEE102C005900D927C
:1000E000A63CB107D9F723E0A6ECB1E001C01D9210
:1000F000AF35B207E1F710E0C2E6D0E004C02197C7
:10010000FE010E94510FC136D107C9F70E94FA08BB
:100110000C94570F0C940000833081F028F4813048
:1001200099F08230A9F008958730A9F08830C9F09D
:100130008430B1F4809180008F7D03C08091800075
:100140008F7780938000089584B58F7784BD08955C
:1001500084B58F7DFBCF8091B0008F778093B00006
:1001600008958091B0008F7DF9CF1F93CF93DF93D7
:10017000282F30E0F901E458FF4F8491F901E0574E
:10018000FF4FD491F901E255FF4FC491CC23A9F060
:10019000162F81110E948C00EC2FF0E0EE0FFF1F54
:1001A000EE58FF4FA591B4918FB7F894EC911111CF
:1001B00008C0D095DE23DC938FBFDF91CF911F91D4
:1001C0000895DE2BF8CFCF93DF9390E0FC01E0574A
:1001D000FF4F249182559F4FFC0184918823D1F0D9
:1001E00090E0880F991FFC01E859FF4FA591B49149
:1001F000FC01EE58FF4FC591D491623071F49FB766
:10020000F8943C91822F809583238C93E8812E2B48
:1002100028839FBFDF91CF9108958FB7F894EC9119
:100220002E2B2C938FBFF6CF1F93CF93DF93182FD6
:10023000EB0161E00E94E300209739F460E0812F38
:10024000DF91CF911F910C94B500CF3FD10511F4F0
:1002500061E0F5CFE12FF0E0E458FF4FE491E330A7
:1002600031F140F4E130B1F0E230E1F0C038D105D5
:100270007CF7E4CFE73029F1E83059F1E430B1F709
:1002800080918000806280938000D0938B00C09327
:100290008A0004C084B5806884BDC7BDDF91CF915A
:1002A0001F91089584B5806284BDC8BDF7CF809149
:1002B0008000806880938000D0938900C09388007C
:1002C000EDCF8091B00080688093B000C093B30000
:1002D000E5CF8091B00080628093B000C093B400FD
:1002E000DDCF8E50806480937C0080917A008064A2
:1002F00080937A0080917A0086FDFCCF809178000F
:100300009091790008953FB7F8948091960290916A
:100310009702A0919802B091990226B5A89B05C0BA
:100320002F3F19F00196A11DB11D3FBFBA2FA92F74
:10033000982F8827BC01CD01620F711D811D911D71
:1003400042E0660F771F881F991F4A95D1F70895DD
:100350008F929F92AF92BF92CF92DF92EF92FF92D5
:100360004B015C010E9483016B017C010E948301AF
:100370006C197D098E099F09683E734081059105BE
:10038000A8F321E0821A9108A108B10888EEC80EEE
:1003900083E0D81EE11CF11C81149104A104B10476
:1003A00029F7FF90EF90DF90CF90BF90AF909F9094
:1003B0008F900895089508950895AF92BF92CF92B7
:1003C000DF92EF92FF920F931F93CF93DF936C0115
:1003D0007B018B01040F151FEB015E01AE18BF08F6
:1003E000C017D10759F06991D601ED91FC910190A8
:1003F000F081E02DC6010995892B79F7C501DF91C0
:10040000CF911F910F91FF90EF90DF90CF90BF9011
:10041000AF900895FC01538D448D252F30E0842F3B
:1004200090E0821B930B541710F0CF96089501971C
:100430000895FC01918D828D981761F0A28DAE0F09
:10044000BF2FB11D5D968C91928D9F5F9F73928F90
:1004500090E008958FEF9FEF0895FC01918D828DBC
:10046000981731F0828DE80FF11D858D90E0089589
:100470008FEF9FEF0895FC01918D228D892F90E0E1
:10048000805C9F4F821B91098F73992708958AE999
:1004900092E00E943B0221E0892B09F420E0822FA8
:1004A000089580E090E0892B29F00E944702811195
:1004B0000C9400000895FC01A48DA80FB92FB11D64
:1004C000A35ABF4F2C91848D90E001968F7399278A
:1004D000848FA689B7892C93A089B1898C91837068
:1004E00080648C93938D848D981306C00288F38961
:1004F000E02D80818F7D80830895EF92FF920F938E
:100500001F93CF93DF93EC0181E0888F9B8D8C8DBF
:1005100098131AC0E889F989808185FF15C09FB7B3
:10052000F894EE89FF896083E889F9898081837076
:10053000806480839FBF81E090E0DF91CF911F9125
:100540000F91FF90EF900895F62E0B8D10E00F5F46
:100550001F4F0F731127E02E8C8D8E110CC00FB61C
:1005600007FCFACFE889F989808185FFF5CFCE01B4
:100570000E945B02F1CFEB8DEC0FFD2FF11DE35AD2
:10058000FF4FF0829FB7F8940B8FEA89FB89808137
:100590008062CFCFCF93DF93EC01888D8823B9F0B1
:1005A000AA89BB89E889F9898C9185FD03C080817E
:1005B00086FD0DC00FB607FCF7CF8C9185FFF2CFFB
:1005C000808185FFEDCFCE010E945B02E9CFDF91F4
:1005D000CF91089520912E02260F3327331F213209
:1005E0003105ECF420915202FC0190E080E02430CF
:1005F00069F082E00895A0912E022191AC01425F42
:100600005D4FA40FB52FB11D2C930196861798F35B
:1006100080912E02680F60932E0280E0089581E0A1
:1006200008951092520281E0809354021092530276
:1006300061E082E10E94B50061E083E10E94B500C3
:10064000E9EBF0E080818E7F808380818D7F8083E5
:1006500088E48093B80085E48093BC000895CF932C
:10066000DF9391E090930D028823B9F0C091B80018
:10067000D091BA008091BC008A7B8093BC0060E07E
:1006800082E10E94B50060E083E10E94B5000E9413
:100690001103D093BA00C093B800DF91CF910895B1
:1006A0000895E0917F0280917E02E81730F4F0E037
:1006B000E851FE4F808190E008958FEF9FEF0895FD
:1006C00090917F0280917E022FEF3FEF981748F4C0
:1006D000E92FF0E0E851FE4F208130E09F5F9093DA
:1006E0007F02C901089580917E0290917F02891B4B
:1006F000990B0895CF92DF92EF92FF920F931F9381
:10070000CF93DF937C01CB018A012091E701222363
:1007100089F0EB016B01C40ED51ECC15DD0569F027
:100720006991D701ED91FC910190F081E02DC70115
:100730000995F3CF642F0E94EA02C801DF91CF919F
:100740001F910F91FF90EF90DF90CF900895CF937E
:10075000DF931F92CDB7DEB769832091E701222393
:10076000F9F020917C02203258F021E030E0FC01C9
:100770003383228390E080E00F90DF91CF91089542
:1007800080917D02E82FF0E0E953FE4F998190833C
:100790008F5F80937D0280937C0281E090E0ECCFBC
:1007A00061E0CE0101960E94EA02F7CFCF92DF927C
:1007B000EF92FF920F931F93CF93DF93FC01C481BD
:1007C00021E02093E701C093C60110927D021092B0
:1007D0007C028385682B87E393E00E94A703D09176
:1007E0007C02D13208F092C00E9483016B017C012F
:1007F00080915202811165C082E08093520281E0B3
:10080000809354028FEF8093510210927602D0931E
:100810007502A7ECB1E0E5E5F2E080E0D81385C011
:100820001092770280917702CC0FC82BC093770289
:1008300080915302813009F07CC0109253020E94D3
:1008400083016B017C01809177028093BB008091D2
:10085000090290910A02A0910B02B0910C02892B1F
:100860008A2B8B2B99F00E94830100910902109131
:100870000A0220910B0230910C026C197D098E093D
:100880009F090617170728073907E0F18091BC0078
:1008900083FDD9CF85EC8093BC000E9483016B015E
:1008A0007C0180915202823009F445C0809151024E
:1008B0008F3F61F180915102803241F1809151026C
:1008C00025C08091090290910A02A0910B02B0917B
:1008D0000C02892B8A2B8B2B09F48ACF0E9483016F
:1008E0000091090210910A0220910B0230910C0232
:1008F0006C197D098E099F09061717072807390704
:1009000008F076CF809108020E942F0310927D029A
:1009100010927C021092E701DF91CF911F910F910D
:10092000FF90EF90DF90CF9008959D9191938F5F0E
:1009300075CF85EEB0CF8091090290910A02A09107
:100940000B02B0910C02892B8A2B8B2B09F4A9CFB7
:100950000E9483010091090210910A0220910B026A
:1009600030910C026C197D098E099F090617170733
:100970002807390708F095CFC5CF089590E080E0AB
:100980000895DC01ED91FD918081ED91FD919081C3
:10099000ED91FD916C9163708E2309F064609F234B
:1009A00009F06860EEEDF4E0E60FF11D65956595E0
:1009B0006D936D917D918D919D91099423C01AC085
:1009C00012C016C010C01EC009C014C013C006C09B
:1009D00019C009C00DC007C00DC014C062507040DE
:1009E000804090400BC0615070408040904006C0F5
:1009F0006E5F01C06F5F7F4F8F4F9F4F9E938E93AF
:100A00007E936E93089580914303909144030C94D8
:100A1000C10480914503909146030C94C1040F9347
:100A20001F93CF938C01C62F0E94D6036C2F646056
:100A3000C8010E94D6036C2F6B7FC8010E94D603A9
:100A400083EC90E00197F1F7CF911F910F910895FA
:100A50000F931F93CF93DF938C01D62FC42F607F0A
:100A6000642B0E940F0580E1D89FB00111246C2BEC
:100A7000C801DF91CF911F910F910C940F0541E0B8
:100A80000E94280581E090E00895CF93DF93CDB7D1
:100A9000DEB728970FB6F894DEBF0FBECDBF98E043
:100AA000EEE7F1E0DE01119601900D929A95E1F7E3
:100AB00090915B03961708F46FEF262F30E0220F1A
:100AC000331F41E050E04C0F5D1F240F351FF9012B
:100AD0006081680F606840E083E593E028960FB678
:100AE000F894DEBF0FBECDBFDF91CF910C942805E7
:100AF0008F929F92AF92BF920F931F93CF93DF93EA
:100B0000CDB7DEB7A1970FB6F894DEBF0FBECDBF4D
:100B100019A2423008F44AE08E010F5D1F4F842E67
:100B2000912CB12CA12CA50194010E94D90CE62F87
:100B3000B901CA01EA3044F5E05DD801EE938D01B8
:100B4000232B242B252B79F790E080E0109769F078
:100B5000FD0101900020E9F73197AF014A1B5B0BC3
:100B6000BD0183E593E00E94DD01A1960FB6F894E4
:100B7000DEBF0FBECDBFDF91CF911F910F91BF9010
:100B8000AF909F908F900895E95CD7CFCF92DF927E
:100B9000EF92FF926C01990FEE08FF08F7FE16C066
:100BA00041E06DE283E593E00E9428056627772700
:100BB000CB016C197D098E099F094AE00E947805D6
:100BC0000196FF90EF90DF90CF9008954AE0C70123
:100BD000B601FF90EF90DF90CF900C947805FC0168
:100BE00001900020E9F73197AF01481B590BBC0178
:100BF00083E593E00C94DD0185ED8093BC0080914A
:100C0000090290910A02A0910B02B0910C02079682
:100C1000A11DB11D23E0B695A795979587952A95B7
:100C2000D1F72091BC0024FD03C010925202089518
:100C30004091090250910A0260910B0270910C02DE
:100C4000452B462B472B69F30097A105B10541F0D1
:100C50002AE22A95F1F700C00197A109B109E1CF75
:100C6000809108020C942F031F920F920FB60F92DF
:100C700011242F933F938F939F93AF93BF938091B2
:100C8000920290919302A0919402B09195023091BA
:100C9000910223E0230F2D3758F50196A11DB11DB8
:100CA000209391028093920290939302A0939402D6
:100CB000B09395028091960290919702A09198022C
:100CC000B09199020196A11DB11D80939602909357
:100CD0009702A0939802B0939902BF91AF919F9110
:100CE0008F913F912F910F900FBE0F901F901895ED
:100CF00026E8230F0296A11DB11DD2CF1F920F929D
:100D00000FB60F9211242F933F934F935F936F93DE
:100D10007F938F939F93AF93BF93EF93FF93E09154
:100D20000201F09103010995FF91EF91BF91AF91FD
:100D30009F918F917F916F915F914F913F912F91F3
:100D40000F900FBE0F901F9018951F920F920FB625
:100D50000F9211242F933F934F935F936F937F9341
:100D60008F939F93AF93BF93EF93FF93E091000115
:100D7000F09101010995FF91EF91BF91AF919F9182
:100D80008F917F916F915F914F913F912F910F9034
:100D90000FBE0F901F9018951F920F920FB60F92D3
:100DA00011242F933F934F935F936F937F938F9370
:100DB0009F93AF93BF93EF93FF938AE992E00E94D2
:100DC0005B02FF91EF91BF91AF919F918F917F91C6
:100DD0006F915F914F913F912F910F900FBE0F90A8
:100DE0001F9018951F920F920FB60F9211242F93F8
:100DF0008F939F93EF93FF93E091AA02F091AB0240
:100E00008081E091B002F091B10282FD1BC090811F
:100E10008091B3028F5F8F732091B402821741F0EB
:100E2000E091B302F0E0E656FD4F958F8093B30258
:100E3000FF91EF919F918F912F910F900FBE0F9087
:100E40001F9018958081F4CF1F920F920FB60F92CA
:100E500011242F933F934F935F936F937F938F93BF
:100E60009F93AF93BF93EF93FF938091B900887FD7
:100E7000803609F44AC0F0F5883209F4A7C018F5A5
:100E8000803109F49BC0B8F4882309F4F9C0883094
:100E900009F494C0FF91EF91BF91AF919F918F9111
:100EA0007F916F915F914F913F912F910F900FBE66
:100EB0000F901F901895883109F488C0803251F73F
:100EC0008093510214C0803409F49DC040F48033F3
:100ED000B9F38833F9F68093510285ECB0C08035C0
:100EE00009F485C0883509F496C0883499F60E94C3
:100EF000FC05D0CF883909F48CC038F5883729F043
:100F000050F4883611F0803729F683E0809352023E
:100F10001092500257C0883809F47BC0803919F00C
:100F2000803809F0B7CF80915002803208F071C04C
:100F3000E091500281E08E0F809350028091BB00BF
:100F4000F0E0E05DFD4F80833DC0803B39F0E0F490
:100F5000803A09F479C0883A09F09CCF84E0809304
:100F6000520210922F0210922E02E0917A02F0911A
:100F70007B02099580912E0281110FC081E0809340
:100F80002E0210920E0209C0803C09F4A6CF883CC4
:100F900009F4A3CF883B09F07DCFE0912F0281E0D7
:100FA0008E0F80932F02F0E0E25FFD4F80818093EF
:100FB000BB0090912F0280912E0229C08091770270
:100FC0008093BB0085EC8093BC0064CF9091760247
:100FD00080917502981758F5E091760281E08E0FA6
:100FE00080937602F0E0EB5AFD4F8081E9CFE091EB
:100FF000760281E08E0F809376028091BB00F0E054
:10100000EB5AFD4F8083909176028091750298177C
:10101000C8F285E8D8CFE091760281E08E0F809308
:1010200076028091BB00F0E0EB5AFD4F8083809107
:10103000540281115CCF81E08093530284EA809353
:10104000BC001092520226CF85EC8093BC00109217
:10105000520280915002803230F4E0915002F0E070
:10106000E05DFD4F10826091500270E0E0917802E7
:10107000F091790280E392E00995109250020ACF34
:101080001092510234CFCF93DF9310929D021092B1
:101090009C0288EE93E0A0E0B0E080939E029093E3
:1010A0009F02A093A002B093A1022AE831E03093FE
:1010B0009B0220939A0225EC30E03093A702209304
:1010C000A60224EC30E03093A9022093A80220EC81
:1010D00030E03093AB022093AA0221EC30E0309351
:1010E000AD022093AC0222EC30E03093AF022093AB
:1010F000AE0226EC30E03093B1022093B0021092A1
:10110000B3021092B4021092B5021092B60210927D
:101110003A031092390380933B0390933C03A093CE
:101120003D03B0933E038CE991E0909338038093A4
:10113000370310925603109255038EEA91E0909374
:1011400054038093530387E28093570380E1809395
:101150005C0382E080935D0310925E0362E085E0B1
:101160000E94E30062E086E00E94E300E3EBF0E02F
:10117000E491F0E0EE0FFF1FEC55FF4FA591B49105
:10118000B0934803A0934703E5E9F0E0449140930E
:101190004B03E4EBF0E0E491F0E0EE0FFF1FEC55C1
:1011A000FF4FC591D491D0934A03C0934903E6E918
:1011B000F0E0E491E0934C0310924E0310924F0341
:1011C00010925003109251032BE33FE1C9010197A4
:1011D000F1F79C91842F892391E009F490E08881B4
:1011E000E82309F0926090934D0310925203DF912F
:1011F000CF910895CF93DF93CDB7DEB76C970FB63D
:10120000F894DEBF0FBECDBF789484B5826084BDF4
:1012100084B5816084BD85B5826085BD85B58160FA
:1012200085BD80916E00816080936E001092810078
:101230008091810082608093810080918100816033
:1012400080938100809180008160809380008091F4
:10125000B10084608093B1008091B0008160809380
:10126000B00080917A00846080937A0080917A0047
:10127000826080937A0080917A00816080937A0006
:1012800080917A00806880937A001092C10061E0BA
:1012900082E00E94E30061E083E00E94E30061E0FD
:1012A00084E00E94E30062E087E00E94E30061E0E6
:1012B0008AE00E94E30061E08BE00E94E30010926C
:1012C0007F0210927E0210927D0210927C020E9498
:1012D00011038AED91E090937B0280937A028BED6B
:1012E00091E0909379028093780210925803809154
:1012F0005D03823018F098E09093580380935B036D
:1013000062E370E080E090E00E94A80160915E03DB
:1013100083E593E00E94D60368EE73E080E090E0FE
:101320000E94A80160E383E593E00E940F050BE4AF
:1013300016E4C8010197F1F760E383E593E00E94AA
:101340000F05C8010197F1F760E383E593E00E9480
:101350000F0583E592E00197F1F760E283E593E002
:101360000E940F0560915803606240E083E593E0BE
:101370000E94280584E08093590340E06CE083E5F7
:1013800093E00E94280540E061E083E593E00E943D
:1013900028050BE31FE1C8010197F1F782E0809374
:1013A0005A0340E066E083E593E00E94280540E0B0
:1013B00062E083E593E00E942805C8010197F1F7F8
:1013C00088E080935E0360E083E593E00E94D603AB
:1013D000B4E0EB2EB1E0FB2E10E040E0612F606442
:1013E00083E593E00E942805670128E0C20ED11C26
:1013F000D7016D917D0183E593E00E943F05CE14F6
:10140000DF04B1F7185F103441F7E091AA02F091C0
:10141000AB0282E08083E091A602F091A7021082E5
:10142000E091A802F091A9028FE380831092B202AA
:10143000E091AE02F091AF0286E08083E091AC02D1
:10144000F091AD02808180618083E091AC02F091E7
:10145000AD02808188608083E091AC02F091AD02A2
:10146000808180688083E091AC02F091AD02808140
:101470008F7D8083CC24CA94A3E0DA2EE12CF12C5A
:1014800080E10E9471019A8B898B00918F021091EB
:101490009002B801012E000C880B990B0E94210EBE
:1014A00020E030EC4FE754E40E94770D9B01AC0143
:1014B00060E070E080E89FE30E940A0D6F8B788FF8
:1014C000898F9A8F9801A9EFBFEF0E942E0FA70175
:1014D00096010E94AF0CDA01C9010796A11DB11D4A
:1014E0008B8B9C8BAD8BBE8B6B897C898AE00E9439
:1014F000140164E070E0AB89BC896A1B7B0B77FF49
:1015000002C070E060E08BE00E94140180918D02C7
:1015100090918E02E989FA89E817F90721F0F09392
:101520009002E0938F029E012F5F3F4F3901FEE64C
:101530004F2EF1E05F2E3C8F2B8F10E000E0302E1D
:10154000602F617082E00E94B500B80175956795C3
:10155000617083E00E94B500B80175956795759537
:10156000679584E00E94B5008EE00E947101AB8D0A
:10157000BC8D8D939D93BC8FAB8F2FE730E0DC014A
:101580000E94360FA70196010E94AF0CA7E0B0E0C1
:101590000E94CE0C2FE730E040E050E00E94AF0CFC
:1015A000222EA22EB32EF201819191912F018090D3
:1015B0008B0290908C02A816B90639F480916C01C8
:1015C00090916D0188159905E1F0F8E03F0E60E01B
:1015D000832D0E944505622D83E593E00E943F051F
:1015E00061E0832D0E94450586EB91E00815190501
:1015F00011F088EB91E00E94EF05F2013297B18281
:10160000A0820F5F1F4F0830110509F098CF04E644
:1016100011E044E4242E41E0342E230120E1420E67
:10162000511CD3016D917C91072E000C880B990BF6
:101630000E94210E4B015C012F89388D498D5A8DF6
:1016400060E070E080E89FE30E940A0D9B01AC011E
:10165000C501B4010E94AD0E4B015C01F301628132
:101660007381072E000C880B990B0E94210E2F8985
:10167000388D498D5A8D0E94AD0E9B01AC01C5017C
:10168000B4010E940B0D0E94E90DDB012FE730E051
:101690000E94360FA70196010E94AF0CB22E822F36
:1016A000932FD8012D913C91FC01E21BF30B9F017C
:1016B000F7FF03C031952195310922303105C4F07F
:1016C000D8018D939C93F101A2806081718161505A
:1016D0007109606B8AE992E00E947D026A2D8AE9B5
:1016E00092E00E947D026B2D8AE992E00E947D02C9
:1016F000F4E06F0E711C0C5F1F4F28E0220E311CAE
:101700004614570409F08DCF60E080E00E94450543
:101710008AEB91E00E94EF05E0918B02F0918C0240
:10172000EE0FFF1FEE0FFF1FEC5BFE4F82819381D8
:101730000E94C6058DEB91E00E94EF056B8983E561
:1017400093E00E943F0561E080E00E9445058FEB39
:1017500091E00E94EF05E0918B02F0918C02EE0F78
:10176000FF1FEE0FFF1FEC5BFE4F808191810E94F7
:10177000C60549895A8950938E0240938D02809103
:101780008B0290918C0290936D0180936C01E3E841
:10179000F0E08491E7E9F0E00491E5EBF0E01491EA
:1017A000112309F4D7C081110E948C00E12FF0E0D1
:1017B000EE0FFF1FEC55FF4FA591B4918C910823BC
:1017C00031E020E009F430E0832F922F182F1170C0
:1017D0002FB7F89440919202509193026091940235
:1017E000709195022FBF4531510561057105E8F0F3
:1017F000892BD9F4809180028823B9F080918B02E3
:1018000090918C02019664E070E00E941A0F909310
:101810008C0280938B0240E061E083E593E00E94BC
:1018200028058BE39FE10197F1F7109380028091E7
:101830005203823008F091C0F89487E493E00E944C
:10184000C10460914E0370914F03809150039091B9
:101850005103789424E030E040E050E00E94AF0C67
:101860008091890290918A0282179307B9F06FB72D
:10187000F8948091920290919302A0919402B09179
:1018800095026FBF8093850290938602A093870292
:10189000B093880230938A02209389022FB7F8947C
:1018A0008091920290919302A0919402B09195023E
:1018B0002FBF4091850250918602609187027091FE
:1018C0008802841B950BA60BB70B4597A105B105A4
:1018D000A0F12091890230918A0280918302909137
:1018E00084028217930749F1309384022093830284
:1018F000E0918B02F0918C02EE0FFF1FEE0FFF1FA5
:10190000EC5BFE4F8091810290918202A901481BFD
:10191000590BCA0142815381840F951F803891056C
:1019200014F08FE790E097FF02C090E080E093838F
:101930008283309382022093810280E090E0892BA1
:1019400009F49ECD0E944702882309F499CD0E9494
:10195000000096CD90E080E039CFF89472CF052E4C
:1019600097FB1EF400940E94C60C57FD07D00E94FE
:10197000D90C07FC03D04EF40C94C60C509540953E
:10198000309521953F4F4F4F5F4F0895909580952B
:10199000709561957F4F8F4F9F4F08950E94FB0C6C
:1019A000A59F900DB49F900DA49F800D911D1124B3
:1019B0000895A1E21A2EAA1BBB1BFD010DC0AA1F90
:1019C000BB1FEE1FFF1FA217B307E407F50720F0A8
:1019D000A21BB30BE40BF50B661F771F881F991F23
:1019E0001A9469F760957095809590959B01AC016C
:1019F000BD01CF010895A29FB001B39FC001A39F75
:101A0000700D811D1124911DB29F700D811D112437
:101A1000911D08955058BB27AA270E94220D0C94AF
:101A2000730E0E94650E38F00E946C0E20F039F49F
:101A30009F3F19F426F40C94620E0EF4E095E7FB38
:101A40000C945C0EE92F0E94840E58F3BA176207BB
:101A500073078407950720F079F4A6F50C94A60E79
:101A60000EF4E0950B2EBA2FA02D0B01B9019001B9
:101A70000C01CA01A0011124FF27591B99F0593FFD
:101A800050F4503E68F11A16F040A22F232F342F45
:101A90004427585FF3CF469537952795A795F04093
:101AA0005395C9F77EF41F16BA0B620B730B840BA8
:101AB000BAF09150A1F0FF0FBB1F661F771F881F60
:101AC000C2F70EC0BA0F621F731F841F48F48795B8
:101AD00077956795B795F7959E3F08F0B0CF9395AA
:101AE000880F08F09927EE0F9795879508950E9423
:101AF0008B0D0C94730E0E946C0E58F00E94650EB4
:101B000040F029F45F3F29F00C945C0E51110C94C5
:101B1000A70E0C94620E0E94840E68F39923B1F311
:101B2000552391F3951B550BBB27AA276217730703
:101B3000840738F09F5F5F4F220F331F441FAA1F97
:101B4000A9F335D00E2E3AF0E0E832D09150504053
:101B5000E695001CCAF72BD0FE2F29D0660F771F01
:101B6000881FBB1F261737074807AB07B0E809F0E7
:101B7000BB0B802DBF01FF2793585F4F3AF09E3F6C
:101B8000510578F00C945C0E0C94A70E5F3FE4F3C3
:101B9000983ED4F3869577956795B795F7959F5FAF
:101BA000C9F7880F911D9695879597F90895E1E0FB
:101BB000660F771F881FBB1F621773078407BA075A
:101BC00020F0621B730B840BBA0BEE1F88F7E095B5
:101BD00008950E94F00D6894B1110C94A70E089519
:101BE0000E948C0E88F09F5798F0B92F9927B75113
:101BF000B0F0E1F0660F771F881F991F1AF0BA95B1
:101C0000C9F714C0B13091F00E94A60EB1E008955A
:101C10000C94A60E672F782F8827B85F39F0B93F4C
:101C2000CCF3869577956795B395D9F73EF4909563
:101C30008095709561957F4F8F4F9F4F0895E894E1
:101C400009C097FB3EF490958095709561957F4F04
:101C50008F4F9F4F9923A9F0F92F96E9BB279395B2
:101C6000F695879577956795B795F111F8CFFAF4C2
:101C7000BB0F11F460FF1BC06F5F7F4F8F4F9F4FF3
:101C800016C0882311F096E911C0772321F09EE851
:101C9000872F762F05C0662371F096E8862F70E0B7
:101CA00060E02AF09A95660F771F881FDAF7880F91
:101CB0009695879597F9089597F99F6780E870E062
:101CC00060E008959FEF80EC089500240A941616B2
:101CD000170618060906089500240A94121613061A
:101CE000140605060895092E0394000C11F48823A8
:101CF00052F0BB0F40F4BF2B11F460FF04C06F5FC4
:101D00007F4F8F4F9F4F089557FD9058440F551F99
:101D100059F05F3F71F04795880F97FB991F61F06D
:101D20009F3F79F087950895121613061406551FE4
:101D3000F2CF4695F1DF08C0161617061806991F50
:101D4000F1CF86957105610508940895E894BB2745
:101D500066277727CB0197F908950E94C00E0C944F
:101D6000730E0E94650E38F00E946C0E20F09523D1
:101D700011F00C945C0E0C94620E11240C94A70EBE
:101D80000E94840E70F3959FC1F3950F50E0551F8C
:101D9000629FF001729FBB27F00DB11D639FAA27C0
:101DA000F00DB11DAA1F649F6627B00DA11D661F0F
:101DB000829F2227B00DA11D621F739FB00DA11D30
:101DC000621F839FA00D611D221F749F3327A00DEA
:101DD000611D231F849F600D211D822F762F6A2F86
:101DE00011249F5750409AF0F1F088234AF0EE0FEB
:101DF000FF1FBB1F661F771F881F91505040A9F718
:101E00009E3F510580F00C945C0E0C94A70E5F3F32
:101E1000E4F3983ED4F3869577956795B795F79553
:101E2000E7959F5FC1F7FE2B880F911D96958795CB
:101E300097F9089597FB072E16F4009407D077FDC5
:101E400009D00E943D0F07FC05D03EF49095819586
:101E50009F4F0895709561957F4F08950E94FB0CE8
:101E6000332312F48A1B9B0B0C94380F0E94FB0C3B
:101E7000B7FF0895821B930B0895AA1BBB1B51E16A
:101E800007C0AA1FBB1FA617B70710F0A61BB70BEA
:101E9000881F991F5A95A9F780959095BC01CD018F
:101EA0000895EE0FFF1F0590F491E02D0994F8942A
:101EB000FFCFDC01DC01000000000000001F00007B
:101EC000000000001F0000000000001F00000000D4
:101ED00000001F0000000000001F000000000000C4
:101EE0001F0000000000001F0000000000001F0095
:101EF00000000000000001000200010004000200D8
:101F000006000200080001000A000100160002009D
:101F1000210002002C00FFFFFFFFFFFFFFFFFFFF7C
:101F2000FFFFFFFFFFFFFFFFFFFFFFFFFFFFFFFFC1
:101F30000000400014005400000000007D02DD019C
:101F40000A02CA023B0219022D0200000000A70388
:101F50007A03BE04500373036003510300000000C2
:101F60003F05DD01BE04BD042A00200043430058A4
:081F7000004D4944493A00000C
:107E0000112484B714BE81FFF0D085E080938100F7
:107E100082E08093C00088E18093C10086E0809377
:107E2000C20080E18093C4008EE0C9D0259A86E02C
:107E300020E33CEF91E0309385002093840096BBD3
:107E4000B09BFECF1D9AA8958150A9F7CC24DD24C4
:107E500088248394B5E0AB2EA1E19A2EF3E0BF2EE7
:107E6000A2D0813461F49FD0082FAFD0023811F036
:107E7000013811F484E001C083E08DD089C08234E0
:107E800011F484E103C0853419F485E0A6D080C0E4
:107E9000853579F488D0E82EFF2485D0082F10E0AE
:107EA000102F00270E291F29000F111F8ED06801E7
:107EB0006FC0863521F484E090D080E0DECF843638
:107EC00009F040C070D06FD0082F6DD080E0C81688
:107ED00080E7D80618F4F601B7BEE895C0E0D1E017
:107EE00062D089930C17E1F7F0E0CF16F0E7DF06D8
:107EF00018F0F601B7BEE89568D007B600FCFDCFD4
:107F0000A601A0E0B1E02C9130E011968C91119780
:107F100090E0982F8827822B932B1296FA010C0160
:107F200087BEE89511244E5F5F4FF1E0A038BF0790
:107F300051F7F601A7BEE89507B600FCFDCF97BE46
:107F4000E89526C08437B1F42ED02DD0F82E2BD052
:107F50003CD0F601EF2C8F010F5F1F4F84911BD097
:107F6000EA94F801C1F70894C11CD11CFA94CF0C13
:107F7000D11C0EC0853739F428D08EE10CD085E9AC
:107F80000AD08FE07ACF813511F488E018D01DD067
:107F900080E101D065CF982F8091C00085FFFCCF94
:107FA0009093C60008958091C00087FFFCCF809118
:107FB000C00084FD01C0A8958091C6000895E0E648
:107FC000F0E098E1908380830895EDDF803219F02E
:107FD00088E0F5DFFFCF84E1DECF1F93182FE3DFCA
:107FE0001150E9F7F2DF1F91089580E0E8DFEE27F6
:047FF000FF270994CA
:027FFE00040479
:00000001FF
