:100000000C9462000C9436060C940F060C948A0033
:100010000C948A000C948A000C948A000C948A0038
:100020000C948A000C948A000C948A000C948A0028
:100030000C948A000C948A000C948A000C948A0018
:100040000C94C5050C948A000C9483060C945D06F0
:100050000C948A000C948A000C948A000C948A00F8
:100060000C94B5060C948A000000000024002700C0
:100070002A0000000000250028002B0000000008D6
:10008000000201000003040700000000000000005F
:10009000010204081020408001020408102001021F
:1000A000040810200000000023002600290004049A
:1000B0000404040404040202020202020303030310
:1000C0000303D40711241FBECFEFD8E0DEBFCDBF9E
:1000D00011E0A0E0B1E0E4E4F7E102C005900D9288
:1000E000A83AB107D9F723E0A8EAB1E001C01D9210
:1000F000A534B207E1F710E0C2E6D0E004C02197D2
:10010000FE010E949A0BC136D107C9F70E948B08E5
:100110000C94A00B0C940000833081F028F4813003
:1001200099F08230A9F008958730A9F08830C9F09D
:100130008430B1F4809180008F7D03C08091800075
:100140008F7780938000089584B58F7784BD08955C
:1001500084B58F7DFBCF8091B0008F778093B00006
:1001600008958091B0008F7DF9CF1F93CF93DF93D7
:10017000282F30E0F901E458FF4F8491F901E0574E
:10018000FF4FD491F901E255FF4FC491CC23A9F060
:10019000162F81110E948C00EC2FF0E0EE0FFF1F54
:1001A000EE58FF4FA591B4918FB7F894EC911111CF
:1001B00008C0D095DE23DC938FBFDF91CF911F91D4
:1001C0000895DE2BF8CFCF93DF9390E0FC01E0574A
:1001D000FF4F249182559F4FFC0184918823D1F0D9
:1001E00090E0880F991FFC01E859FF4FA591B49149
:1001F000FC01EE58FF4FC591D491623071F49FB766
:10020000F8943C91822F809583238C93E8812E2B48
:1002100028839FBFDF91CF9108958FB7F894EC9119
:100220002E2B2C938FBFF6CF3FB7F89480917C0292
:1002300090917D02A0917E02B0917F0226B5A89B8D
:1002400005C02F3F19F00196A11DB11D3FBFBA2F68
:10025000A92F982F8827BC01CD01620F711D811D28
:10026000911D42E0660F771F881F991F4A95D1F7AD
:1002700008958F929F92AF92BF92CF92DF92EF92AA
:10028000FF924B015C010E9414016B017C010E94F2
:1002900014016C197D098E099F09683E7340810520
:1002A0009105A8F321E0821A9108A108B10888EE0F
:1002B000C80E83E0D81EE11CF11C81149104A10436
:1002C000B10429F7FF90EF90DF90CF90BF90AF90EF
:1002D0009F908F900895089508950895AF92BF92CA
:1002E000CF92DF92EF92FF920F931F93CF93DF9302
:1002F0006C017B018B01040F151FEB015E01AE1831
:10030000BF08C017D10759F06991D601ED91FC9152
:100310000190F081E02DC6010995892B79F7C5017F
:10032000DF91CF911F910F91FF90EF90DF90CF90D1
:10033000BF90AF900895FC01538D448D252F30E080
:10034000842F90E0821B930B541710F0CF960895E2
:1003500001970895FC01918D828D981761F0A28D0F
:10036000AE0FBF2FB11D5D968C91928D9F5F9F73D5
:10037000928F90E008958FEF9FEF0895FC01918D8B
:10038000828D981731F0828DE80FF11D858D90E0F8
:1003900008958FEF9FEF0895FC01918D228D892F95
:1003A00090E0805C9F4F821B91098F73992708957D
:1003B00080E892E00E94CC0121E0892B09F420E042
:1003C000822F089580E090E0892B29F00E94D801C7
:1003D00081110C9400000895FC01A48DA80FB92F81
:1003E000B11DA35ABF4F2C91848D90E001968F735D
:1003F0009927848FA689B7892C93A089B1898C917C
:10040000837080648C93938D848D981306C00288CA
:10041000F389E02D80818F7D80830895EF92FF9294
:100420000F931F93CF93DF93EC0181E0888F9B8D17
:100430008C8D98131AC0E889F989808185FF15C0D1
:100440009FB7F894EE89FF896083E889F9898081F4
:100450008370806480839FBF81E090E0DF91CF91C3
:100460001F910F91FF90EF900895F62E0B8D10E0E5
:100470000F5F1F4F0F731127E02E8C8D8E110CC054
:100480000FB607FCFACFE889F989808185FFF5CF9F
:10049000CE010E94EC01F1CFEB8DEC0FFD2FF11D91
:1004A000E35AFF4FF0829FB7F8940B8FEA89FB89DC
:1004B00080818062CFCFCF93DF93EC01888D88233A
:1004C000B9F0AA89BB89E889F9898C9185FD03C0B7
:1004D000808186FD0DC00FB607FCF7CF8C9185FF9C
:1004E000F2CF808185FFEDCFCE010E94EC01E9CFF4
:1004F000DF91CF91089520911002260F3327331FEB
:1005000021323105ECF420913402FC0190E080E0CE
:10051000243069F082E00895A09110022191AC018D
:1005200040515E4FA40FB52FB11D2C930196861735
:1005300098F380911002680F6093100280E0089594
:1005400081E008951092340281E080933602109287
:10055000350261E082E10E94B50061E083E10E9422
:10056000B500E9EBF0E080818E7F808380818D7F14
:10057000808388E48093B80085E48093BC0008956C
:10058000CF93DF9391E09093EF018823B9F0C0916E
:10059000B800D091BA008091BC008A7B8093BC00E7
:1005A00060E082E10E94B50060E083E10E94B50056
:1005B0000E94A202D093BA00C093B800DF91CF91FD
:1005C00008950895E091610280916002E81730F487
:1005D000F0E0E653FE4F808190E008958FEF9FEFAB
:1005E000089590916102809160022FEF3FEF98177C
:1005F00048F4E92FF0E0E653FE4F208130E09F5FA2
:1006000090936102C9010895809160029091610206
:10061000891B990B0895CF92DF92EF92FF920F936F
:100620001F93CF93DF937C01CB018A012091C901F5
:10063000222389F0EB016B01C40ED51ECC15DD051C
:1006400069F06991D701ED91FC910190F081E02D65
:10065000C7010995F3CF642F0E947B02C801DF9187
:10066000CF911F910F91FF90EF90DF90CF90089561
:10067000CF93DF931F92CDB7DEB769832091C90175
:100680002223F9F020915E02203258F021E030E080
:10069000FC013383228390E080E00F90DF91CF91C3
:1006A000089580915F02E82FF0E0E755FE4F9981B1
:1006B00090838F5F80935F0280935E0281E090E081
:1006C000ECCF61E0CE0101960E947B02F7CFCF9282
:1006D000DF92EF92FF920F931F93CF93DF93FC0172
:1006E000C48121E02093C901C093A80110925F0248
:1006F00010925E028385682B8DE193E00E9438039F
:10070000D0915E02D13208F092C00E9414016B01B8
:100710007C0180913402811165C082E080933402B3
:1007200081E0809336028FEF80933302109258025B
:10073000D0935702A9EAB1E0E7E3F2E080E0D813F2
:1007400085C01092590280915902CC0FC82BC093DA
:10075000590280913502813009F07CC01092350237
:100760000E9414016B017C01809159028093BB00AF
:100770008091EB019091EC01A091ED01B091EE011F
:10078000892B8A2B8B2B99F00E9414010091EB018D
:100790001091EC012091ED013091EE016C197D0971
:1007A0008E099F090617170728073907E0F180917E
:1007B000BC0083FDD9CF85EC8093BC000E9414015E
:1007C0006B017C0180913402823009F445C0809134
:1007D00033028F3F61F180913302803241F1809189
:1007E000330225C08091EB019091EC01A091ED01C5
:1007F000B091EE01892B8A2B8B2B09F48ACF0E94B2
:1008000014010091EB011091EC012091ED01309168
:10081000EE016C197D098E099F0906171707280735
:10082000390708F076CF8091EA010E94C002109249
:100830005F0210925E021092C901DF91CF911F9169
:100840000F91FF90EF90DF90CF9008959D9191933D
:100850008F5F75CF85EEB0CF8091EB019091EC0169
:10086000A091ED01B091EE01892B8A2B8B2B09F41D
:10087000A9CF0E9414010091EB011091EC0120918D
:10088000ED013091EE016C197D098E099F09061763
:1008900017072807390708F095CFC5CF089590E0CE
:1008A00080E00895DC01ED91FD918081ED91FD9155
:1008B0009081ED91FD916C9163708E2309F06460DD
:1008C0009F2309F06860EFE6F4E0E60FF11D6595FF
:1008D00065956D936D917D918D919D91099423C046
:1008E0001AC012C016C010C01EC009C014C013C068
:1008F00006C019C009C00DC007C00DC014C06250A9
:100900007040804090400BC06150704080409040EB
:1009100006C06E5F01C06F5F7F4F8F4F9F4F9E93EA
:100920008E937E936E9308958091290390912A036C
:100930000C94520480912B0390912C030C9452043C
:100940000F931F93CF938C01C62F0E9467036C2FC8
:100950006460C8010E9467036C2F6B7FC8010E940E
:10096000670383EC90E00197F1F7CF911F910F910E
:1009700008950F931F93CF93DF938C01D62FC42F2D
:10098000607F642B0E94A00480E1D89FB0011124F5
:100990006C2BC801DF91CF911F910F910C94A00493
:1009A00041E00E94B90481E090E00895CF93DF9385
:1009B000CDB7DEB728970FB6F894DEBF0FBECDBF18
:1009C00098E0E4E6F1E0DE01119601900D929A952F
:1009D000E1F790914103961708F46FEF262F30E06E
:1009E000220F331F41E050E04C0F5D1F240F351FD5
:1009F000F9016081680F606840E089E393E0289620
:100A00000FB6F894DEBF0FBECDBFDF91CF910C942F
:100A1000B9048F929F92AF92BF920F931F93CF937F
:100A2000DF93CDB7DEB7A1970FB6F894DEBF0FBE48
:100A3000CDBF19A2423008F44AE08E010F5D1F4F6E
:100A4000842E912CB12CA12CA50194010E943A0B6B
:100A5000E62FB901CA01EA3044F5E05DD801EE9312
:100A60008D01232B242B252B79F790E080E0109724
:100A700069F0FD0101900020E9F73197AF014A1BB1
:100A80005B0BBD0189E393E00E946E01A1960FB656
:100A9000F894DEBF0FBECDBFDF91CF911F910F91B4
:100AA000BF90AF909F908F900895E95CD7CFCF9281
:100AB000DF92EF92FF926C01990FEE08FF08F7FEAC
:100AC00016C041E06DE289E393E00E94B904662715
:100AD0007727CB016C197D098E099F094AE00E9496
:100AE00009050196FF90EF90DF90CF9008954AE0BE
:100AF000C701B601FF90EF90DF90CF900C940905ED
:100B0000FC0101900020E9F73197AF01481B590B18
:100B1000BC0189E393E00C946E0185ED8093BC00E9
:100B20008091EB019091EC01A091ED01B091EE016B
:100B30000796A11DB11D23E0B695A79597958795BA
:100B40002A95D1F72091BC0024FD03C010923402F5
:100B500008954091EB015091EC016091ED0170918D
:100B6000EE01452B462B472B69F30097A105B105F4
:100B700041F02AE22A95F1F700C00197A109B109D5
:100B8000E1CF8091EA010C94C0021F920F920FB640
:100B90000F9211242F933F938F939F93AF93BF9303
:100BA0008091780290917902A0917A02B0917B02B3
:100BB0003091770223E0230F2D3758F50196A11DC0
:100BC000B11D209377028093780290937902A093CD
:100BD0007A02B0937B0280917C0290917D02A09179
:100BE0007E02B0917F020196A11DB11D80937C020F
:100BF00090937D02A0937E02B0937F02BF91AF914C
:100C00009F918F913F912F910F900FBE0F901F904A
:100C1000189526E8230F0296A11DB11DD2CF1F9271
:100C20000F920FB60F9211242F933F934F935F9320
:100C30006F937F938F939F93AF93BF93EF93FF93A4
:100C4000E0910201F09103010995FF91EF91BF91AD
:100C5000AF919F918F917F916F915F914F913F9154
:100C60002F910F900FBE0F901F9018951F920F920B
:100C70000FB60F9211242F933F934F935F936F936F
:100C80007F938F939F93AF93BF93EF93FF93E091E5
:100C90000001F09101010995FF91EF91BF91AF9192
:100CA0009F918F917F916F915F914F913F912F9184
:100CB0000F900FBE0F901F9018951F920F920FB6B6
:100CC0000F9211242F933F934F935F936F937F93D2
:100CD0008F939F93AF93BF93EF93FF9380E892E03E
:100CE0000E94EC01FF91EF91BF91AF919F918F9185
:100CF0007F916F915F914F913F912F910F900FBE18
:100D00000F901F9018951F920F920FB60F921124FB
:100D10002F938F939F93EF93FF93E0919002F09125
:100D200091028081E0919602F091970282FD1BC0B2
:100D30009081809199028F5F8F7320919A02821720
:100D400041F0E0919902F0E0E058FD4F958F8093DB
:100D50009902FF91EF919F918F912F910F900FBE6C
:100D60000F901F9018958081F4CF1F920F920FB6AD
:100D70000F9211242F933F934F935F936F937F9321
:100D80008F939F93AF93BF93EF93FF938091B9009D
:100D9000887F803609F44AC0F0F5883209F4A7C08C
:100DA00018F5803109F49BC0B8F4882309F4F9C020
:100DB000883009F494C0FF91EF91BF91AF919F915A
:100DC0008F917F916F915F914F913F912F910F90F4
:100DD0000FBE0F901F901895883109F488C080329B
:100DE00051F78093330214C0803409F49DC040F45D
:100DF0008033B9F38833F9F68093330285ECB0C0C1
:100E0000803509F485C0883509F496C0883499F690
:100E10000E948D05D0CF883909F48CC038F5883709
:100E200029F050F4883611F0803729F683E080935A
:100E300034021092320257C0883809F47BC08039DE
:100E400019F0803809F0B7CF80913202803208F073
:100E500071C0E091320281E08E0F80933202809166
:100E6000BB00F0E0EE5EFD4F80833DC0803B39F07B
:100E7000E0F4803A09F479C0883A09F09CCF84E024
:100E8000809334021092110210921002E0915C02E1
:100E9000F0915D0209958091100281110FC081E0EF
:100EA000809310021092F00109C0803C09F4A6CF93
:100EB000883C09F4A3CF883B09F07DCFE091110273
:100EC00081E08E0F80931102F0E0E051FE4F8081AF
:100ED0008093BB00909111028091100229C08091F3
:100EE00059028093BB0085EC8093BC0064CF909145
:100EF000580280915702981758F5E091580281E006
:100F00008E0F80935802F0E0E95CFD4F8081E9CFBD
:100F1000E091580281E08E0F809358028091BB00CF
:100F2000F0E0E95CFD4F8083909158028091570278
:100F30009817C8F285E8D8CFE091580281E08E0F6B
:100F4000809358028091BB00F0E0E95CFD4F808304
:100F50008091360281115CCF81E08093350284EA72
:100F60008093BC001092340226CF85EC8093BC00A5
:100F70001092340280913202803230F4E0913202D9
:100F8000F0E0EE5EFD4F10826091320270E0E09181
:100F90005A02F0915B0282E192E0099510923202CE
:100FA0000ACF1092330234CFCF93DF931092830293
:100FB0001092820288EE93E0A0E0B0E08093840279
:100FC00090938502A0938602B093870220E731E0D8
:100FD000309381022093800225EC30E030938D0223
:100FE00020938C0224EC30E030938F0220938E0209
:100FF00020EC30E0309391022093900221EC30E01D
:10100000309393022093920222EC30E030939502C9
:101010002093940226EC30E03093970220939602BE
:101020001092990210929A0210929B0210929C02C6
:101030001092200310921F038093210390932203A8
:10104000A0932303B093240382E891E090931E03BE
:1010500080931D0310923C0310923B0384E991E0BE
:1010600090933A038093390387E280933D0380E1B4
:101070008093420382E0809343031092440362E032
:1010800085E00E94E30062E086E00E94E300E3EB7B
:10109000F0E0E491F0E0EE0FFF1FEC55FF4FA5915B
:1010A000B491B0932E03A0932D03E5E9F0E04491B1
:1010B00040933103E4EBF0E0E491F0E0EE0FFF1F2A
:1010C000EC55FF4FC591D491D0933003C0932F03BB
:1010D000E6E9F0E0E491E0933203109234031092D9
:1010E000350310923603109237032BE33FE1C90119
:1010F0000197F1F79C91842F892391E009F490E006
:101100008881E82309F092609093330310923803AA
:10111000DF91CF910895789484B5826084BD84B5C1
:10112000816084BD85B5826085BD85B5816085BDE2
:1011300080916E00816080936E001092810080919A
:101140008100826080938100809181008160809322
:101150008100809180008160809380008091B10047
:1011600084608093B1008091B00081608093B00072
:1011700080917A00846080937A0080917A00826006
:1011800080937A0080917A00816080937A008091C8
:101190007A00806880937A001092C10061E082E05A
:1011A0000E94E30061E083E00E94E30061E084E0EC
:1011B0000E94E30062E087E00E94E3001092610277
:1011C0001092600210925F0210925E020E94A202D0
:1011D0008BE691E090935D0280935C028CE691E057
:1011E00090935B0280935A0210923E0380914303D6
:1011F000823018F098E090933E038093410362E3BD
:1012000070E080E090E00E9439016091440389E33E
:1012100093E00E94670368EE73E080E090E00E9434
:10122000390160E389E393E00E94A004CBE4D6E4B3
:10123000CE010197F1F760E389E393E00E94A004F7
:101240002197F1F760E389E393E00E94A00483E52E
:1012500092E00197F1F760E289E393E00E94A00435
:1012600060913E03606240E089E393E00E94B9042C
:1012700084E080933F0340E06CE089E393E00E94C8
:10128000B90440E061E089E393E00E94B904CBE354
:10129000DFE1CE010197F1F782E08093400340E067
:1012A00066E089E393E00E94B90440E062E089E3EC
:1012B00093E00E94B9042197F1F788E080934403FA
:1012C00060E089E393E00E94670304E011E0C0E07E
:1012D00040E06C2F606489E393E00E94B9047801D8
:1012E00028E0E20EF11CF80161918F0189E393E09F
:1012F0000E94D004E016F106B1F7C85FC03441F790
:10130000E0919002F091910282E08083E0918C0262
:10131000F0918D021082E0918E02F0918F028FE3A6
:10132000808310929802E0919402F091950286E0F9
:101330008083E0919202F0919302808180618083AA
:10134000E0919202F0919302808188608083E09125
:101350009202F0919302808180688083E0919202F2
:10136000F091930280818F7D8083C4E04C2E512CBC
:10137000612C712CB8E0CB2ED12CA7E62A2EA2E04E
:101380003A2E04E411E0D0E0C0E0FC2E6C2F617036
:1013900082E00E94B500BE0175956795617083E09B
:1013A0000E94B500BE01759567957595679584E0B7
:1013B0000E94B500F0E4F0937C0080917A00806494
:1013C00080937A0080917A0086FDFCCFA09178000E
:1013D000B09179002FE730E00E947F0B2FEF33E0D0
:1013E00040E050E00E94100B49015A01F101819147
:1013F00091911F01281B390BC90137FF03C091953B
:10140000819591090297CCF0F801E28060817181A9
:1014100061507109606B80E892E00E940E026E2DAF
:1014200080E892E00E940E02682D80E892E00E941F
:101430000E02F101329791828082F8E0FF0E60E0A7
:101440008F2D0E94D604A7E0B0E0A50194010E9470
:101450002F0B2FE730E040E050E00E94100B622F8E
:1014600089E393E00E94D00461E08F2D0E94D604AE
:101470008091650290916602C817D90709F0CBC028
:101480008CE991E00E94800521960C5F1F4FC830C7
:10149000D10509F07ACF60E080E00E94D60480EAAE
:1014A00091E00E948005809165029091660201960C
:1014B0000E94570561E080E00E94D60484EA91E032
:1014C0000E948005E0916502F0916602EE0FFF1F19
:1014D000EE0FFF1FEC5BFE4F828193810E94570548
:1014E000E3E8F0E08491E7E9F0E0D491E5EBF0E0A7
:1014F000C49130E020E0CC2399F081110E948C004F
:10150000EC2FF0E0EE0FFF1FEC55FF4FA591B491CB
:101510008C91D82391E080E009F490E0292F382FB6
:10152000C22FC1704FB7F8948091780290917902E0
:10153000A0917A02B0917B024FBF0B97A105B10534
:10154000E0F0232BD1F4809162028823B1F08091E6
:101550006502909166020196B6010E946B0B909312
:1015600066028093650240E061E089E393E00E94B7
:10157000B9048BE39FE10197F1F7C0936202809178
:101580003803823008F04AC0F8948DE293E00E945C
:101590005204609134037091350380913603909129
:1015A00037037894A30192010E94100B809163028B
:1015B000909164028217930709F1E0916502F0911E
:1015C0006602EE0FFF1FEE0FFF1FEC5BFE4FB9012F
:1015D000681B790BCB0162817381860F971F80385E
:1015E000910514F08FE790E097FF02C090E080E053
:1015F00093838283309364022093630280E090E0BF
:10160000892B09F4BACE0E94D801882309F4B2CEFE
:101610000E940000AFCE8EE991E034CFF894B9CFAC
:10162000052E97FB1EF400940E94270B57FD07D050
:101630000E943A0B07FC03D04EF40C94270B5095F4
:101640004095309521953F4F4F4F5F4F08959095AE
:101650008095709561957F4F8F4F9F4F08950E94A1
:101660005C0BA59F900DB49F900DA49F800D911DC4
:1016700011240895A1E21A2EAA1BBB1BFD010DC067
:10168000AA1FBB1FEE1FFF1FA217B307E407F50732
:1016900020F0A21BB30BE40BF50B661F771F881F0E
:1016A000991F1A9469F760957095809590959B01A4
:1016B000AC01BD01CF010895A29FB001B39FC0014D
:1016C000A39F700D811D1124911DB29F700D811D6E
:1016D0001124911D089597FB072E16F4009407D04E
:1016E00077FD09D00E94860B07FC05D03EF490954B
:1016F00081959F4F0895709561957F4F08950E9441
:101700005C0BB7FF0895821B930B0895AA1BBB1BAC
:1017100051E107C0AA1FBB1FA617B70710F0A61BF1
:10172000B70B881F991F5A95A9F780959095BC0112
:10173000CD010895EE0FFF1F0590F491E02D09945F
:04174000F894FFCF4B
:101744006D016D01000000000000001F000000009A
:1017540000001F0000000000001F00000000000047
:101764001F0000000000001F0000000000001F0018
:1017740000000000001F0000000000001F00000027
:101784000000000001000200020004000300060043
:1017940004003000050037000600420007004D0039
:1017A400080058000000400014005400000000002D
:1017B4000E026E019B015B02CC01AA01BE01000076
:1017C400000038030B034F04E1020403F102E202B8
:1017D40000000000D0046E014F044E042A002000D3
:0817E40043683A0043433A0058
:00000001FF
