:100000000C9462000C9444060C941D060C948A0017
:100010000C948A000C948A000C948A000C948A0038
:100020000C948A000C948A000C948A000C948A0028
:100030000C948A000C948A000C948A000C948A0018
:100040000C94D3050C948A000C9491060C946B06C6
:100050000C948A000C948A000C948A000C948A00F8
:100060000C94C3060C948A000000000024002700B2
:100070002A0000000000250028002B0000000008D6
:10008000000201000003040700000000000000005F
:10009000010204081020408001020408102001021F
:1000A000040810200000000023002600290004049A
:1000B0000404040404040202020202020303030310
:1000C0000303E20711241FBECFEFD8E0DEBFCDBF90
:1000D00011E0A0E0B1E0E8EEF9E102C005900D9278
:1000E000A23DB107D9F723E0A2EDB1E001C01D9216
:1000F000A137B207E1F710E0C2E6D0E004C02197D3
:10010000FE010E94EC0CC136D107C9F70E94990884
:100110000C94F20C0C940000833081F028F48130B0
:1001200099F08230A9F008958730A9F08830C9F09D
:100130008430B1F4809180008F7D03C08091800075
:100140008F7780938000089584B58F7784BD08955C
:1001500084B58F7DFBCF8091B0008F778093B00006
:1001600008958091B0008F7DF9CF1F93CF93DF93D7
:10017000282F30E0F901E458FF4F8491F901E0574E
:10018000FF4FD491F901E255FF4FC491CC23A9F060
:10019000162F81110E948C00EC2FF0E0EE0FFF1F54
:1001A000EE58FF4FA591B4918FB7F894EC911111CF
:1001B00008C0D095DE23DC938FBFDF91CF911F91D4
:1001C0000895DE2BF8CFCF93DF9390E0FC01E0574A
:1001D000FF4F249182559F4FFC0184918823D1F0D9
:1001E00090E0880F991FFC01E859FF4FA591B49149
:1001F000FC01EE58FF4FC591D491623071F49FB766
:10020000F8943C91822F809583238C93E8812E2B48
:1002100028839FBFDF91CF9108958FB7F894EC9119
:100220002E2B2C938FBFF6CF8E50806480937C0052
:1002300080917A00806480937A0080917A0086FDB4
:10024000FCCF809178009091790008953FB7F894A1
:100250008091A8029091A902A091AA02B091AB024C
:1002600026B5A89B05C02F3F19F00196A11DB11D11
:100270003FBFBA2FA92F982F8827BC01CD01620F4D
:10028000711D811D911D42E0660F771F881F991F08
:100290004A95D1F708958F929F92AF92BF92CF92D5
:1002A000DF92EF92FF924B015C010E9426016B01ED
:1002B0007C010E9426016C197D098E099F09683E08
:1002C000734081059105A8F321E0821A9108A108E5
:1002D000B10888EEC80E83E0D81EE11CF11C811421
:1002E0009104A104B10429F7FF90EF90DF90CF9023
:1002F000BF90AF909F908F900895089508950895AE
:10030000AF92BF92CF92DF92EF92FF920F931F9323
:10031000CF93DF936C017B018B01040F151FEB0161
:100320005E01AE18BF08C017D10759F06991D60118
:10033000ED91FC910190F081E02DC6010995892B8A
:1003400079F7C501DF91CF911F910F91FF90EF9049
:10035000DF90CF90BF90AF900895FC01538D448DF6
:10036000252F30E0842F90E0821B930B541710F060
:10037000CF96089501970895FC01918D828D98176D
:1003800061F0A28DAE0FBF2FB11D5D968C91928D45
:100390009F5F9F73928F90E008958FEF9FEF089576
:1003A000FC01918D828D981731F0828DE80FF11D3F
:1003B000858D90E008958FEF9FEF0895FC01918D5A
:1003C000228D892F90E0805C9F4F821B91098F7353
:1003D000992708958CEA92E00E94DE0121E0892BA2
:1003E00009F420E0822F089580E090E0892B29F025
:1003F0000E94EA0181110C9400000895FC01A48D73
:10040000A80FB92FB11DA35ABF4F2C91848D90E036
:1004100001968F739927848FA689B7892C93A08919
:10042000B1898C91837080648C93938D848D9813A3
:1004300006C00288F389E02D80818F7D8083089536
:10044000EF92FF920F931F93CF93DF93EC0181E024
:10045000888F9B8D8C8D98131AC0E889F9898081CB
:1004600085FF15C09FB7F894EE89FF896083E889FE
:10047000F98980818370806480839FBF81E090E0F0
:10048000DF91CF911F910F91FF90EF900895F62E7D
:100490000B8D10E00F5F1F4F0F731127E02E8C8D17
:1004A0008E110CC00FB607FCFACFE889F98980815C
:1004B00085FFF5CFCE010E94FE01F1CFEB8DEC0F51
:1004C000FD2FF11DE35AFF4FF0829FB7F8940B8F79
:1004D000EA89FB8980818062CFCFCF93DF93EC01E3
:1004E000888D8823B9F0AA89BB89E889F9898C911C
:1004F00085FD03C0808186FD0DC00FB607FCF7CFD8
:100500008C9185FFF2CF808185FFEDCFCE010E94D7
:10051000FE01E9CFDF91CF91089520913A02260F95
:100520003327331F21323105ECF420915E02FC01A8
:1005300090E080E0243069F082E00895A0913A02D2
:100540002191AC01465E5D4FA40FB52FB11D2C93D8
:100550000196861798F380913A02680F60933A02E9
:1005600080E0089581E0089510925E0281E080931A
:10057000600210925F0261E082E10E94B50061E0DA
:1005800083E10E94B500E9EBF0E080818E7F8083FB
:1005900080818D7F808388E48093B80085E4809398
:1005A000BC000895CF93DF9391E0909319028823C4
:1005B000B9F0C091B800D091BA008091BC008A7B9C
:1005C0008093BC0060E082E10E94B50060E083E1BE
:1005D0000E94B5000E94B402D093BA00C093B80044
:1005E000DF91CF9108950895E0918B0280918A0266
:1005F000E81730F4F0E0EC50FE4F808190E0089571
:100600008FEF9FEF089590918B0280918A022FEFD8
:100610003FEF981748F4E92FF0E0EC50FE4F2081AF
:1006200030E09F5F90938B02C901089580918A0208
:1006300090918B02891B990B0895CF92DF92EF92D4
:10064000FF920F931F93CF93DF937C01CB018A011D
:100650002091F301222389F0EB016B01C40ED51E1A
:10066000CC15DD0569F06991D701ED91FC91019000
:10067000F081E02DC7010995F3CF642F0E948D0210
:10068000C801DF91CF911F910F91FF90EF90DF9004
:10069000CF900895CF93DF931F92CDB7DEB76983D4
:1006A0002091F3012223F9F020918802203258F0A2
:1006B00021E030E0FC013383228390E080E00F9062
:1006C000DF91CF91089580918902E82FF0E0ED52FB
:1006D000FE4F998190838F5F809389028093880277
:1006E00081E090E0ECCF61E0CE0101960E948D02A6
:1006F000F7CFCF92DF92EF92FF920F931F93CF939A
:10070000DF93FC01C48121E02093F301C093D20167
:1007100010928902109288028385682B89E493E005
:100720000E944A03D0918802D13208F092C00E9400
:1007300026016B017C0180915E02811165C082E01F
:1007400080935E0281E0809360028FEF80935D0270
:1007500010928202D0938102A3EDB1E0E1E6F2E0D3
:1007600080E0D81385C01092830280918302CC0F61
:10077000C82BC093830280915F02813009F07CC056
:1007800010925F020E9426016B017C01809183021E
:100790008093BB008091150290911602A0911702E0
:1007A000B0911802892B8A2B8B2B99F00E9426017D
:1007B0000091150210911602209117023091180233
:1007C0006C197D098E099F09061717072807390735
:1007D000E0F18091BC0083FDD9CF85EC8093BC0013
:1007E0000E9426016B017C0180915E02823009F437
:1007F00045C080915D028F3F61F180915D02803242
:1008000041F180915D0225C0809115029091160200
:10081000A0911702B0911802892B8A2B8B2B09F417
:100820008ACF0E9426010091150210911602209194
:100830001702309118026C197D098E099F0906175D
:1008400017072807390708F076CF809114020E9415
:10085000D20210928902109288021092F301DF9165
:10086000CF911F910F91FF90EF90DF90CF9008955F
:100870009D9191938F5F75CF85EEB0CF80911502DA
:1008800090911602A0911702B0911802892B8A2B21
:100890008B2B09F4A9CF0E9426010091150210911B
:1008A000160220911702309118026C197D098E09E9
:1008B0009F09061717072807390708F095CFC5CFF6
:1008C000089590E080E00895DC01ED91FD91808134
:1008D000ED91FD919081ED91FD916C9163708E236E
:1008E00009F064609F2309F06860E1E8F4E0E60F36
:1008F000F11D659565956D936D917D918D919D919E
:10090000099423C01AC012C016C010C01EC009C06E
:1009100014C013C006C019C009C00DC007C00DC067
:1009200014C062507040804090400BC061507040D5
:100930008040904006C06E5F01C06F5F7F4F8F4F59
:100940009F4F9E938E937E936E930895809155034F
:10095000909156030C94640480915703909158032E
:100960000C9464040F931F93CF938C01C62F0E94A5
:1009700079036C2F6460C8010E9479036C2F6B7F30
:10098000C8010E94790383EC90E00197F1F7CF91C1
:100990001F910F9108950F931F93CF93DF938C01B5
:1009A000D62FC42F607F642B0E94B20480E1D89FB1
:1009B000B00111246C2BC801DF91CF911F910F91D1
:1009C0000C94B204CF93DF93CDB7DEB728970FB660
:1009D000F894DEBF0FBECDBF98E0E8E8F1E0DE019D
:1009E000119601900D929A95E1F7909161039617F7
:1009F00008F46FEF262F30E0220F331F41E050E064
:100A00004C0F5D1F240F351FF9016081680F60686E
:100A100040E089E593E028960FB6F894DEBF0FBE5C
:100A2000CDBFDF91CF910C94CB0441E00E94CB0469
:100A300081E090E008958F929F92AF92BF920F93C2
:100A40001F93CF93DF93CDB7DEB7A1970FB6F8947E
:100A5000DEBF0FBECDBF19A2423008F44AE08E01BE
:100A60000F5D1F4F842E912CB12CA12CA501940158
:100A70000E948C0CE62FB901CA01EA3044F5E05D12
:100A8000D801EE938D01232B242B252B79F790E0B1
:100A900080E0109769F0FD0101900020E9F731979F
:100AA000AF014A1B5B0BBD0189E593E00E94800109
:100AB000A1960FB6F894DEBF0FBECDBFDF91CF91E8
:100AC0001F910F91BF90AF909F908F900895E95C18
:100AD000D7CFCF92DF92EF92FF9297FF18C06B01B2
:100AE0007C0141E06DE289E593E00E94CB0466273A
:100AF0007727CB016C197D098E099F094AE00E9476
:100B00001B050196FF90EF90DF90CF9008954AE08B
:100B1000FF90EF90DF90CF900C941B05FC010190AB
:100B20000020E9F73197AF01481B590BBC0189E55B
:100B300093E00C94800185ED8093BC0080911502B8
:100B400090911602A0911702B09118020796A11D6C
:100B5000B11D23E0B695A795979587952A95D1F76E
:100B60002091BC0024FD03C010925E0208954091C4
:100B70001502509116026091170270911802452BD0
:100B8000462B472B69F30097A105B10541F02AE2F6
:100B90002A95F1F700C00197A109B109E1CF809131
:100BA00014020C94D2021F920F920FB60F921124CE
:100BB0002F933F938F939F93AF93BF938091A40202
:100BC0009091A502A091A602B091A7023091A30234
:100BD00023E0230F2D3758F50196A11DB11D209359
:100BE000A3028093A4029093A502A093A602B093BF
:100BF000A7028091A8029091A902A091AA02B091A7
:100C0000AB020196A11DB11D8093A8029093A90289
:100C1000A093AA02B093AB02BF91AF919F918F9125
:100C20003F912F910F900FBE0F901F90189526E8BF
:100C3000230F0296A11DB11DD2CF1F920F920FB6A6
:100C40000F9211242F933F934F935F936F937F9352
:100C50008F939F93AF93BF93EF93FF93E091020124
:100C6000F09103010995FF91EF91BF91AF919F9191
:100C70008F917F916F915F914F913F912F910F9045
:100C80000FBE0F901F9018951F920F920FB60F92E4
:100C900011242F933F934F935F936F937F938F9381
:100CA0009F93AF93BF93EF93FF93E0910001F09177
:100CB00001010995FF91EF91BF91AF919F918F91A4
:100CC0007F916F915F914F913F912F910F900FBE48
:100CD0000F901F9018951F920F920FB60F9211242C
:100CE0002F933F934F935F936F937F938F939F9334
:100CF000AF93BF93EF93FF938CEA92E00E94FE01C3
:100D0000FF91EF91BF91AF919F918F917F916F91E3
:100D10005F914F913F912F910F900FBE0F901F90B9
:100D200018951F920F920FB60F9211242F938F9345
:100D30009F93EF93FF93E091BC02F091BD028081FD
:100D4000E091C202F091C30282FD1BC090818091AC
:100D5000C5028F5F8F732091C602821741F0E09128
:100D6000C502F0E0E455FD4F958F8093C502FF91D9
:100D7000EF919F918F912F910F900FBE0F901F9029
:100D800018958081F4CF1F920F920FB60F92112405
:100D90002F933F934F935F936F937F938F939F9383
:100DA000AF93BF93EF93FF938091B900887F803614
:100DB00009F44AC0F0F5883209F4A7C018F580316B
:100DC00009F49BC0B8F4882309F4F9C0883009F409
:100DD00094C0FF91EF91BF91AF919F918F917F91BF
:100DE0006F915F914F913F912F910F900FBE0F9098
:100DF0001F901895883109F488C0803251F780938C
:100E00005D0214C0803409F49DC040F48033B9F30E
:100E10008833F9F680935D0285ECB0C0803509F423
:100E200085C0883509F496C0883499F60E949B05E0
:100E3000D0CF883909F48CC038F5883729F050F4C0
:100E4000883611F0803729F683E080935E02109295
:100E50005C0257C0883809F47BC0803919F08038AB
:100E600009F0B7CF80915C02803208F071C0E09148
:100E70005C0281E08E0F80935C028091BB00F0E009
:100E8000E45CFD4F80833DC0803B39F0E0F4803A64
:100E900009F479C0883A09F09CCF84E080935E021F
:100EA00010923B0210923A02E0918602F091870282
:100EB000099580913A0281110FC081E080933A0236
:100EC00010921A0209C0803C09F4A6CF883C09F4AC
:100ED000A3CF883B09F07DCFE0913B0281E08E0FEC
:100EE00080933B02F0E0E65EFD4F80818093BB0083
:100EF00090913B0280913A0229C0809183028093B5
:100F0000BB0085EC8093BC0064CF909182028091FD
:100F10008102981758F5E091820281E08E0F80934C
:100F20008202F0E0EF59FD4F8081E9CFE09182022B
:100F300081E08E0F809382028091BB00F0E0EF5938
:100F4000FD4F808390918202809181029817C8F2B0
:100F500085E8D8CFE091820281E08E0F80938202F3
:100F60008091BB00F0E0EF59FD4F808380916002DB
:100F700081115CCF81E080935F0284EA8093BC00A2
:100F800010925E0226CF85EC8093BC0010925E0228
:100F900080915C02803230F4E0915C02F0E0E45C2D
:100FA000FD4F108260915C0270E0E0918402F0914C
:100FB00085028CE392E0099510925C020ACF1092B0
:100FC0005D0234CFCF93DF931092AF021092AE0246
:100FD00088EE93E0A0E0B0E08093B0029093B1027D
:100FE000A093B202B093B30224E931E03093AD0292
:100FF0002093AC0225EC30E03093B9022093B80284
:1010000024EC30E03093BB022093BA0220EC30E0B5
:101010003093BD022093BC0221EC30E03093BF023C
:101020002093BE0222EC30E03093C1022093C00234
:1010300026EC30E03093C3022093C2021092C50226
:101040001092C6021092C7021092C80210924C036E
:1010500010924B0380934D0390934E03A0934F0344
:10106000B093500386EA91E090934A03809349033A
:1010700062E085E00E94E30062E086E00E94E30017
:10108000E3EBF0E0E491F0E0EE0FFF1FEC55FF4FD3
:10109000A591B491B0936603A0936503E5E9F0E0F0
:1010A000449140936903E4EBF0E0E491F0E0EE0F4B
:1010B000FF1FEC55FF4FC591D491D0936803C093A7
:1010C0006703E6E9F0E0E491E0936A0310926C03B1
:1010D00010926D0310926E0310926F032BE33FE1A9
:1010E000C9010197F1F79C91842F892391E009F4BC
:1010F00090E08881E82309F0926090936B0310924E
:10110000700310925C0310925B0388EB91E0909364
:101110005A038093590387E280935D0380E18093B3
:10112000620382E08093630310926403DF91CF91A6
:101130000895789484B5826084BD84B5816084BD4F
:1011400085B5826085BD85B5816085BD80916E0065
:10115000816080936E001092810080918100826096
:1011600080938100809181008160809381008091D3
:1011700080008160809380008091B10084608093C2
:10118000B1008091B00081608093B00080917A00BE
:10119000846080937A0080917A00826080937A00E4
:1011A00080917A00816080937A0080917A008068D3
:1011B00080937A001092C10061E082E00E94E30017
:1011C00061E083E00E94E30061E084E00E94E300CC
:1011D00062E087E00E94E30061E08AE00E94E300B1
:1011E00080918100887F81608093810010928B02C2
:1011F00010928A0210928902109288020E94B40210
:101200008DE791E090938702809386028EE791E0CC
:10121000909385028093840210925E038091630311
:10122000823018F098E090935E038093610362E34C
:1012300070E080E090E00E944B016091640389E5DA
:1012400093E00E94790368EE73E080E090E00E94F2
:101250004B0160E389E593E00E94B204CBE4D6E45D
:10126000CE010197F1F760E389E593E00E94B204B3
:101270002197F1F760E389E593E00E94B20483E5EA
:1012800092E00197F1F760E289E593E00E94B204F1
:1012900060915E03606240E089E593E00E94CB04C8
:1012A00084E080935F0340E06CE089E593E00E9476
:1012B000CB0440E061E089E593E00E94CB04CBE3FE
:1012C000DFE1CE010197F1F782E08093600340E017
:1012D00066E089E593E00E94CB0440E062E089E5A6
:1012E00093E00E94CB042197F1F788E08093640398
:1012F00060E089E593E00E94790304E011E0C0E03A
:1013000040E06C2F606489E593E00E94CB04780193
:1013100028E0E20EF11CF80161918F0189E593E06C
:101320000E941505E016F106B1F7C85FC03441F719
:10133000E091BC02F091BD0282E08083E091B802AE
:10134000F091B9021082E091BA02F091BB028FE3F2
:1013500080831092C402E091C002F091C10286E045
:101360008083E091BE02F091BF0280818061808322
:10137000E091BE02F091BF02808188608083E0919D
:10138000BE02F091BF02808180688083E091BE023E
:10139000F091BF0280818F7D808344244A94B3E022
:1013A0005B2E612C712CE3E8F0E08491E7E9F0E03A
:1013B000C491E5EBF0E0D491DD2309F442C2811140
:1013C0000E948C00ED2FF0E0EE0FFF1FEC55FF4F59
:1013D000A591B4918C91C82331E020E009F430E06C
:1013E000832F922FC82FC1702FB7F8944091A40279
:1013F0005091A5026091A6027091A7022FBF4531BE
:10140000510561057105E8F0892BD9F480918C02B2
:101410008823B9F08091970290919802019668E034
:1014200070E00E94BD0C909398028093970240E078
:1014300061E089E593E00E94CB048BE39FE1019793
:10144000F1F7C0938C0280917003823008F0FCC1E8
:10145000F89485E693E00E94640460916C037091B7
:101460006D0380916E0390916F03789424E030E0D7
:1014700040E050E00E946D0C8091950290919602A0
:1014800082179307B9F06FB7F8948091A4029091F6
:10149000A502A091A602B091A7026FBF809391020E
:1014A00090939202A0939302B09394023093960289
:1014B000209395022FB7F8948091A4029091A502F1
:1014C000A091A602B091A7022FBF40919102509126
:1014D00092026091930270919402841B950BA60B6B
:1014E000B70B4597A105B105A0F120919502309168
:1014F000960280918F02909190028217930749F192
:101500003093900220938F02E0919702F09198021D
:10151000EE0FFF1FEE0FFF1FEA5AFE4F80918D0264
:1015200090918E028901081B190BC80142815381D9
:10153000840F951F8038910514F08FE790E097FF96
:1015400002C090E080E09383828330938E022093E8
:101550008D0260E080E00E94E20484EC91E00E9451
:101560008E05E0919702F0919802EE0FFF1FEE0FAB
:10157000FF1FEA5AFE4F62817381072E000C880B11
:10158000990B0E94690588EC91E00E948E0560919C
:10159000990270919A02072E000C880B990B0E94F9
:1015A000690561E080E00E94E2048BEC91E00E941A
:1015B0008E05E0919702F0919802EE0FFF1FEE0F5B
:1015C000FF1FEA5AFE4F60817181072E000C880BC5
:1015D000990B0E94690556E7852E51E0952E66E429
:1015E000E62E61E0F62E6401D0E0C0E0F601A191A4
:1015F000B1916F0127E030E00E94D10C2FE730E07D
:1016000040E050E00E946D0C222E022F132FF701B4
:10161000819191917F01A0909702B0909802081754
:10162000190739F480914401909145018A159B0571
:10163000E9F060E03C2EF8E03F0E832D0E94E204CA
:10164000622D89E593E00E94150561E0832D0E94DB
:10165000E20480EC91E0CA15DB0511F082EC91E028
:101660000E948E05F7013297118300832196C830BE
:10167000D10509F0BBCF8091970290919802909389
:1016800045018093440126E5E22E21E0F22E10E090
:1016900000E0602F617082E00E94B500B80175958E
:1016A0006795617083E00E94B500B80175956795F4
:1016B0007595679584E00E94B5008EE00E94140144
:1016C0002FE730E0DC010E94D10CA30192010E94BF
:1016D0006D0CC0919902D0919A02C20FD31FC038ED
:1016E000D10514F0CFE7D0E0D7FF02C0D0E0C0E0D2
:1016F000F401819191914F019E01281B390BC90181
:1017000037FF03C09195819591090297CCF0F401C0
:101710003297D183C083F701D2816081718161509A
:101720007109606B8CEA92E00E9420026D2F8CEAB6
:1017300092E00E9420026C2F8CEA92E00E9420022C
:101740000F5F1F4FF4E0EF0EF11C0830110509F098
:10175000A0CF80E10E941401EC0180919B02909146
:101760009C02C817D90769F02EE130E0DE010E9423
:10177000D10CA30192010E946D0C30939A02209328
:101780009902D0939C02C0939B022FB7F89480914A
:10179000A4029091A502A091A602B091A7022FBF2A
:1017A00040919F025091A0026091A1027091A2020B
:1017B0008C019D01041B150B260B370BB901A801E9
:1017C0004A3051056105710578F180939F0290932D
:1017D000A002A093A102B093A202C0919D02D09159
:1017E0009E0261E08AE00E94E300209779F560E0C4
:1017F0008AE00E94B5002091860130918701809196
:101800009D0290919E02820F931F90939E0280935F
:101810009D0201978E3F910538F031952195310950
:10182000309387012093860180E090E0892B09F4B2
:10183000BACD0E94EA01882309F4B5CD0E940000C8
:10184000B2CD90E080E0CECDF89407CECF3FD10569
:1018500011F461E0CDCFE6E8F0E0E491E33019F176
:1018600040F4E130B1F0E230C9F0C038D1058CF776
:10187000BECFE73011F1E83041F1E430B1F78091AB
:101880008000806280938000D0938B00C0938A0098
:10189000B2CF84B5806884BDC7BDADCF84B580624A
:1018A00084BDC8BDA8CF80918000806880938000EF
:1018B000D0938900C09388009ECF8091B00080684B
:1018C0008093B000C093B30096CF8091B000806247
:1018D0008093B000C093B4008ECF052E97FB1EF40A
:1018E00000940E94840C57FD07D00E948C0C07FCCA
:1018F00003D04EF40C94840C50954095309521956E
:101900003F4F4F4F5F4F089590958095709561952B
:101910007F4F8F4F9F4F0895A1E21A2EAA1BBB1B2A
:10192000FD010DC0AA1FBB1FEE1FFF1FA217B307AB
:10193000E407F50720F0A21BB30BE40BF50B661FC1
:10194000771F881F991F1A9469F760957095809585
:1019500090959B01AC01BD01CF010895A29FB001FC
:10196000B39FC001A39F700D811D1124911DB29FD3
:10197000700D811D1124911D089597FB072E16F4FB
:10198000009407D077FD09D00E94D80C07FC05D041
:101990003EF4909581959F4F0895709561957F4F86
:1019A00008950E94AE0CB7FF0895821B930B089513
:1019B000AA1BBB1B51E107C0AA1FBB1FA617B70775
:1019C00010F0A61BB70B881F991F5A95A9F7809591
:1019D0009095BC01CD010895EE0FFF1F0590F49185
:0819E000E02D0994F894FFCFFB
:1019E8007F017F01000000000000001F00000000D0
:1019F80000001F1F00000000001F1F1F0000000044
:101A08001F1F1F1F0000001F1F1F1F1F00001F1F79
:101A18001F1F1F1F001F1F1F1F1F1F1F1F1F1F1FED
:101A28001F1F1F1FFFFFFFFFFFFFFFFFFFFFFFFF3E
:101A3800FFFFFFFFFFFF010002000100040002009A
:101A480006000200080001000A000100160002005A
:101A5800210002002C00FFFFFFFFFFFFFFFFFFFF39
:101A6800FFFFFFFFFFFF05000000400014005400C7
:101A78000000000020028001AD016D02DE01BC0102
:101A8800D001000000004A031D036104F30216039D
:101A98000303F402000000001505800161046004DE
:101AA8002A00200043433A00583A004D4944493A35
:021AB80000002C
:00000001FF
