:020000040000FA
:100000000C9462000C9498060C9471060C948A006F
:100010000C948A000C948A000C948A000C948A0038
:100020000C948A000C948A000C948A000C948A0028
:100030000C948A000C948A000C948A000C948A0018
:100040000C9427060C948A000C94E5060C94BF06C9
:100050000C948A000C948A000C948A000C948A00F8
:100060000C9417070C948A0000000000240027005D
:100070002A0000000000250028002B0000000008D6
:10008000000201000003040700000000000000005F
:10009000010204081020408001020408102001021F
:1000A000040810200000000023002600290004049A
:1000B0000404040404040202020202020303030310
:1000C0000303360811241FBECFEFD8E0DEBFCDBF3B
:1000D00011E0A0E0B1E0E8EDFEE102C005900D9274
:1000E000A63DB107D9F723E0A6EDB1E001C01D920E
:1000F000AF36B207E1F710E0C2E6D0E004C02197C6
:10010000FE010E94640FC136D107C9F70E94ED08B5
:100110000C946A0F0C940000833081F028F4813035
:1001200099F08230A9F008958730A9F08830C9F09D
:100130008430B1F4809180008F7D03C08091800075
:100140008F7780938000089584B58F7784BD08955C
:1001500084B58F7DFBCF8091B0008F778093B00006
:1001600008958091B0008F7DF9CF1F93CF93DF93D7
:10017000282F30E0F901E458FF4F8491F901E0574E
:10018000FF4FD491F901E255FF4FC491CC23A9F060
:10019000162F81110E948C00EC2FF0E0EE0FFF1F54
:1001A000EE58FF4FA591B4918FB7F894EC911111CF
:1001B00008C0D095DE23DC938FBFDF91CF911F91D4
:1001C0000895DE2BF8CFCF93DF9390E0FC01E0574A
:1001D000FF4F249182559F4FFC0184918823D1F0D9
:1001E00090E0880F991FFC01E859FF4FA591B49149
:1001F000FC01EE58FF4FC591D491623071F49FB766
:10020000F8943C91822F809583238C93E8812E2B48
:1002100028839FBFDF91CF9108958FB7F894EC9119
:100220002E2B2C938FBFF6CF1F93CF93DF93182FD6
:10023000EB0161E00E94E300209739F460E0812F38
:10024000DF91CF911F910C94B500CF3FD10511F4F0
:1002500061E0F5CFE12FF0E0E458FF4FE491E330A7
:1002600031F140F4E130B1F0E230E1F0C038D105D5
:100270007CF7E4CFE73029F1E83059F1E430B1F709
:1002800080918000806280938000D0938B00C09327
:100290008A0004C084B5806884BDC7BDDF91CF915A
:1002A0001F91089584B5806284BDC8BDF7CF809149
:1002B0008000806880938000D0938900C09388007C
:1002C000EDCF8091B00080688093B000C093B30000
:1002D000E5CF8091B00080628093B000C093B400FD
:1002E000DDCF8E50806480937C0080917A008064A2
:1002F00080937A0080917A0086FDFCCF809178000F
:100300009091790008953FB7F8948091A60290915A
:10031000A702A091A802B091A90226B5A89B05C08A
:100320002F3F19F00196A11DB11D3FBFBA2FA92F74
:10033000982F8827BC01CD01620F711D811D911D71
:1003400042E0660F771F881F991F4A95D1F70895DD
:100350008F929F92AF92BF92CF92DF92EF92FF92D5
:100360004B015C010E9483016B017C010E948301AF
:100370006C197D098E099F09683E734081059105BE
:10038000A8F321E0821A9108A108B10888EEC80EEE
:1003900083E0D81EE11CF11C81149104A104B10476
:1003A00029F7FF90EF90DF90CF90BF90AF909F9094
:1003B0008F900895089508950895AF92BF92CF92B7
:1003C000DF92EF92FF920F931F93CF93DF936C0115
:1003D0007B018B01040F151FEB015E01AE18BF08F6
:1003E000C017D10759F06991D601ED91FC910190A8
:1003F000F081E02DC6010995892B79F7C501DF91C0
:10040000CF911F910F91FF90EF90DF90CF90BF9011
:10041000AF900895FC01538D448D252F30E0842F3B
:1004200090E0821B930B541710F0CF96089501971C
:100430000895FC01918D828D981761F0A28DAE0F09
:10044000BF2FB11D5D968C91928D9F5F9F73928F90
:1004500090E008958FEF9FEF0895FC01918D828DBC
:10046000981731F0828DE80FF11D858D90E0089589
:100470008FEF9FEF0895FC01918D228D892F90E0E1
:10048000805C9F4F821B91098F73992708958AEA98
:1004900092E00E943B0221E0892B09F420E0822FA8
:1004A000089580E090E0892B29F00E944702811195
:1004B0000C9400000895FC01A48DA80FB92FB11D64
:1004C000A35ABF4F2C91848D90E001968F7399278A
:1004D000848FA689B7892C93A089B1898C91837068
:1004E00080648C93938D848D981306C00288F38961
:1004F000E02D80818F7D80830895EF92FF920F938E
:100500001F93CF93DF93EC0181E0888F9B8D8C8DBF
:1005100098131AC0E889F989808185FF15C09FB7B3
:10052000F894EE89FF896083E889F9898081837076
:10053000806480839FBF81E090E0DF91CF911F9125
:100540000F91FF90EF900895F62E0B8D10E00F5F46
:100550001F4F0F731127E02E8C8D8E110CC00FB61C
:1005600007FCFACFE889F989808185FFF5CFCE01B4
:100570000E945B02F1CFEB8DEC0FFD2FF11DE35AD2
:10058000FF4FF0829FB7F8940B8FEA89FB89808137
:100590008062CFCFCF93DF93EC01888D8823B9F0B1
:1005A000AA89BB89E889F9898C9185FD03C080817E
:1005B00086FD0DC00FB607FCF7CF8C9185FFF2CFFB
:1005C000808185FFEDCFCE010E945B02E9CFDF91F4
:1005D000CF91089520913E02260F3327331F2132F9
:1005E0003105ECF420916202FC0190E080E02430BF
:1005F00069F082E00895A0913E022191AC01425E33
:100600005D4FA40FB52FB11D2C930196861798F35B
:1006100080913E02680F60933E0280E0089581E081
:1006200008951092620281E0809364021092630246
:1006300061E082E10E94B50061E083E10E94B500C3
:10064000E9EBF0E080818E7F808380818D7F8083E5
:1006500088E48093B80085E48093BC000895CF932C
:10066000DF9391E090931D028823B9F0C091B80008
:10067000D091BA008091BC008A7B8093BC0060E07E
:1006800082E10E94B50060E083E10E94B5000E9413
:100690001103D093BA00C093B800DF91CF910895B1
:1006A0000895E0918F0280918E02E81730F4F0E017
:1006B000E850FE4F808190E008958FEF9FEF0895FE
:1006C00090918F0280918E022FEF3FEF981748F4A0
:1006D000E92FF0E0E850FE4F208130E09F5F9093DB
:1006E0008F02C901089580918E0290918F02891B1B
:1006F000990B0895CF92DF92EF92FF920F931F9381
:10070000CF93DF937C01CB018A012091F701222353
:1007100089F0EB016B01C40ED51ECC15DD0569F027
:100720006991D701ED91FC910190F081E02DC70115
:100730000995F3CF642F0E94EA02C801DF91CF919F
:100740001F910F91FF90EF90DF90CF900895CF937E
:10075000DF931F92CDB7DEB769832091F701222383
:10076000F9F020918C02203258F021E030E0FC01B9
:100770003383228390E080E00F90DF91CF91089542
:1007800080918D02E82FF0E0E952FE4F998190832D
:100790008F5F80938D0280938C0281E090E0ECCF9C
:1007A00061E0CE0101960E94EA02F7CFCF92DF927C
:1007B000EF92FF920F931F93CF93DF93FC01C481BD
:1007C00021E02093F701C093D60110928D02109280
:1007D0008C028385682B87E493E00E94A703D09165
:1007E0008C02D13208F092C00E9483016B017C011F
:1007F00080916202811165C082E08093620281E093
:10080000809364028FEF8093610210928602D093EE
:100810008502A7EDB1E0E5E6F2E080E0D81385C0FF
:100820001092870280918702CC0FC82BC093870259
:1008300080916302813009F07CC0109263020E94B3
:1008400083016B017C01809187028093BB008091C2
:10085000190290911A02A0911B02B0911C02892BDF
:100860008A2B8B2B99F00E94830100911902109121
:100870001A0220911B0230911C026C197D098E090D
:100880009F090617170728073907E0F18091BC0078
:1008900083FDD9CF85EC8093BC000E9483016B015E
:1008A0007C0180916202823009F445C0809161022E
:1008B0008F3F61F180916102803241F1809161024C
:1008C00025C08091190290911A02A0911B02B0914B
:1008D0001C02892B8A2B8B2B09F48ACF0E9483015F
:1008E0000091190210911A0220911B0230911C02F2
:1008F0006C197D098E099F09061717072807390704
:1009000008F076CF809118020E942F0310928D027A
:1009100010928C021092F701DF91CF911F910F91ED
:10092000FF90EF90DF90CF9008959D9191938F5F0E
:1009300075CF85EEB0CF8091190290911A02A091E7
:100940001B02B0911C02892B8A2B8B2B09F4A9CF97
:100950000E9483010091190210911A0220911B023A
:1009600030911C026C197D098E099F090617170723
:100970002807390708F095CFC5CF089590E080E0AB
:100980000895DC01ED91FD918081ED91FD919081C3
:10099000ED91FD916C9163708E2309F064609F234B
:1009A00009F06860EEEDF4E0E60FF11D65956595E0
:1009B0006D936D917D918D919D91099423C01AC085
:1009C00012C016C010C01EC009C014C013C006C09B
:1009D00019C009C00DC007C00DC014C062507040DE
:1009E000804090400BC0615070408040904006C0F5
:1009F0006E5F01C06F5F7F4F8F4F9F4F9E938E93AF
:100A00007E936E93089580915303909154030C94B8
:100A1000C10480915503909156030C94C1040F9327
:100A20001F93CF938C01C62F0E94D6036C2F646056
:100A3000C8010E94D6036C2F6B7FC8010E94D603A9
:100A400083EC90E00197F1F7CF911F910F910895FA
:100A50000F931F93CF93DF938C01D62FC42F607F0A
:100A6000642B0E940F0580E1D89FB00111246C2BEC
:100A7000C801DF91CF911F910F910C940F05CF9377
:100A8000DF93CDB7DEB728970FB6F894DEBF0FBE61
:100A9000CDBF98E0EEE8F1E0DE01119601900D92F5
:100AA0009A95E1F790916B03961708F46FEF262F54
:100AB00030E0220F331F41E050E04C0F5D1F240F48
:100AC000351FF9016081680F606840E083E693E0BC
:100AD00028960FB6F894DEBF0FBECDBFDF91CF9141
:100AE0000C94280541E00E94280581E090E00895DB
:100AF0008F929F92AF92BF920F931F93CF93DF93EA
:100B0000CDB7DEB7A1970FB6F894DEBF0FBECDBF4D
:100B100019A2423008F44AE08E010F5D1F4F842E67
:100B2000912CB12CA12CA50194010E94EC0CE62F74
:100B3000B901CA01EA3044F5E05DD801EE938D01B8
:100B4000232B242B252B79F790E080E0109769F078
:100B5000FD0101900020E9F73197AF014A1B5B0BC3
:100B6000BD0183E693E00E94DD01A1960FB6F894E3
:100B7000DEBF0FBECDBFDF91CF911F910F91BF9010
:100B8000AF909F908F900895E95CD7CFCF92DF927E
:100B9000EF92FF926B017C0141E06DE283E693E00E
:100BA0000E94280566277727CB016C197D098E09DD
:100BB0009F094AE00E9478050196FF90EF90DF9030
:100BC000CF900895FC0101900020E9F73197AF0123
:100BD000481B590BBC0183E693E00C94DD0185EDC5
:100BE0008093BC008091190290911A02A0911B027F
:100BF000B0911C020796A11DB11D23E0B695A795E3
:100C0000979587952A95D1F72091BC0024FD03C0C4
:100C10001092620208954091190250911A02609157
:100C20001B0270911C02452B462B472B69F3009742
:100C3000A105B10541F02AE22A95F1F700C001971C
:100C4000A109B109E1CF809118020C942F031F92E2
:100C50000F920FB60F9211242F933F938F939F9370
:100C6000AF93BF938091A2029091A302A091A4029E
:100C7000B091A5023091A10223E0230F2D3758F542
:100C80000196A11DB11D2093A1028093A202909311
:100C9000A302A093A402B093A5028091A602909112
:100CA000A702A091A802B091A9020196A11DB11DB1
:100CB0008093A6029093A702A093A802B093A902E2
:100CC000BF91AF919F918F913F912F910F900FBE48
:100CD0000F901F90189526E8230F0296A11DB11DB5
:100CE000D2CF1F920F920FB60F9211242F933F93E2
:100CF0004F935F936F937F938F939F93AF93BF9324
:100D0000EF93FF93E0910201F09103010995FF91A8
:100D1000EF91BF91AF919F918F917F916F915F9173
:100D20004F913F912F910F900FBE0F901F901895EC
:100D30001F920F920FB60F9211242F933F934F9350
:100D40005F936F937F938F939F93AF93BF93EF9333
:100D5000FF93E0910001F09101010995FF91EF915E
:100D6000BF91AF919F918F917F916F915F914F91C3
:100D70003F912F910F900FBE0F901F9018951F92CB
:100D80000F920FB60F9211242F933F934F935F93BF
:100D90006F937F938F939F93AF93BF93EF93FF9343
:100DA0008AEA92E00E945B02FF91EF91BF91AF91BE
:100DB0009F918F917F916F915F914F913F912F9173
:100DC0000F900FBE0F901F9018951F920F920FB6A5
:100DD0000F9211242F938F939F93EF93FF93E091A2
:100DE000BA02F091BB028081E091C002F091C10291
:100DF00082FD1BC090818091C3028F5F8F73209111
:100E0000C402821741F0E091C302F0E0E655FD4FC5
:100E1000958F8093C302FF91EF919F918F912F91B6
:100E20000F900FBE0F901F9018958081F4CF1F92E6
:100E30000F920FB60F9211242F933F934F935F930E
:100E40006F937F938F939F93AF93BF93EF93FF9392
:100E50008091B900887F803609F44AC0F0F5883265
:100E600009F4A7C018F5803109F49BC0B8F48823B1
:100E700009F4F9C0883009F494C0FF91EF91BF9153
:100E8000AF919F918F917F916F915F914F913F9122
:100E90002F910F900FBE0F901F901895883109F475
:100EA00088C0803251F78093610214C0803409F405
:100EB0009DC040F48033B9F38833F9F68093610222
:100EC00085ECB0C0803509F485C0883509F496C03A
:100ED000883499F60E94EF05D0CF883909F48CC088
:100EE00038F5883729F050F4883611F0803729F624
:100EF00083E0809362021092600257C0883809F440
:100F00007BC0803919F0803809F0B7CF809160023A
:100F1000803208F071C0E091600281E08E0F809312
:100F200060028091BB00F0E0E05CFD4F80833DC03B
:100F3000803B39F0E0F4803A09F479C0883A09F04E
:100F40009CCF84E08093620210923F0210923E0296
:100F5000E0918A02F0918B02099580913E02811105
:100F60000FC081E080933E0210921E0209C0803CB7
:100F700009F4A6CF883C09F4A3CF883B09F07DCFC4
:100F8000E0913F0281E08E0F80933F02F0E0E25E4D
:100F9000FD4F80818093BB0090913F0280913E0283
:100FA00029C0809187028093BB0085EC8093BC00B0
:100FB00064CF9091860280918502981758F5E09150
:100FC000860281E08E0F80938602F0E0EB59FD4FA0
:100FD0008081E9CFE091860281E08E0F80938602C6
:100FE0008091BB00F0E0EB59FD4F80839091860229
:100FF000809185029817C8F285E8D8CFE0918602E3
:1010000081E08E0F809386028091BB00F0E0EB5967
:10101000FD4F80838091640281115CCF81E08093D9
:10102000630284EA8093BC001092620226CF85ECB2
:101030008093BC001092620280916002803230F492
:10104000E0916002F0E0E05CFD4F10826091600290
:1010500070E0E0918802F091890280E492E00995C5
:10106000109260020ACF1092610234CFCF93DF93C7
:101070001092AD021092AC0288EE93E0A0E0B0E0D6
:101080008093AE029093AF02A093B002B093B102EE
:101090002AE931E03093AB022093AA0225EC30E03C
:1010A0003093B7022093B60224EC30E03093B902BB
:1010B0002093B80220EC30E03093BB022093BA02B8
:1010C00021EC30E03093BD022093BC0222EC30E0F2
:1010D0003093BF022093BE0226EC30E03093C10271
:1010E0002093C0021092C3021092C4021092C50253
:1010F0001092C60210924A031092490380934B0348
:1011000090934C03A0934D03B0934E038CEA91E06F
:1011100090934803809347031092660310926503EF
:101120008EEB91E0909364038093630387E2809356
:10113000670380E180936C0382E080936D031092DB
:101140006E0362E085E00E94E30062E086E00E94B8
:10115000E300E3EBF0E0E491F0E0EE0FFF1FEC556D
:10116000FF4FA591B491B0935803A0935703E5E9BD
:10117000F0E0449140935B03E4EBF0E0E491F0E0B5
:10118000EE0FFF1FEC55FF4FC591D491D0935A033A
:10119000C0935903E6E9F0E0E491E0935C03109218
:1011A0005E0310925F0310926003109261032BE3C1
:1011B0003FE1C9010197F1F79C91842F892391E0C8
:1011C00009F490E08881E82309F0926090935D0330
:1011D00010926203DF91CF910895CF93DF93CDB743
:1011E000DEB766970FB6F894DEBF0FBECDBF78941A
:1011F00084B5826084BD84B5816084BD85B582601C
:1012000085BD85B5816085BD80916E0081608093CC
:101210006E00109281008091810082608093810035
:101220008091810081608093810080918000816045
:10123000809380008091B10084608093B1008091A0
:10124000B00081608093B00080917A0084608093C8
:101250007A0080917A00826080937A0080917A008F
:10126000816080937A0080917A00806880937A0010
:101270001092C10061E082E00E94E30061E083E03F
:101280000E94E30061E084E00E94E30062E087E006
:101290000E94E30061E08AE00E94E30061E08BE0ED
:1012A0000E94E30010928F0210928E0210928D0223
:1012B00010928C020E9411038AED91E090938B02B0
:1012C00080938A028BED91E090938902809388024B
:1012D0001092680380916D03823018F098E090932B
:1012E000680380936B0362E370E080E090E00E940B
:1012F000A80160916E0383E693E00E94D60368EE36
:1013000073E080E090E00E94A80160E383E693E050
:101310000E940F050BE416E4C8010197F1F760E3A2
:1013200083E693E00E940F05C8010197F1F760E39F
:1013300083E693E00E940F0583E592E00197F1F7C1
:1013400060E283E693E00E940F05609168036062AB
:1013500040E083E693E00E94280584E080936903DF
:1013600040E06CE083E693E00E94280540E061E005
:1013700083E693E00E9428050BE31FE1C801019773
:10138000F1F782E080936A0340E066E083E693E051
:101390000E94280540E062E083E693E00E94280571
:1013A000C8010197F1F788E080936E0360E083E65F
:1013B00093E00E94D603F4E0EF2EF1E0FF2E10E060
:1013C00040E0612F606483E693E00E942805670196
:1013D00048E0C40ED11CF70161917F0183E693E0E0
:1013E0000E947205CE14DF04B1F7185F103441F784
:1013F000E091BA02F091BB0282E08083E091B602F4
:10140000F091B7021082E091B802F091B9028FE337
:1014100080831092C202E091BE02F091BF0286E08A
:101420008083E091BC02F091BD0280818061808365
:10143000E091BC02F091BD02808188608083E091E0
:10144000BC02F091BD02808180688083E091BC0283
:10145000F091BD0280818F7D808344244A94E3E033
:101460005E2E612C712CE3E8F0E08491E7E9F0E076
:101470000491E5EBF0E01491112309F481C281118C
:101480000E948C00E12FF0E0EE0FFF1FEC55FF4FA4
:10149000A591B4918C91082331E020E009F430E06B
:1014A000832F922F182F11702FB7F8944091A2021A
:1014B0005091A3026091A4027091A5022FBF453103
:1014C000510561057105E8F0892BD9F480919002EE
:1014D0008823B9F080919B0290919C02019664E070
:1014E00070E00E942D0F90939C0280939B0240E03D
:1014F00061E083E693E00E9428058BE39FE101977A
:10150000F1F71093900280916203823008F03BC2A1
:10151000F89487E593E00E94C10460915E037091A6
:101520005F038091600390916103789424E030E040
:1015300040E050E00E94CD0C8091990290919A0277
:1015400082179307B9F06FB7F8948091A202909137
:10155000A302A091A402B091A5026FBF809395024F
:1015600090939602A0939702B093980230939A02B8
:10157000209399022FB7F8948091A2029091A30230
:10158000A091A402B091A5022FBF40919502509165
:1015900096026091970270919802841B950BA60B9E
:1015A000B70B4597A105B105A0F1209199023091A3
:1015B0009A0280919302909194028217930749F1C5
:1015C0003093940220939302E0919B02F0919C024D
:1015D000EE0FFF1FEE0FFF1FEA5AFE4F80919102A0
:1015E00090919202A901481B590BCA014281538173
:1015F000840F951F8038910514F08FE790E097FFD6
:1016000002C090E080E09383828330939202209323
:10161000910220919D0230919E02A9EFBFEF0E949E
:10162000410FA30192010E94CD0C69017A0187E06C
:10163000C80ED11CE11CF11CB6018AE00E94140105
:1016400064E070E06C197D0977FF02C070E060E033
:101650008BE00E94140160E080E00E943F058AEC6C
:1016600091E00E94E205E0919B02F0919C02EE0F56
:10167000FF1FEE0FFF1FEA5AFE4F62817381072E94
:10168000000C880B990B97FF80C10E94C6058DEC5A
:1016900091E00E94E2056C2D83E693E00E947205C2
:1016A00061E080E00E943F058FEC91E00E94E2053E
:1016B000E0919B02F0919C02EE0FFF1FEE0FFF1FC7
:1016C000EA5AFE4F60817181072E000C880B990B3E
:1016D00097FF5FC10E94C605EEE7F1E0FA8BE98B48
:1016E00036E4C32E31E0D32E5F0110E000E0F501B7
:1016F000A191B1915F0127E030E00E94490F2FE7EF
:1017000030E040E050E00E94CD0C222EE22EF32E7D
:10171000F601819191916F0180909B0290909C02C3
:10172000E816F90639F48091440190914501881535
:101730009905E9F060E028E0322E300E832D0E94FA
:101740003F05622D83E693E00E94720561E0832DE0
:101750000E943F0586EC91E00815190511F088EC10
:1017600091E00E94E205F6013297F182E0820F5F7C
:101770001F4F0830110509F0BACF80919B0290915C
:101780009C02909345018093440180E10E94710185
:101790001C0180919F029091A0022816390621F029
:1017A00030929E0220929D028E010F5F1F4F6801B2
:1017B000F12CE12C6E2D617082E00E94B500B70122
:1017C00075956795617083E00E94B500B7017595C6
:1017D00067957595679584E00E94B5008EE00E943C
:1017E0007101F601819391936F012FE730E0DC01E5
:1017F0000E94490FA30192010E94CD0CE989FA8948
:1018000021933193FA8BE98BFFEFEF1AFF0A48E03F
:10181000E416F10479F686E791E09C8B8B8BE6E584
:10182000F1E0FA8BE98BA801405F5F4F5E8B4D8B37
:1018300060919D0270919E02072E000C880B990BFF
:101840000E94340E20E030EC4FE754E40E948A0DF1
:101850009B01AC0160E070E080E89FE30E941D0DF9
:101860006B017C01F80160817181072E000C880BEF
:10187000990B0E94340E4B015C01A701960160E0B8
:1018800070E080E89FE30E941D0D9B01AC01C50143
:10189000B4010E94C00E4B015C01F80162817381AA
:1018A000072E000C880B990B0E94340EA70196019D
:1018B0000E94C00E9B01AC01C501B4010E941E0D27
:1018C0000E94FC0DDB012FE730E00E94490FA301CD
:1018D00092010E94CD0CF22E822F932FEB89FC896E
:1018E00020813181AC01421B530B9A0157FF03C089
:1018F00031952195310922303105F4F0EB89FC89CD
:1019000091838083E989FA89E280608171816150E5
:101910007109606B8AEA92E00E947D026E2D8AEA6C
:1019200092E00E947D026F2D8AEA92E00E947D0281
:101930008AEA92E00E94CA020C5F1F4F4B895C89C1
:101940004C5F5F4F5C8B4B8B89899A8908969A8B89
:10195000898BED89FE89E017F10709F069CF309294
:10196000A00220929F0280E090E0892B09F47BCDB9
:101970000E944702882309F476CD0E94000073CDAF
:1019800090E080E08FCDF894C8CD4AE00E947805C1
:101990007ECE4AE00E9478059FCE052E97FB1EF46E
:1019A00000940E94E40C57FD07D00E94EC0C07FC49
:1019B00003D04EF40C94E40C50954095309521954D
:1019C0003F4F4F4F5F4F089590958095709561956B
:1019D0007F4F8F4F9F4F0895A1E21A2EAA1BBB1B6A
:1019E000FD010DC0AA1FBB1FEE1FFF1FA217B307EB
:1019F000E407F50720F0A21BB30BE40BF50B661F01
:101A0000771F881F991F1A9469F7609570958095C4
:101A100090959B01AC01BD01CF010895A29FB0013B
:101A2000B39FC001A39F700D811D1124911DB29F12
:101A3000700D811D1124911D08955058BB27AA27B0
:101A40000E94350D0C94860E0E94780E38F00E948C
:101A50007F0E20F039F49F3F19F426F40C94750E94
:101A60000EF4E095E7FB0C946F0EE92F0E94970EA1
:101A700058F3BA17620773078407950720F079F4C3
:101A8000A6F50C94B90E0EF4E0950B2EBA2FA02DEE
:101A90000B01B90190010C01CA01A0011124FF271B
:101AA000591B99F0593F50F4503E68F11A16F04016
:101AB000A22F232F342F4427585FF3CF4695379515
:101AC0002795A795F0405395C9F77EF41F16BA0BDA
:101AD000620B730B840BBAF09150A1F0FF0FBB1F88
:101AE000661F771F881FC2F70EC0BA0F621F731FD1
:101AF000841F48F4879577956795B795F7959E3F2E
:101B000008F0B0CF9395880F08F09927EE0F9795BE
:101B1000879508950E949E0D0C94860E0E947F0E5C
:101B200058F00E94780E40F029F45F3F29F00C94A1
:101B30006F0E51110C94BA0E0C94750E0E94970EF4
:101B400068F39923B1F3552391F3951B550BBB27EC
:101B5000AA2762177307840738F09F5F5F4F220F31
:101B6000331F441FAA1FA9F335D00E2E3AF0E0E828
:101B700032D091505040E695001CCAF72BD0FE2F72
:101B800029D0660F771F881FBB1F26173707480706
:101B9000AB07B0E809F0BB0B802DBF01FF279358BE
:101BA0005F4F3AF09E3F510578F00C946F0E0C9405
:101BB000BA0E5F3FE4F3983ED4F386957795679528
:101BC000B795F7959F5FC9F7880F911D96958795F3
:101BD00097F90895E1E0660F771F881FBB1F621712
:101BE00073078407BA0720F0621B730B840BBA0BD0
:101BF000EE1F88F7E09508950E94030E6894B111D6
:101C00000C94BA0E08950E949F0E88F09F5798F08A
:101C1000B92F9927B751B0F0E1F0660F771F881FF1
:101C2000991F1AF0BA95C9F714C0B13091F00E940B
:101C3000B90EB1E008950C94B90E672F782F88275C
:101C4000B85F39F0B93FCCF3869577956795B39532
:101C5000D9F73EF490958095709561957F4F8F4FA1
:101C60009F4F0895E89409C097FB3EF490958095A6
:101C7000709561957F4F8F4F9F4F9923A9F0F92F52
:101C800096E9BB279395F695879577956795B795D0
:101C9000F111F8CFFAF4BB0F11F460FF1BC06F5FB6
:101CA0007F4F8F4F9F4F16C0882311F096E911C0C8
:101CB000772321F09EE8872F762F05C0662371F0E9
:101CC00096E8862F70E060E02AF09A95660F771FFD
:101CD000881FDAF7880F9695879597F9089597F9F1
:101CE0009F6780E870E060E008959FEF80EC0895C2
:101CF00000240A94161617061806090608950024EB
:101D00000A9412161306140605060895092E039464
:101D1000000C11F4882352F0BB0F40F4BF2B11F4D8
:101D200060FF04C06F5F7F4F8F4F9F4F089557FD37
:101D30009058440F551F59F05F3F71F04795880F39
:101D400097FB991F61F09F3F79F0879508951216D0
:101D500013061406551FF2CF4695F1DF08C016167C
:101D600017061806991FF1CF86957105610508942D
:101D70000895E894BB2766277727CB0197F9089544
:101D80000E94D30E0C94860E0E94780E38F00E94AA
:101D90007F0E20F0952311F00C946F0E0C94750EAD
:101DA00011240C94BA0E0E94970E70F3959FC1F304
:101DB000950F50E0551F629FF001729FBB27F00DF9
:101DC000B11D639FAA27F00DB11DAA1F649F66274E
:101DD000B00DA11D661F829F2227B00DA11D621F9D
:101DE000739FB00DA11D621F839FA00D611D221F57
:101DF000749F3327A00D611D231F849F600D211D3B
:101E0000822F762F6A2F11249F5750409AF0F1F0BD
:101E100088234AF0EE0FFF1FBB1F661F771F881F26
:101E200091505040A9F79E3F510580F00C946F0EE1
:101E30000C94BA0E5F3FE4F3983ED4F38695779501
:101E40006795B795F795E7959F5FC1F7FE2B880FCC
:101E5000911D9695879597F9089597FB072E16F48F
:101E6000009407D077FD09D00E94500F07FC05D0E1
:101E70003EF4909581959F4F0895709561957F4FA1
:101E800008950E940E0D332312F48A1B9B0B0C94B1
:101E90004B0F0E940E0DB7FF0895821B930B089500
:101EA000AA1BBB1B51E107C0AA1FBB1FA617B70780
:101EB00010F0A61BB70B881F991F5A95A9F780959C
:101EC0009095BC01CD010895EE0FFF1F0590F49190
:101ED000E02D0994F894FFCFDC01DC010000000044
:101EE0000000001F0000000000001F0000000000B4
:101EF000001F0000000000001F0000000000001F85
:101F00000000000000001F0000000000001F000093
:101F1000000000001F00000000000000FFFFFFFFA6
:101F2000FFFFFFFFFFFFFFFFFFFFFFFFFFFF0100BE
:101F30000200010004000200060002000800010087
:101F40000A00010016000200210002002C00FFFF21
:101F5000FFFFFFFFFFFFFFFFFFFFFFFFFFFFFFFF91
:101F6000FFFFFFFFFFFF00004000140054000000CF
:101F700000007D02DD010A02CA023B0219022D02A5
:101F800000000000A7037A03BE045003730360033C
:101F90005103000000007205DD01BE04BD042A00EB
:0E1FA000200043430058004D4944493A0000D8
:107E0000112484B714BE81FFF0D085E080938100F7
:107E100082E08093C00088E18093C10086E0809377
:107E2000C20080E18093C4008EE0C9D0259A86E02C
:107E300020E33CEF91E0309385002093840096BBD3
:107E4000B09BFECF1D9AA8958150A9F7CC24DD24C4
:107E500088248394B5E0AB2EA1E19A2EF3E0BF2EE7
:107E6000A2D0813461F49FD0082FAFD0023811F036
:107E7000013811F484E001C083E08DD089C08234E0
:107E800011F484E103C0853419F485E0A6D080C0E4
:107E9000853579F488D0E82EFF2485D0082F10E0AE
:107EA000102F00270E291F29000F111F8ED06801E7
:107EB0006FC0863521F484E090D080E0DECF843638
:107EC00009F040C070D06FD0082F6DD080E0C81688
:107ED00080E7D80618F4F601B7BEE895C0E0D1E017
:107EE00062D089930C17E1F7F0E0CF16F0E7DF06D8
:107EF00018F0F601B7BEE89568D007B600FCFDCFD4
:107F0000A601A0E0B1E02C9130E011968C91119780
:107F100090E0982F8827822B932B1296FA010C0160
:107F200087BEE89511244E5F5F4FF1E0A038BF0790
:107F300051F7F601A7BEE89507B600FCFDCF97BE46
:107F4000E89526C08437B1F42ED02DD0F82E2BD052
:107F50003CD0F601EF2C8F010F5F1F4F84911BD097
:107F6000EA94F801C1F70894C11CD11CFA94CF0C13
:107F7000D11C0EC0853739F428D08EE10CD085E9AC
:107F80000AD08FE07ACF813511F488E018D01DD067
:107F900080E101D065CF982F8091C00085FFFCCF94
:107FA0009093C60008958091C00087FFFCCF809118
:107FB000C00084FD01C0A8958091C6000895E0E648
:107FC000F0E098E1908380830895EDDF803219F02E
:107FD00088E0F5DFFFCF84E1DECF1F93182FE3DFCA
:107FE0001150E9F7F2DF1F91089580E0E8DFEE27F6
:047FF000FF270994CA
:027FFE00040479
:00000001FF
