:020000040000FA
:100000000C9462000C949A060C9473060C948A006B
:100010000C948A000C948A000C948A000C948A0038
:100020000C948A000C948A000C948A000C948A0028
:100030000C948A000C948A000C948A000C948A0018
:100040000C9429060C948A000C94E7060C94C106C3
:100050000C948A000C948A000C948A000C948A00F8
:100060000C9419070C948A0000000000240027005B
:100070002A0000000000250028002B0000000008D6
:10008000000201000003040700000000000000005F
:10009000010204081020408001020408102001021F
:1000A000040810200000000023002600290004049A
:1000B0000404040404040202020202020303030310
:1000C0000303380811241FBECFEFD8E0DEBFCDBF39
:1000D00011E0A0E0B1E0E0E3FDE102C005900D9287
:1000E000A83CB107D9F723E0A8ECB1E001C01D920C
:1000F000A635B207E1F710E0C2E6D0E004C02197D0
:10010000FE010E94900EC136D107C9F70E94EF0888
:100110000C94960E0C94000090E0FC01E458FF4F04
:100120002491FC01E057FF4F3491FC01E255FF4F51
:10013000E491EE23C9F0222339F0233001F1A8F431
:10014000213019F1223029F1F0E0EE0FFF1FEE58B7
:10015000FF4FA591B4918FB7F894EC91611126C02F
:1001600030953E233C938FBF08952730A9F0283067
:10017000C9F0243049F7809180008F7D03C08091C1
:1001800080008F7780938000DFCF84B58F7784BD28
:10019000DBCF84B58F7DFBCF8091B0008F778093CC
:1001A000B000D2CF8091B0008F7DF9CF3E2BDACF57
:1001B000CF93DF9390E0FC01E057FF4F24918255ED
:1001C0009F4FFC0184918823D1F090E0880F991F04
:1001D000FC01E859FF4FA591B491FC01EE58FF4F87
:1001E000C591D491623071F49FB7F8943C91822FFD
:1001F000809583238C93E8812E2B28839FBFDF91EA
:10020000CF9108958FB7F894EC912E2B2C938FBF3C
:10021000F6CF1F93CF93DF93182FEB0161E00E947D
:10022000D800209739F460E0812FDF91CF911F91A2
:100230000C948C00CF3FD10511F461E0F5CFE12F94
:10024000F0E0E458FF4FE491E33031F140F4E13065
:10025000B1F0E230E1F0C038D1057CF7E4CFE7300F
:1002600029F1E83059F1E430B1F7809180008062E3
:1002700080938000D0938B00C0938A0004C084B523
:10028000806884BDC7BDDF91CF911F91089584B56B
:10029000806284BDC8BDF7CF809180008068809364
:1002A0008000D0938900C0938800EDCF8091B0008A
:1002B00080688093B000C093B300E5CF8091B00018
:1002C00080628093B000C093B400DDCF8E50806414
:1002D00080937C0080917A00806480937A00809182
:1002E0007A0086FDFCCF8091780090917900089586
:1002F0003FB7F89480918D0290918E02A0918F0269
:10030000B091900226B5A89B05C02F3F19F0019629
:10031000A11DB11D3FBFBA2FA92F982F8827BC015F
:10032000CD01620F711D811D911D42E0660F771F87
:10033000881F991F4A95D1F708958F929F92AF9287
:10034000BF92CF92DF92EF92FF924B015C010E942D
:1003500078016B017C010E9478016C197D098E097E
:100360009F09683E734081059105A8F321E0821A38
:100370009108A108B10888EEC80E83E0D81EE11CE0
:10038000F11C81149104A104B10429F7FF90EF90AE
:10039000DF90CF90BF90AF909F908F900895089579
:1003A00008950895AF92BF92CF92DF92EF92FF929D
:1003B0000F931F93CF93DF936C017B018B01040F8D
:1003C000151FEB015E01AE18BF08C017D10759F029
:1003D0006991D601ED91FC910190F081E02DC6016B
:1003E0000995892B79F7C501DF91CF911F910F9165
:1003F000FF90EF90DF90CF90BF90AF900895FC01F9
:10040000538D448D252F30E0842F90E0821B930B79
:10041000541710F0CF96089501970895FC01918D1F
:10042000828D981761F0A28DAE0FBF2FB11D5D9622
:100430008C91928D9F5F9F73928F90E008958FEFC4
:100440009FEF0895FC01918D828D981731F0828D78
:10045000E80FF11D858D90E008958FEF9FEF0895CF
:10046000FC01918D228D892F90E0805C9F4F821B33
:1004700091098F739927089581E992E00E943002D3
:1004800021E0892B09F420E0822F089580E090E09C
:10049000892B29F00E943C0281110C9400000895E0
:1004A000FC01A48DA80FB92FB11DA35ABF4F2C91E9
:1004B000848D90E001968F739927848FA689B789E0
:1004C0002C93A089B1898C91837080648C93938DD7
:1004D000848D981306C00288F389E02D80818F7D7A
:1004E00080830895EF92FF920F931F93CF93DF9332
:1004F000EC0181E0888F9B8D8C8D98131AC0E88960
:10050000F989808185FF15C09FB7F894EE89FF892E
:100510006083E889F98980818370806480839FBFCC
:1005200081E090E0DF91CF911F910F91FF90EF90CC
:100530000895F62E0B8D10E00F5F1F4F0F731127DC
:10054000E02E8C8D8E110CC00FB607FCFACFE88917
:10055000F989808185FFF5CFCE010E945002F1CF4D
:10056000EB8DEC0FFD2FF11DE35AFF4FF0829FB78B
:10057000F8940B8FEA89FB8980818062CFCFCF937B
:10058000DF93EC01888D8823B9F0AA89BB89E889BB
:10059000F9898C9185FD03C0808186FD0DC00FB661
:1005A00007FCF7CF8C9185FFF2CF808185FFEDCFDF
:1005B000CE010E945002E9CFDF91CF9108952091A2
:1005C0003002260F3327331F21323105ECF42091FE
:1005D0005402FC0190E080E0243069F082E008954C
:1005E000A09130022191AC01405F5D4FA40FB52F67
:1005F000B11D2C930196861798F380913002680FF5
:100600006093300280E0089581E0089510925402D2
:1006100081E0809356021092550261E082E10E94CF
:100620008C0061E083E10E948C00E9EBF0E08081C6
:100630008E7F808380818D7F808388E48093B80063
:1006400085E48093BC000895CF93DF9391E090936D
:100650000F028823B9F0C091B800D091BA00809100
:10066000BC008A7B8093BC0060E082E10E948C0029
:1006700060E083E10E948C000E940603D093BA00E0
:10068000C093B800DF91CF9108950895E091810261
:1006900080918002E81730F4F0E0E651FE4F80814F
:1006A00090E008958FEF9FEF0895909181028091DF
:1006B00080022FEF3FEF981748F4E92FF0E0E65162
:1006C000FE4F208130E09F5F90938102C901089521
:1006D0008091800290918102891B990B0895CF929D
:1006E000DF92EF92FF920F931F93CF93DF937C01E2
:1006F000CB018A012091E901222389F0EB016B01F2
:10070000C40ED51ECC15DD0569F06991D701ED91B8
:10071000FC910190F081E02DC7010995F3CF642F82
:100720000E94DF02C801DF91CF911F910F91FF90CE
:10073000EF90DF90CF900895CF93DF931F92CDB7C6
:10074000DEB769832091E9012223F9F020917E022E
:10075000203258F021E030E0FC013383228390E026
:1007600080E00F90DF91CF91089580917F02E82F74
:10077000F0E0E753FE4F998190838F5F80937F0273
:1007800080937E0281E090E0ECCF61E0CE010196A3
:100790000E94DF02F7CFCF92DF92EF92FF920F938A
:1007A0001F93CF93DF93FC01C48121E02093E901E3
:1007B000C093C80110927F0210927E028385682B3D
:1007C0008EE293E00E949C03D0917E02D13208F029
:1007D00092C00E9478016B017C01809154028111CA
:1007E00065C082E08093540281E0809356028FEFCF
:1007F0008093530210927802D0937702A9ECB1E073
:10080000E7E5F2E080E0D81385C01092790280918C
:100810007902CC0FC82BC0937902809155028130A8
:1008200009F07CC0109255020E9478016B017C0196
:10083000809179028093BB0080910B0290910C0211
:10084000A0910D02B0910E02892B8A2B8B2B99F06F
:100850000E94780100910B0210910C0220910D0270
:1008600030910E026C197D098E099F090617170732
:1008700028073907E0F18091BC0083FDD9CF85ECD2
:100880008093BC000E9478016B017C01809154022E
:10089000823009F445C0809153028F3F61F180910D
:1008A0005302803241F18091530225C080910B02A6
:1008B00090910C02A0910D02B0910E02892B8A2B0F
:1008C0008B2B09F48ACF0E94780100910B021091C2
:1008D0000C0220910D0230910E026C197D098E09D7
:1008E0009F09061717072807390708F076CF809168
:1008F0000A020E94240310927F0210927E0210923C
:10090000E901DF91CF911F910F91FF90EF90DF9060
:10091000CF9008959D9191938F5F75CF85EEB0CF65
:1009200080910B0290910C02A0910D02B0910E02E9
:10093000892B8A2B8B2B09F4A9CF0E947801009177
:100940000B0210910C0220910D0230910E026C19D5
:100950007D098E099F09061717072807390708F030
:1009600095CFC5CF089590E080E00895DC01ED912A
:10097000FD918081ED91FD919081ED91FD916C91C2
:1009800063708E2309F064609F2309F06860E3EDD3
:10099000F4E0E60FF11D659565956D936D917D9180
:1009A0008D919D91099423C01AC012C016C010C029
:1009B0001EC009C014C013C006C019C009C00DC0B4
:1009C00007C00DC014C062507040804090400BC002
:1009D000615070408040904006C06E5F01C06F5F04
:1009E0007F4F8F4F9F4F9E938E937E936E9308956C
:1009F00080913A0390913B030C94B60480913C03A0
:100A000090913D030C94B6040F931F93CF938C01E8
:100A1000C62F0E94CB036C2F6460C8010E94CB03D9
:100A20006C2F6B7FC8010E94CB0383EC90E0019791
:100A3000F1F7CF911F910F9108950F931F93CF93CB
:100A4000DF938C01D62FC42F607F642B0E94040596
:100A500080E1D89FB00111246C2BC801DF91CF91A8
:100A60001F910F910C94040541E00E941D0581E047
:100A700090E00895CF93DF93CDB7DEB728970FB6F8
:100A8000F894DEBF0FBECDBF98E0E6E6F1E0DE01F0
:100A9000119601900D929A95E1F790915203961755
:100AA00008F46FEF262F30E0220F331F41E050E0B3
:100AB0004C0F5D1F240F351FF9016081680F6068BE
:100AC00040E08AE493E028960FB6F894DEBF0FBEAC
:100AD000CDBFDF91CF910C941D058F929F92AF9265
:100AE000BF920F931F93CF93DF93CDB7DEB7A1973C
:100AF0000FB6F894DEBF0FBECDBF19A2423008F486
:100B00004AE08E010F5D1F4F842E912CB12CA12C39
:100B1000A50194010E941F0CE62FB901CA01EA3019
:100B200044F5E05DD801EE938D01232B242B252B7A
:100B300079F790E080E0109769F0FD0101900020C6
:100B4000E9F73197AF014A1B5B0BBD018AE493E0E3
:100B50000E94D201A1960FB6F894DEBF0FBECDBFA2
:100B6000DF91CF911F910F91BF90AF909F908F9089
:100B70000895E95CD7CFCF92DF92EF92FF926C019C
:100B8000990FEE08FF08F7FE16C041E06DE28AE417
:100B900093E00E941D0566277727CB016C197D091C
:100BA0008E099F094AE00E946D050196FF90EF9023
:100BB000DF90CF9008954AE0C701B601FF90EF9013
:100BC000DF90CF900C946D05FC0101900020E9F7B7
:100BD0003197AF01481B590BBC018AE493E00C9498
:100BE000D20185ED8093BC0080910B0290910C02A4
:100BF000A0910D02B0910E020796A11DB11D23E038
:100C0000B695A795979587952A95D1F72091BC0021
:100C100024FD03C010925402089540910B0250919C
:100C20000C0260910D0270910E02452B462B472B52
:100C300069F30097A105B10541F02AE22A95F1F781
:100C400000C00197A109B109E1CF80910A020C947B
:100C500024031F920F920FB60F9211242F933F93EC
:100C60008F939F93AF93BF938091890290918A0253
:100C7000A0918B02B0918C023091880223E0230F67
:100C80002D3758F50196A11DB11D20938802809340
:100C9000890290938A02A0938B02B0938C02809178
:100CA0008D0290918E02A0918F02B09190020196D8
:100CB000A11DB11D80938D0290938E02A0938F028F
:100CC000B0939002BF91AF919F918F913F912F91DF
:100CD0000F900FBE0F901F90189526E8230F0296D5
:100CE000A11DB11DD2CF1F920F920FB60F921124EA
:100CF0002F933F934F935F936F937F938F939F9324
:100D0000AF93BF93EF93FF93E0910201F091030142
:100D10000995FF91EF91BF91AF919F918F917F9135
:100D20006F915F914F913F912F910F900FBE0F9058
:100D30001F9018951F920F920FB60F9211242F93A8
:100D40003F934F935F936F937F938F939F93AF9353
:100D5000BF93EF93FF93E0910001F091010109959A
:100D6000FF91EF91BF91AF919F918F917F916F9183
:100D70005F914F913F912F910F900FBE0F901F9059
:100D800018951F920F920FB60F9211242F933F9335
:100D90004F935F936F937F938F939F93AF93BF9383
:100DA000EF93FF9381E992E00E945002FF91EF914F
:100DB000BF91AF919F918F917F916F915F914F9173
:100DC0003F912F910F900FBE0F901F9018951F927B
:100DD0000F920FB60F9211242F938F939F93EF933F
:100DE000FF93E091A102F091A2028081E091A7021D
:100DF000F091A80282FD1BC090818091AA028F5FB2
:100E00008F732091AB02821741F0E091AA02F0E0CB
:100E1000EF56FD4F958F8093AA02FF91EF919F911E
:100E20008F912F910F900FBE0F901F90189580817A
:100E3000F4CF1F920F920FB60F9211242F933F936E
:100E40004F935F936F937F938F939F93AF93BF93D2
:100E5000EF93FF938091B900887F803609F44AC0F0
:100E6000F0F5883209F4A7C018F5803109F49BC069
:100E7000B8F4882309F4F9C0883009F494C0FF91CC
:100E8000EF91BF91AF919F918F917F916F915F9102
:100E90004F913F912F910F900FBE0F901F9018957B
:100EA000883109F488C0803251F78093530214C00E
:100EB000803409F49DC040F48033B9F38833F9F6E7
:100EC0008093530285ECB0C0803509F485C0883525
:100ED00009F496C0883499F60E94F105D0CF88397C
:100EE00009F48CC038F5883729F050F4883611F0B1
:100EF000803729F683E0809354021092520257C043
:100F0000883809F47BC0803919F0803809F0B7CFF0
:100F100080915202803208F071C0E091520281E06B
:100F20008E0F809352028091BB00F0E0EE5CFD4F8B
:100F300080833DC0803B39F0E0F4803A09F479C009
:100F4000883A09F09CCF84E08093540210923102D9
:100F500010923002E0917C02F0917D02099580911F
:100F6000300281110FC081E0809330021092100294
:100F700009C0803C09F4A6CF883C09F4A3CF883B84
:100F800009F07DCFE091310281E08E0F8093310234
:100F9000F0E0E05FFD4F80818093BB0090913102D3
:100FA0008091300229C0809179028093BB0085EC4A
:100FB0008093BC0064CF909178028091770298175B
:100FC00058F5E091780281E08E0F80937802F0E08E
:100FD000E95AFD4F8081E9CFE091780281E08E0FE0
:100FE000809378028091BB00F0E0E95AFD4F808346
:100FF00090917802809177029817C8F285E8D8CF4F
:10100000E091780281E08E0F809378028091BB009E
:10101000F0E0E95AFD4F80838091560281115CCF48
:1010200081E08093550284EA8093BC0010925402C0
:1010300026CF85EC8093BC0010925402809152021E
:10104000803230F4E0915202F0E0EE5CFD4F10820D
:101050006091520270E0E0917A02F0917B0282E3AB
:1010600092E00995109252020ACF1092530234CFA7
:10107000CF93DF93109294021092930288EE93E044
:10108000A0E0B0E08093950290939602A09397021F
:10109000B093980222E931E03093920220939102BA
:1010A00025EC30E030939E0220939D0224EC30E04A
:1010B0003093A00220939F0220EC30E03093A202F4
:1010C0002093A10221EC30E03093A4022093A302EC
:1010D00022EC30E03093A6022093A50226EC30E00B
:1010E0003093A8022093A7021092AA021092AB029A
:1010F0001092AC021092AD021092310310923003A4
:101100008093320390933303A0933403B093350359
:1011100084EA91E090932F0380932E0310924D0365
:1011200010924C0386EB91E090934B0380934A031B
:1011300087E280934E0380E18093530382E08093A3
:1011400054031092550362E085E00E94D80062E0EB
:1011500086E00E94D800E3EBF0E0E491F0E0EE0FCF
:10116000FF1FEC55FF4FA591B491B0933F03A0939F
:101170003E03E5E9F0E0449140934203E4EBF0E004
:10118000E491F0E0EE0FFF1FEC55FF4FC591D491B5
:10119000D0934103C0934003E6E9F0E0E491E0938B
:1011A0004303109245031092460310924703109296
:1011B00048032BE33FE1C9010197F1F79C91842F8C
:1011C000892391E009F490E08881E82309F0926096
:1011D0009093440310924903DF91CF910895CF93E8
:1011E000DF93CDB7DEB764970FB6F894DEBF0FBEBE
:1011F000CDBF789484B5826084BD84B5816084BDA0
:1012000085B5826085BD85B5816085BD80916E00A4
:10121000816080936E0010928100809181008260D5
:101220008093810080918100816080938100809112
:1012300080008160809380008091B1008460809301
:10124000B1008091B00081608093B00080917A00FD
:10125000846080937A0080917A00826080937A0023
:1012600080917A00816080937A0080917A00806812
:1012700080937A001092C10061E082E00E94D80061
:1012800061E083E00E94D80061E084E00E94D80021
:1012900062E087E00E94D80061E08AE00E94D80006
:1012A00061E08BE00E94D8001092810210928002CF
:1012B00010927F0210927E020E9406038FEC91E052
:1012C00090937D0280937C0280ED91E090937B026D
:1012D00080937A0210924F0380915403823018F069
:1012E00098E090934F038093520362E370E080E0B4
:1012F00090E00E949D01609155038AE493E00E9472
:10130000CB0368EE73E080E090E00E949D0160E313
:101310008AE493E00E9404050BE416E4C8010197F7
:10132000F1F760E38AE493E00E940405C8010197A5
:10133000F1F760E38AE493E00E94040583E592E01C
:101340000197F1F760E28AE493E00E94040560915E
:101350004F03606240E08AE493E00E941D0584E050
:101360008093500340E06CE08AE493E00E941D0506
:1013700040E061E08AE493E00E941D050BE31FE179
:10138000C8010197F1F782E08093510340E066E0E5
:101390008AE493E00E941D0540E062E08AE493E065
:1013A0000E941D05C8010197F1F788E0809355035D
:1013B00060E08AE493E00E94CB0374E0E72E71E0E2
:1013C000F72E10E040E0612F60648AE493E00E9411
:1013D0001D05670128E0C20ED11CF70161917F0154
:1013E0008AE493E00E943405CE14DF04B1F7185F5D
:1013F000103441F7E091A102F091A20282E08083D3
:10140000E0919D02F0919E021082E0919F02F09186
:10141000A0028FE380831092A902E091A502F091CF
:10142000A60286E08083E091A302F091A40280816D
:1014300080618083E091A302F091A40280818860A2
:101440008083E091A302F091A40280818068808370
:10145000E091A302F091A40280818F7D8083882493
:101460008A9463E0962EA12CB12C9E01275F3F4FFA
:101470003A87298780E10E94660140918602509157
:1014800087025C874B879C01241B350B2D5F3F4FE8
:101490002730310510F09C878B8723E333E343E348
:1014A0005FE3609182027091830280918402909147
:1014B00085020E94F80D6B017C01EB85FC85BF0164
:1014C000FF0F880B990B0E94670D2AE939E949E95A
:1014D0005EE30E94F80D9B01AC01C701B6010E94BA
:1014E000510C6B017C01C0928202D0928302E09287
:1014F0008402F092850220E030EC4FE754E40E9431
:10150000BD0C2B013C0120E030E0A901C701B60170
:101510000E94F30D20E030E040E05FE387FD60C112
:10152000C701B6010E94510C0E942F0DA7E0B0E048
:101530009B01AC010E94140CA50194010E94F50BC3
:101540002B8B8901B9018AE00E94090164E070E0F7
:10155000601B710B77FF02C070E060E08BE00E94BF
:10156000090156E5252E51E0352E26E431E03E876F
:101570002D8710E000E00C8B602F617082E00E94EC
:101580008C00A80155954795588B4F87642F617043
:1015900083E00E948C00B8017595679575956795F5
:1015A00084E00E948C008EE00E9466012FE730E00C
:1015B000DC010E94890EA50194010E94F50BF10146
:1015C00080819181B901681B790BCB0177FF03C042
:1015D00091958195910902971CF0F1013183208347
:1015E000F1010190F081E02DFA8BE98B00FF6EC0D4
:1015F000F101329760817181072E000C880B990BE5
:101600000E94670D6B017C01A301920160E070E014
:1016100080E89FE30E94500C9B01AC01C701B6011A
:101620000E94F80D6B017C0129893A89B901330FB9
:10163000880B990B0E94670DA30192010E94F80D7F
:101640009B01AC01C701B6010E94510C0E942F0DF5
:101650006B018F859889880F991FE1E0F0E0EC0F0E
:10166000FD1FE80FF91F20813181A601421B530B9A
:101670009A0157FF03C03195219531092230310578
:101680002CF161E070E06C0F7D1F860F971FFC014D
:10169000D182C082F801EE0FFF1FEE0FFF1FE2594B
:1016A000FE4F22812F876081718161507109606BCB
:1016B00081E992E00E9472026F8581E992E00E94C6
:1016C00072026C2D81E992E00E94720227E030E004
:1016D000A989BA890E94890E2FE730E040E050E0E6
:1016E0000E94F50BC22EE22EF32EED85FE85808141
:1016F0009181E816F90631F48091440190914501F9
:10170000892BE9F0DC88F8E0DF0E60E08D2D0E9487
:101710003A056C2D8AE493E00E94340561E08D2D3A
:101720000E943A058EEB91E00115110511F080EC55
:1017300091E00E94E405ED85FE85F182E0820F5F75
:101740001F4FF2E02F0E311C2D853E852E5F3F4F3F
:101750003E872D870830110509F00DCF60E080E04D
:101760000E943A0582EC91E00E94E40582E090E05C
:101770000E94BB0585EC91E00E94E4056B898AE438
:1017800093E00E94340561E080E00E943A058E01FA
:101790000F5F1F4FF801819191918F010E94BB054E
:1017A00080EC91E00E94E40529853A8520173107F5
:1017B00089F74B855C85509387024093860210928F
:1017C00045011092440160E070E0672B09F452CEAD
:1017D0000E943C02882309F44DCE0E9400004ACEAC
:1017E000C701B6010E94500C9FCE052E97FB1EF438
:1017F00000940E940C0C57FD07D00E941F0C07FCA0
:1018000003D04EF40C940C0C5095409530952195D6
:101810003F4F4F4F5F4F089590958095709561951C
:101820007F4F8F4F9F4F08950E94410CA59F900DB1
:10183000B49F900DA49F800D911D11240895A1E2E5
:101840001A2EAA1BBB1BFD010DC0AA1FBB1FEE1F3A
:10185000FF1FA217B307E407F50720F0A21BB30B85
:10186000E40BF50B661F771F881F991F1A9469F701
:1018700060957095809590959B01AC01BD01CF015D
:101880000895A29FB001B39FC001A39F700D811D59
:101890001124911DB29F700D811D1124911D089579
:1018A0005058BB27AA270E94680C0C94B90D0E94BF
:1018B000AB0D38F00E94B20D20F039F49F3F19F4BF
:1018C00026F40C94A80D0EF4E095E7FB0C94A20D01
:1018D000E92F0E94CA0D58F3BA17620773078407ED
:1018E000950720F079F4A6F50C94EC0D0EF4E09534
:1018F0000B2EBA2FA02D0B01B90190010C01CA01CA
:10190000A0011124FF27591B99F0593F50F4503E74
:1019100068F11A16F040A22F232F342F4427585F66
:10192000F3CF469537952795A795F0405395C9F77E
:101930007EF41F16BA0B620B730B840BBAF0915036
:10194000A1F0FF0FBB1F661F771F881FC2F70EC0D5
:10195000BA0F621F731F841F48F4879577956795A8
:10196000B795F7959E3F08F0B0CF9395880F08F094
:101970009927EE0F9795879508950E94D10C0C94A6
:10198000B90D0E94B20D58F00E94AB0D40F029F441
:101990005F3F29F00C94A20D51110C94ED0D0C94A5
:1019A000A80D0E94CA0D68F39923B1F3552391F352
:1019B000951B550BBB27AA2762177307840738F0BE
:1019C0009F5F5F4F220F331F441FAA1FA9F335D01B
:1019D0000E2E3AF0E0E832D091505040E695001CCF
:1019E000CAF72BD0FE2F29D0660F771F881FBB1F89
:1019F000261737074807AB07B0E809F0BB0B802D67
:101A0000BF01FF2793585F4F3AF09E3F510578F092
:101A10000C94A20D0C94ED0D5F3FE4F3983ED4F3CB
:101A2000869577956795B795F7959F5FC9F7880F66
:101A3000911D9695879597F90895E1E0660F771FB8
:101A4000881FBB1F621773078407BA0720F0621B49
:101A5000730B840BBA0BEE1F88F7E09508950E9474
:101A6000360D6894B1110C94ED0D08950E94D20DBD
:101A700088F09F5798F0B92F9927B751B0F0E1F04F
:101A8000660F771F881F991F1AF0BA95C9F714C0FF
:101A9000B13091F00E94EC0DB1E008950C94EC0D82
:101AA000672F782F8827B85F39F0B93FCCF3869538
:101AB00077956795B395D9F73EF490958095709595
:101AC00061957F4F8F4F9F4F0895E89409C097FB12
:101AD0003EF490958095709561957F4F8F4F9F4F05
:101AE0009923A9F0F92F96E9BB279395F695879549
:101AF00077956795B795F111F8CFFAF4BB0F11F40C
:101B000060FF1BC06F5F7F4F8F4F9F4F16C08823B2
:101B100011F096E911C0772321F09EE8872F762FE8
:101B200005C0662371F096E8862F70E060E02AF029
:101B30009A95660F771F881FDAF7880F9695879515
:101B400097F9089597F99F6780E870E060E008953D
:101B50009FEF80EC089500240A94161617061806C5
:101B60000906089500240A941216130614060506A1
:101B70000895092E0394000C11F4882352F0BB0F32
:101B800040F4BF2B11F460FF04C06F5F7F4F8F4F95
:101B90009F4F089557FD9058440F551F59F05F3FD0
:101BA00071F04795880F97FB991F61F09F3F79F07F
:101BB00087950895121613061406551FF2CF469501
:101BC000F1DF08C0161617061806991FF1CF869583
:101BD0007105610508940895E894BB276627772767
:101BE000CB0197F908950E94650E08F48FEF0895D0
:101BF0000E940B0E0C94B90D0E94AB0D38F00E94A0
:101C0000B20D20F0952311F00C94A20D0C94A80DA8
:101C100011240C94ED0D0E94CA0D70F3959FC1F331
:101C2000950F50E0551F629FF001729FBB27F00D8A
:101C3000B11D639FAA27F00DB11DAA1F649F6627DF
:101C4000B00DA11D661F829F2227B00DA11D621F2E
:101C5000739FB00DA11D621F839FA00D611D221FE8
:101C6000749F3327A00D611D231F849F600D211DCC
:101C7000822F762F6A2F11249F5750409AF0F1F04F
:101C800088234AF0EE0FFF1FBB1F661F771F881FB8
:101C900091505040A9F79E3F510580F00C94A20D41
:101CA0000C94ED0D5F3FE4F3983ED4F38695779561
:101CB0006795B795F795E7959F5FC1F7FE2B880F5E
:101CC000911D9695879597F90895990F0008550FDE
:101CD000AA0BE0E8FEEF16161706E807F907C0F0B2
:101CE00012161306E407F50798F0621B730B840BBA
:101CF000950B39F40A2661F0232B242B252B21F494
:101D000008950A2609F4A140A6958FEF811D811D33
:101D100008950E94410CB7FF0895821B930B08950C
:101D2000EE0FFF1F0590F491E02D0994F894FFCF7A
:101D3000D101D101000000000000001F00000000E0
:101D400000001F0000000000001F00000000000055
:101D50001F0000000000001F0000000000001F0026
:101D600000000000001F0000000000001F00000035
:101D700000000000FFFFFFFFFFFFFFFFFFFFFFFF6F
:101D8000FFFFFFFFFFFFFFFFFFFFFFFFFFFFFFFF63
:101D9000FFFFFFFFFFFF00004000140054000100A0
:101DA0000200010004000200060002000800010019
:101DB0000A00010016000200210002002C000000B1
:101DC00000007202D201FF01BF0230020E022202A5
:101DD000000000009C036F03B30445036803550330
:101DE0004603000000003405D201B304B2042A0007
:081DF0002000434300580000ED
:107E0000112484B714BE81FFF0D085E080938100F7
:107E100082E08093C00088E18093C10086E0809377
:107E2000C20080E18093C4008EE0C9D0259A86E02C
:107E300020E33CEF91E0309385002093840096BBD3
:107E4000B09BFECF1D9AA8958150A9F7CC24DD24C4
:107E500088248394B5E0AB2EA1E19A2EF3E0BF2EE7
:107E6000A2D0813461F49FD0082FAFD0023811F036
:107E7000013811F484E001C083E08DD089C08234E0
:107E800011F484E103C0853419F485E0A6D080C0E4
:107E9000853579F488D0E82EFF2485D0082F10E0AE
:107EA000102F00270E291F29000F111F8ED06801E7
:107EB0006FC0863521F484E090D080E0DECF843638
:107EC00009F040C070D06FD0082F6DD080E0C81688
:107ED00080E7D80618F4F601B7BEE895C0E0D1E017
:107EE00062D089930C17E1F7F0E0CF16F0E7DF06D8
:107EF00018F0F601B7BEE89568D007B600FCFDCFD4
:107F0000A601A0E0B1E02C9130E011968C91119780
:107F100090E0982F8827822B932B1296FA010C0160
:107F200087BEE89511244E5F5F4FF1E0A038BF0790
:107F300051F7F601A7BEE89507B600FCFDCF97BE46
:107F4000E89526C08437B1F42ED02DD0F82E2BD052
:107F50003CD0F601EF2C8F010F5F1F4F84911BD097
:107F6000EA94F801C1F70894C11CD11CFA94CF0C13
:107F7000D11C0EC0853739F428D08EE10CD085E9AC
:107F80000AD08FE07ACF813511F488E018D01DD067
:107F900080E101D065CF982F8091C00085FFFCCF94
:107FA0009093C60008958091C00087FFFCCF809118
:107FB000C00084FD01C0A8958091C6000895E0E648
:107FC000F0E098E1908380830895EDDF803219F02E
:107FD00088E0F5DFFFCF84E1DECF1F93182FE3DFCA
:107FE0001150E9F7F2DF1F91089580E0E8DFEE27F6
:047FF000FF270994CA
:027FFE00040479
:00000001FF
