:020000040000FA
:100000000C9462000C949A060C9473060C948A006B
:100010000C948A000C948A000C948A000C948A0038
:100020000C948A000C948A000C948A000C948A0028
:100030000C948A000C948A000C948A000C948A0018
:100040000C9429060C948A000C94E7060C94C106C3
:100050000C948A000C948A000C948A000C948A00F8
:100060000C9419070C948A0000000000240027005B
:100070002A0000000000250028002B0000000008D6
:10008000000201000003040700000000000000005F
:10009000010204081020408001020408102001021F
:1000A000040810200000000023002600290004049A
:1000B0000404040404040202020202020303030310
:1000C0000303380811241FBECFEFD8E0DEBFCDBF39
:1000D00011E0A0E0B1E0ECEAF7E102C005900D927A
:1000E000A03DB107D9F723E0A0EDB1E001C01D921A
:1000F000AC35B207E1F710E0C2E6D0E004C02197CA
:10010000FE010E94CE0BC136D107C9F70E94EF084D
:100110000C94D40B0C94000090E0FC01E458FF4FC9
:100120002491FC01E057FF4F3491FC01E255FF4F51
:10013000E491EE23C9F0222339F0233001F1A8F431
:10014000213019F1223029F1F0E0EE0FFF1FEE58B7
:10015000FF4FA591B4918FB7F894EC91611126C02F
:1001600030953E233C938FBF08952730A9F0283067
:10017000C9F0243049F7809180008F7D03C08091C1
:1001800080008F7780938000DFCF84B58F7784BD28
:10019000DBCF84B58F7DFBCF8091B0008F778093CC
:1001A000B000D2CF8091B0008F7DF9CF3E2BDACF57
:1001B000CF93DF9390E0FC01E057FF4F24918255ED
:1001C0009F4FFC0184918823D1F090E0880F991F04
:1001D000FC01E859FF4FA591B491FC01EE58FF4F87
:1001E000C591D491623071F49FB7F8943C91822FFD
:1001F000809583238C93E8812E2B28839FBFDF91EA
:10020000CF9108958FB7F894EC912E2B2C938FBF3C
:10021000F6CF1F93CF93DF93182FEB0161E00E947D
:10022000D800209739F460E0812FDF91CF911F91A2
:100230000C948C00CF3FD10511F461E0F5CFE12F94
:10024000F0E0E458FF4FE491E33031F140F4E13065
:10025000B1F0E230E1F0C038D1057CF7E4CFE7300F
:1002600029F1E83059F1E430B1F7809180008062E3
:1002700080938000D0938B00C0938A0004C084B523
:10028000806884BDC7BDDF91CF911F91089584B56B
:10029000806284BDC8BDF7CF809180008068809364
:1002A0008000D0938900C0938800EDCF8091B0008A
:1002B00080688093B000C093B300E5CF8091B00018
:1002C00080628093B000C093B400DDCF8E50806414
:1002D00080937C0080917A00806480937A00809182
:1002E0007A0086FDFCCF8091780090917900089586
:1002F0003FB7F8948091930290919402A091950257
:10030000B091960226B5A89B05C02F3F19F0019623
:10031000A11DB11D3FBFBA2FA92F982F8827BC015F
:10032000CD01620F711D811D911D42E0660F771F87
:10033000881F991F4A95D1F708958F929F92AF9287
:10034000BF92CF92DF92EF92FF924B015C010E942D
:1003500078016B017C010E9478016C197D098E097E
:100360009F09683E734081059105A8F321E0821A38
:100370009108A108B10888EEC80E83E0D81EE11CE0
:10038000F11C81149104A104B10429F7FF90EF90AE
:10039000DF90CF90BF90AF909F908F900895089579
:1003A00008950895AF92BF92CF92DF92EF92FF929D
:1003B0000F931F93CF93DF936C017B018B01040F8D
:1003C000151FEB015E01AE18BF08C017D10759F029
:1003D0006991D601ED91FC910190F081E02DC6016B
:1003E0000995892B79F7C501DF91CF911F910F9165
:1003F000FF90EF90DF90CF90BF90AF900895FC01F9
:10040000538D448D252F30E0842F90E0821B930B79
:10041000541710F0CF96089501970895FC01918D1F
:10042000828D981761F0A28DAE0FBF2FB11D5D9622
:100430008C91928D9F5F9F73928F90E008958FEFC4
:100440009FEF0895FC01918D828D981731F0828D78
:10045000E80FF11D858D90E008958FEF9FEF0895CF
:10046000FC01918D228D892F90E0805C9F4F821B33
:1004700091098F739927089587E992E00E943002CD
:1004800021E0892B09F420E0822F089580E090E09C
:10049000892B29F00E943C0281110C9400000895E0
:1004A000FC01A48DA80FB92FB11DA35ABF4F2C91E9
:1004B000848D90E001968F739927848FA689B789E0
:1004C0002C93A089B1898C91837080648C93938DD7
:1004D000848D981306C00288F389E02D80818F7D7A
:1004E00080830895EF92FF920F931F93CF93DF9332
:1004F000EC0181E0888F9B8D8C8D98131AC0E88960
:10050000F989808185FF15C09FB7F894EE89FF892E
:100510006083E889F98980818370806480839FBFCC
:1005200081E090E0DF91CF911F910F91FF90EF90CC
:100530000895F62E0B8D10E00F5F1F4F0F731127DC
:10054000E02E8C8D8E110CC00FB607FCFACFE88917
:10055000F989808185FFF5CFCE010E945002F1CF4D
:10056000EB8DEC0FFD2FF11DE35AFF4FF0829FB78B
:10057000F8940B8FEA89FB8980818062CFCFCF937B
:10058000DF93EC01888D8823B9F0AA89BB89E889BB
:10059000F9898C9185FD03C0808186FD0DC00FB661
:1005A00007FCF7CF8C9185FFF2CF808185FFEDCFDF
:1005B000CE010E945002E9CFDF91CF9108952091A2
:1005C0003802260F3327331F21323105ECF42091F6
:1005D0005C02FC0190E080E0243069F082E0089544
:1005E000A09138022191AC01485E5D4FA40FB52F58
:1005F000B11D2C930196861798F380913802680FED
:100600006093380280E0089581E0089510925C02C2
:1006100081E080935E0210925D0261E082E10E94BF
:100620008C0061E083E10E948C00E9EBF0E08081C6
:100630008E7F808380818D7F808388E48093B80063
:1006400085E48093BC000895CF93DF9391E090936D
:1006500017028823B9F0C091B800D091BA008091F8
:10066000BC008A7B8093BC0060E082E10E948C0029
:1006700060E083E10E948C000E940603D093BA00E0
:10068000C093B800DF91CF9108950895E091890259
:1006900080918802E81730F4F0E0EE50FE4F808140
:1006A00090E008958FEF9FEF0895909189028091D7
:1006B00088022FEF3FEF981748F4E92FF0E0EE5053
:1006C000FE4F208130E09F5F90938902C901089519
:1006D0008091880290918902891B990B0895CF928D
:1006E000DF92EF92FF920F931F93CF93DF937C01E2
:1006F000CB018A012091F101222389F0EB016B01EA
:10070000C40ED51ECC15DD0569F06991D701ED91B8
:10071000FC910190F081E02DC7010995F3CF642F82
:100720000E94DF02C801DF91CF911F910F91FF90CE
:10073000EF90DF90CF900895CF93DF931F92CDB7C6
:10074000DEB769832091F1012223F9F0209186021E
:10075000203258F021E030E0FC013383228390E026
:1007600080E00F90DF91CF91089580918702E82F6C
:10077000F0E0EF52FE4F998190838F5F8093870264
:100780008093860281E090E0ECCF61E0CE0101969B
:100790000E94DF02F7CFCF92DF92EF92FF920F938A
:1007A0001F93CF93DF93FC01C48121E02093F101DB
:1007B000C093D00110928702109286028385682B25
:1007C00084E393E00E949C03D0918602D13208F02A
:1007D00092C00E9478016B017C0180915C028111C2
:1007E00065C082E080935C0281E080935E028FEFBF
:1007F00080935B0210928002D0937F02A1EDB1E062
:10080000EFE5F2E080E0D81385C01092810280917C
:100810008102CC0FC82BC093810280915D02813090
:1008200009F07CC010925D020E9478016B017C018E
:10083000809181028093BB008091130290911402F9
:10084000A0911502B0911602892B8A2B8B2B99F05F
:100850000E94780100911302109114022091150258
:10086000309116026C197D098E099F09061717072A
:1008700028073907E0F18091BC0083FDD9CF85ECD2
:100880008093BC000E9478016B017C0180915C0226
:10089000823009F445C080915B028F3F61F1809105
:1008A0005B02803241F180915B0225C0809113028E
:1008B00090911402A0911502B0911602892B8A2BF7
:1008C0008B2B09F48ACF0E947801009113021091BA
:1008D000140220911502309116026C197D098E09BF
:1008E0009F09061717072807390708F076CF809168
:1008F00012020E9424031092870210928602109224
:10090000F101DF91CF911F910F91FF90EF90DF9058
:10091000CF9008959D9191938F5F75CF85EEB0CF65
:100920008091130290911402A0911502B0911602C9
:10093000892B8A2B8B2B09F4A9CF0E947801009177
:1009400013021091140220911502309116026C19B5
:100950007D098E099F09061717072807390708F030
:1009600095CFC5CF089590E080E00895DC01ED912A
:10097000FD918081ED91FD919081ED91FD916C91C2
:1009800063708E2309F064609F2309F06860E3EDD3
:10099000F4E0E60FF11D659565956D936D917D9180
:1009A0008D919D91099423C01AC012C016C010C029
:1009B0001EC009C014C013C006C019C009C00DC0B4
:1009C00007C00DC014C062507040804090400BC002
:1009D000615070408040904006C06E5F01C06F5F04
:1009E0007F4F8F4F9F4F9E938E937E936E9308956C
:1009F00080914003909141030C94B604809142038E
:100A0000909143030C94B6040F931F93CF938C01E2
:100A1000C62F0E94CB036C2F6460C8010E94CB03D9
:100A20006C2F6B7FC8010E94CB0383EC90E0019791
:100A3000F1F7CF911F910F9108950F931F93CF93CB
:100A4000DF938C01D62FC42F607F642B0E94040596
:100A500080E1D89FB00111246C2BC801DF91CF91A8
:100A60001F910F910C94040541E00E941D0581E047
:100A700090E00895CF93DF93CDB7DEB728970FB6F8
:100A8000F894DEBF0FBECDBF98E0EEE6F1E0DE01E8
:100A9000119601900D929A95E1F79091580396174F
:100AA00008F46FEF262F30E0220F331F41E050E0B3
:100AB0004C0F5D1F240F351FF9016081680F6068BE
:100AC00040E080E593E028960FB6F894DEBF0FBEB5
:100AD000CDBFDF91CF910C941D058F929F92AF9265
:100AE000BF920F931F93CF93DF93CDB7DEB7A1973C
:100AF0000FB6F894DEBF0FBECDBF19A2423008F486
:100B00004AE08E010F5D1F4F842E912CB12CA12C39
:100B1000A50194010E94960BE62FB901CA01EA30A3
:100B200044F5E05DD801EE938D01232B242B252B7A
:100B300079F790E080E0109769F0FD0101900020C6
:100B4000E9F73197AF014A1B5B0BBD0180E593E0EC
:100B50000E94D201A1960FB6F894DEBF0FBECDBFA2
:100B6000DF91CF911F910F91BF90AF909F908F9089
:100B70000895E95CD7CFCF92DF92EF92FF926C019C
:100B8000990FEE08FF08F7FE16C041E06DE280E520
:100B900093E00E941D0566277727CB016C197D091C
:100BA0008E099F094AE00E946D050196FF90EF9023
:100BB000DF90CF9008954AE0C701B601FF90EF9013
:100BC000DF90CF900C946D05FC0101900020E9F7B7
:100BD0003197AF01481B590BBC0180E593E00C94A1
:100BE000D20185ED8093BC00809113029091140294
:100BF000A0911502B09116020796A11DB11D23E028
:100C0000B695A795979587952A95D1F72091BC0021
:100C100024FD03C010925C0208954091130250918C
:100C200014026091150270911602452B462B472B3A
:100C300069F30097A105B10541F02AE22A95F1F781
:100C400000C00197A109B109E1CF809112020C9473
:100C500024031F920F920FB60F9211242F933F93EC
:100C60008F939F93AF93BF9380918F029091900247
:100C7000A0919102B091920230918E0223E0230F55
:100C80002D3758F50196A11DB11D20938E0280933A
:100C90008F0290939002A0939102B0939202809160
:100CA000930290919402A0919502B09196020196C0
:100CB000A11DB11D8093930290939402A09395027D
:100CC000B0939602BF91AF919F918F913F912F91D9
:100CD0000F900FBE0F901F90189526E8230F0296D5
:100CE000A11DB11DD2CF1F920F920FB60F921124EA
:100CF0002F933F934F935F936F937F938F939F9324
:100D0000AF93BF93EF93FF93E0910201F091030142
:100D10000995FF91EF91BF91AF919F918F917F9135
:100D20006F915F914F913F912F910F900FBE0F9058
:100D30001F9018951F920F920FB60F9211242F93A8
:100D40003F934F935F936F937F938F939F93AF9353
:100D5000BF93EF93FF93E0910001F091010109959A
:100D6000FF91EF91BF91AF919F918F917F916F9183
:100D70005F914F913F912F910F900FBE0F901F9059
:100D800018951F920F920FB60F9211242F933F9335
:100D90004F935F936F937F938F939F93AF93BF9383
:100DA000EF93FF9387E992E00E945002FF91EF9149
:100DB000BF91AF919F918F917F916F915F914F9173
:100DC0003F912F910F900FBE0F901F9018951F927B
:100DD0000F920FB60F9211242F938F939F93EF933F
:100DE000FF93E091A702F091A8028081E091AD020B
:100DF000F091AE0282FD1BC090818091B0028F5FA6
:100E00008F732091B102821741F0E091B002F0E0BF
:100E1000E956FD4F958F8093B002FF91EF919F911E
:100E20008F912F910F900FBE0F901F90189580817A
:100E3000F4CF1F920F920FB60F9211242F933F936E
:100E40004F935F936F937F938F939F93AF93BF93D2
:100E5000EF93FF938091B900887F803609F44AC0F0
:100E6000F0F5883209F4A7C018F5803109F49BC069
:100E7000B8F4882309F4F9C0883009F494C0FF91CC
:100E8000EF91BF91AF919F918F917F916F915F9102
:100E90004F913F912F910F900FBE0F901F9018957B
:100EA000883109F488C0803251F780935B0214C006
:100EB000803409F49DC040F48033B9F38833F9F6E7
:100EC00080935B0285ECB0C0803509F485C088351D
:100ED00009F496C0883499F60E94F105D0CF88397C
:100EE00009F48CC038F5883729F050F4883611F0B1
:100EF000803729F683E080935C0210925A0257C033
:100F0000883809F47BC0803919F0803809F0B7CFF0
:100F100080915A02803208F071C0E0915A0281E05B
:100F20008E0F80935A028091BB00F0E0E65CFD4F8B
:100F300080833DC0803B39F0E0F4803A09F479C009
:100F4000883A09F09CCF84E080935C0210923902C9
:100F500010923802E0918402F09185020995809107
:100F6000380281110FC081E080933802109218027C
:100F700009C0803C09F4A6CF883C09F4A3CF883B84
:100F800009F07DCFE091390281E08E0F8093390224
:100F9000F0E0E85EFD4F80818093BB0090913902C4
:100FA0008091380229C0809181028093BB0085EC3A
:100FB0008093BC0064CF9091800280917F0298174B
:100FC00058F5E091800281E08E0F80938002F0E07E
:100FD000E15AFD4F8081E9CFE091800281E08E0FE0
:100FE000809380028091BB00F0E0E15AFD4F808346
:100FF0009091800280917F029817C8F285E8D8CF3F
:10100000E091800281E08E0F809380028091BB008E
:10101000F0E0E15AFD4F808380915E0281115CCF48
:1010200081E080935D0284EA8093BC0010925C02B0
:1010300026CF85EC8093BC0010925C0280915A020E
:10104000803230F4E0915A02F0E0E65CFD4F10820D
:1010500060915A0270E0E0918202F09183028AE38B
:1010600092E0099510925A020ACF10925B0234CF97
:10107000CF93DF9310929A021092990288EE93E038
:10108000A0E0B0E080939B0290939C02A0939D020D
:10109000B0939E022AE931E03093980220939702A0
:1010A00025EC30E03093A4022093A30224EC30E03E
:1010B0003093A6022093A50220EC30E03093A802E2
:1010C0002093A70221EC30E03093AA022093A902DA
:1010D00022EC30E03093AC022093AB0226EC30E0FF
:1010E0003093AE022093AD021092B0021092B10282
:1010F0001092B2021092B30210923703109236038C
:101100008093380390933903A0933A03B0933B0341
:101110008CEA91E09093350380933403109253034B
:10112000109252038EEB91E0909351038093500301
:1011300087E28093540380E18093590382E0809397
:101140005A0310925B0362E085E00E94D80062E0DF
:1011500086E00E94D800E3EBF0E0E491F0E0EE0FCF
:10116000FF1FEC55FF4FA591B491B0934503A09399
:101170004403E5E9F0E0449140934803E4EBF0E0F8
:10118000E491F0E0EE0FFF1FEC55FF4FC591D491B5
:10119000D0934703C0934603E6E9F0E0E491E0937F
:1011A000490310924B0310924C0310924D0310927E
:1011B0004E032BE33FE1C9010197F1F79C91842F86
:1011C000892391E009F490E08881E82309F0926096
:1011D00090934A0310924F03DF91CF910895CF93DC
:1011E000DF9300D000D0CDB7DEB7789484B58260AD
:1011F00084BD84B5816084BD85B5826085BD85B5BB
:10120000816085BD80916E00816080936E00109238
:1012100081008091810082608093810080918100B3
:101220008160809381008091800081608093800044
:101230008091B10084608093B1008091B0008160A2
:101240008093B00080917A00846080937A008091CE
:101250007A00826080937A0080917A008160809326
:101260007A0080917A00806880937A001092C100A1
:1012700061E082E00E94D80061E083E00E94D80033
:1012800061E084E00E94D80062E087E00E94D8001C
:1012900061E08AE00E94D80061E08BE00E94D80003
:1012A0001092890210928802109287021092860290
:1012B0000E9406038FEC91E0909385028093840254
:1012C00080ED91E090938302809382021092550307
:1012D00080915A03823018F098E0909355038093E0
:1012E000580362E370E080E090E00E949D0160910D
:1012F0005B0380E593E00E94CB0368EE73E080E03F
:1013000090E00E949D0160E380E593E00E94040567
:101310008BE496E40197F1F760E380E593E00E94A7
:1013200004052BE436E4C9010197F1F760E380E599
:1013300093E00E94040583E592E00197F1F760E2F3
:1013400080E593E00E94040560915503606240E0EF
:1013500080E593E00E941D0584E08093560340E001
:101360006CE080E593E00E941D0540E061E080E5CF
:1013700093E00E941D058BE39FE10197F1F782E066
:101380008093570340E066E080E593E00E941D05EE
:1013900040E062E080E593E00E941D05EBE3FFE1A1
:1013A0003197F1F788E080935B0360E080E593E09C
:1013B0000E94CB0304E011E0198240E0698160647F
:1013C00080E593E00E941D057801F8E0EF0EF11C26
:1013D000F80161918F0180E593E00E943405E016E9
:1013E000F106B1F7F981F85FF983F03431F7E09154
:1013F000A702F091A80282E08083E091A302F0911D
:10140000A4021082E091A502F091A6028FE38083EE
:101410001092AF02E091AB02F091AC0286E08083C3
:10142000E091A902F091AA02808180618083E0911D
:10143000A902F091AA02808188608083E091A902CC
:10144000F091AA02808180688083E091A902F091E6
:10145000AA0280818F7D808344244A9473E0572EB2
:10146000612C712C80E10E9466014C01A0918C02DC
:10147000B0918D0227E030E00E94C70BA3019201DA
:101480000E94770B29832B833C836B817C818AE0CC
:101490000E94090164E070E02B813C81621B730BA8
:1014A00077FF02C070E060E08BE00E94090180914C
:1014B0008A0290918B028816990621F090928D02F3
:1014C00080928C025EE5C52E51E0D52E66E4262E74
:1014D00061E0362E1C821B823B813A83632F617050
:1014E00082E00E948C00EB80FC80F594E7946E2DE6
:1014F000617083E00E948C006B817C81759567959B
:101500007595679584E00E948C008EE00E946601CC
:101510002FE730E0DC010E94C70BA30192010E947B
:10152000770BF60180819181B901681B790BCB01A2
:1015300077FF03C091958195910902971CF0F60100
:1015400031832083F601A080B180FB81F0FF41C090
:10155000F6013297008111810A0D1B1D17FF02C091
:101560000F5F1F4F15950795C701880F991FFC0145
:10157000EA5AFE4F20813181A801421B530B9A0188
:1015800057FF03C0319521953109223031050CF107
:101590008A5A9E4FFC0111830083EB81FC81EE0F80
:1015A000FF1FEE0FFF1FEA58FE4F1281608171810D
:1015B00061507109606B87E992E00E947202612FAD
:1015C00087E992E00E947202602F87E992E00E9410
:1015D000720227E030E0D5010E94C70B2FE730E010
:1015E00040E050E00E94770BE22E022F132FF10112
:1015F000808191810817190731F4809144019091FD
:101600004501892BE9F0FA80F8E0FF0E60E08F2DAC
:101610000E943A056E2D80E593E00E94340561E05A
:101620008F2D0E943A052B813C8186EC91E0232B83
:1016300011F088EC91E00E94E405F1011183008330
:101640002B813C812F5F3F4F3C832B8332E0C30EC5
:10165000D11C42E0240E311C6B817C816830710505
:1016600009F03ACF60E080E00E943A058AEC91E010
:101670000E94E40582E090E00E94BB058DEC91E0C1
:101680000E94E405698180E593E00E94340561E0F1
:1016900080E00E943A0586E591E09C838B83EEE52D
:1016A000F1E02B813C81E217F30761F0F9018191B0
:1016B0009191FC83EB830E94BB0588EC91E00E9432
:1016C000E405EDCF90928B0280928A021092450140
:1016D0001092440120E030E0232B09F4C3CE0E9495
:1016E0003C02882309F4BECE0E940000BBCE052E2A
:1016F00097FB1EF400940E948E0B57FD07D00E94AA
:10170000960B07FC03D04EF40C948E0B509540952D
:10171000309521953F4F4F4F5F4F0895909580959D
:10172000709561957F4F8F4F9F4F0895A1E21A2EBC
:10173000AA1BBB1BFD010DC0AA1FBB1FEE1FFF1F75
:10174000A217B307E407F50720F0A21BB30BE40BC5
:10175000F50B661F771F881F991F1A9469F760950C
:101760007095809590959B01AC01BD01CF010895C6
:10177000A29FB001B39FC001A39F700D811D1124D2
:10178000911DB29F700D811D1124911D08950E941D
:10179000B80BB7FF0895821B930B0895EE0FFF1F40
:1017A0000590F491E02D0994F894FFCFD101D10177
:1017B000000000000000001F0000000000001F00EB
:1017C00000000000001F0000000000001F000000DB
:1017D0000000001F0000000000001F0000000000CB
:1017E000001F0000000000001F00000000000000BB
:1017F000FFFFFFFFFFFFFFFFFFFFFFFFFFFFFFFFF9
:10180000FFFFFFFFFFFFFFFFFFFFFFFFFFFFFFFFE8
:10181000FFFFFFFFFFFFFFFFFFFF0000400014007E
:101820005400010002000100040002000600020052
:10183000080001000A000100160002002100020059
:101840002C00000000007202D201FF01BF02300232
:101850000E022202000000009C036F03B304450344
:10186000680355034603000000003405D201B304A9
:0C187000B2042A0020004343005800008E
:107E0000112484B714BE81FFF0D085E080938100F7
:107E100082E08093C00088E18093C10086E0809377
:107E2000C20080E18093C4008EE0C9D0259A86E02C
:107E300020E33CEF91E0309385002093840096BBD3
:107E4000B09BFECF1D9AA8958150A9F7CC24DD24C4
:107E500088248394B5E0AB2EA1E19A2EF3E0BF2EE7
:107E6000A2D0813461F49FD0082FAFD0023811F036
:107E7000013811F484E001C083E08DD089C08234E0
:107E800011F484E103C0853419F485E0A6D080C0E4
:107E9000853579F488D0E82EFF2485D0082F10E0AE
:107EA000102F00270E291F29000F111F8ED06801E7
:107EB0006FC0863521F484E090D080E0DECF843638
:107EC00009F040C070D06FD0082F6DD080E0C81688
:107ED00080E7D80618F4F601B7BEE895C0E0D1E017
:107EE00062D089930C17E1F7F0E0CF16F0E7DF06D8
:107EF00018F0F601B7BEE89568D007B600FCFDCFD4
:107F0000A601A0E0B1E02C9130E011968C91119780
:107F100090E0982F8827822B932B1296FA010C0160
:107F200087BEE89511244E5F5F4FF1E0A038BF0790
:107F300051F7F601A7BEE89507B600FCFDCF97BE46
:107F4000E89526C08437B1F42ED02DD0F82E2BD052
:107F50003CD0F601EF2C8F010F5F1F4F84911BD097
:107F6000EA94F801C1F70894C11CD11CFA94CF0C13
:107F7000D11C0EC0853739F428D08EE10CD085E9AC
:107F80000AD08FE07ACF813511F488E018D01DD067
:107F900080E101D065CF982F8091C00085FFFCCF94
:107FA0009093C60008958091C00087FFFCCF809118
:107FB000C00084FD01C0A8958091C6000895E0E648
:107FC000F0E098E1908380830895EDDF803219F02E
:107FD00088E0F5DFFFCF84E1DECF1F93182FE3DFCA
:107FE0001150E9F7F2DF1F91089580E0E8DFEE27F6
:047FF000FF270994CA
:027FFE00040479
:00000001FF
