:020000040000FA
:100000000C9482000C949C060C9475060C94AA0027
:100010000C94AA000C94AA000C94AA000C94AA00B8
:100020000C94AA000C94AA000C94AA000C94AA00A8
:100030000C94AA000C94AA000C94AA000C94AA0098
:100040000C942B060C94AA000C94E9060C94C3069D
:100050000C94AA000C94AA000C94AA000C94AA0078
:100060000C941B070C94AA00000000000000001F65
:100070000000000000001F0000000000001F000042
:10008000000000001F0000000000001F0000000032
:1000900000001F0000000000001F00000000000022
:1000A0001F000000000000000000000024002700E6
:1000B0002A0000000000250028002B000000000896
:1000C000000201000003040700000000000000001F
:1000D00001020408102040800102040810200102DF
:1000E000040810200000000023002600290004045A
:1000F00004040404040402020202020203030303D0
:1001000003033A0811241FBECFEFD8E0DEBFCDBFF6
:1001100011E0A0E0B1E0E4E4FFE102C005900D923F
:10012000AC36B107D9F723E0ACE6B1E001C01D92CF
:10013000A430B207E1F710E0C2E8D0E004C0219794
:10014000FE010E949A0FC138D107C9F70E94F10839
:100150000C94A00F0C940000833081F028F48130BF
:1001600099F08230A9F008958730A9F08830C9F05D
:100170008430B1F4809180008F7D03C08091800035
:100180008F7780938000089584B58F7784BD08951C
:1001900084B58F7DFBCF8091B0008F778093B000C6
:1001A00008958091B0008F7DF9CF1F93CF93DF9397
:1001B000282F30E0F901E454FF4F8491F901E05316
:1001C000FF4FD491F901E251FF4FC491CC23A9F024
:1001D000162F81110E94AC00EC2FF0E0EE0FFF1FF4
:1001E000EE54FF4FA591B4918FB7F894EC91111193
:1001F00008C0D095DE23DC938FBFDF91CF911F9194
:100200000895DE2BF8CFCF93DF9390E0FC01E0530D
:10021000FF4F249182519F4FFC0184918823D1F09C
:1002200090E0880F991FFC01E855FF4FA591B4910C
:10023000FC01EE54FF4FC591D491623071F49FB729
:10024000F8943C91822F809583238C93E8812E2B08
:1002500028839FBFDF91CF9108958FB7F894EC91D9
:100260002E2B2C938FBFF6CF1F93CF93DF93182F96
:10027000EB0161E00E940301209739F460E0812FD7
:10028000DF91CF911F910C94D500CF3FD10511F490
:1002900061E0F5CFE12FF0E0E454FF4FE491E3306B
:1002A00031F140F4E130B1F0E230E1F0C038D10595
:1002B0007CF7E4CFE73029F1E83059F1E430B1F7C9
:1002C00080918000806280938000D0938B00C093E7
:1002D0008A0004C084B5806884BDC7BDDF91CF911A
:1002E0001F91089584B5806284BDC8BDF7CF809109
:1002F0008000806880938000D0938900C09388003C
:10030000EDCF8091B00080688093B000C093B300BF
:10031000E5CF8091B00080628093B000C093B400BC
:10032000DDCF8E50806480937C0080917A00806461
:1003300080937A0080917A0086FDFCCF80917800CE
:100340009091790008953FB7F89480913B02909185
:100350003C02A0913D02B0913E0226B5A89B05C08B
:100360002F3F19F00196A11DB11D3FBFBA2FA92F34
:10037000982F8827BC01CD01620F711D811D911D31
:1003800042E0660F771F881F991F4A95D1F708959D
:100390008F929F92AF92BF92CF92DF92EF92FF9295
:1003A0004B015C010E94A3016B017C010E94A3012F
:1003B0006C197D098E099F09683E7340810591057E
:1003C000A8F321E0821A9108A108B10888EEC80EAE
:1003D00083E0D81EE11CF11C81149104A104B10436
:1003E00029F7FF90EF90DF90CF90BF90AF909F9054
:1003F0008F900895089508950895AF92BF92CF9277
:10040000DF92EF92FF920F931F93CF93DF936C01D4
:100410007B018B01040F151FEB015E01AE18BF08B5
:10042000C017D10759F06991D601ED91FC91019067
:10043000F081E02DC6010995892B79F7C501DF917F
:10044000CF911F910F91FF90EF90DF90CF90BF90D1
:10045000AF900895FC01538D448D252F30E0842FFB
:1004600090E0821B930B541710F0CF9608950197DC
:100470000895FC01918D828D981761F0A28DAE0FC9
:10048000BF2FB11D5D968C91928D9F5F9F73928F50
:1004900090E008958FEF9FEF0895FC01918D828D7C
:1004A000981731F0828DE80FF11D858D90E0089549
:1004B0008FEF9FEF0895FC01918D228D892F90E0A1
:1004C000805C9F4F821B91098F73992708958FE35A
:1004D00092E00E945B0221E0892B09F420E0822F48
:1004E000089580E090E0892B29F00E946702811135
:1004F0000C9400000895FC01A48DA80FB92FB11D24
:10050000A35ABF4F2C91848D90E001968F73992749
:10051000848FA689B7892C93A089B1898C91837027
:1005200080648C93938D848D981306C00288F38920
:10053000E02D80818F7D80830895EF92FF920F934D
:100540001F93CF93DF93EC0181E0888F9B8D8C8D7F
:1005500098131AC0E889F989808185FF15C09FB773
:10056000F894EE89FF896083E889F9898081837036
:10057000806480839FBF81E090E0DF91CF911F91E5
:100580000F91FF90EF900895F62E0B8D10E00F5F06
:100590001F4F0F731127E02E8C8D8E110CC00FB6DC
:1005A00007FCFACFE889F989808185FFF5CFCE0174
:1005B0000E947B02F1CFEB8DEC0FFD2FF11DE35A72
:1005C000FF4FF0829FB7F8940B8FEA89FB898081F7
:1005D0008062CFCFCF93DF93EC01888D8823B9F071
:1005E000AA89BB89E889F9898C9185FD03C080813E
:1005F00086FD0DC00FB607FCF7CF8C9185FFF2CFBB
:10060000808185FFEDCFCE010E947B02E9CFDF9193
:10061000CF9108952091D401260F3327331F213223
:100620003105ECF42091F801FC0190E080E02430E9
:1006300069F082E00895A091D4012191AC014C545D
:100640005E4FA40FB52FB11D2C930196861798F31A
:100650008091D401680F6093D40180E0089581E017
:1006600008951092F80181E08093FA011092F90147
:1006700061E082E10E94D50061E083E10E94D50043
:10068000E9EBF0E080818E7F808380818D7F8083A5
:1006900088E48093B80085E48093BC000895CF93EC
:1006A000DF9391E09093B3018823B9F0C091B80033
:1006B000D091BA008091BC008A7B8093BC0060E03E
:1006C00082E10E94D50060E083E10E94D5000E9493
:1006D0003103D093BA00C093B800DF91CF91089551
:1006E0000895E091250280912402E81730F4F0E0AB
:1006F000E257FE4F808190E008958FEF9FEF0895BD
:1007000090912502809124022FEF3FEF981748F433
:10071000E92FF0E0E257FE4F208130E09F5F909399
:100720002502C90108958091240290912502891B18
:10073000990B0895CF92DF92EF92FF920F931F9340
:10074000CF93DF937C01CB018A0120918D0122237D
:1007500089F0EB016B01C40ED51ECC15DD0569F0E7
:100760006991D701ED91FC910190F081E02DC701D5
:100770000995F3CF642F0E940A03C801DF91CF913E
:100780001F910F91FF90EF90DF90CF900895CF933E
:10079000DF931F92CDB7DEB7698320918D012223AD
:1007A000F9F020912202203258F021E030E0FC01E3
:1007B0003383228390E080E00F90DF91CF91089502
:1007C00080912302E82FF0E0E359FE4F9981908356
:1007D0008F5F809323028093220281E090E0ECCF30
:1007E00061E0CE0101960E940A03F7CFCF92DF921B
:1007F000EF92FF920F931F93CF93DF93FC01C4817D
:1008000021E020938D01C0936C011092230210927D
:1008100022028385682B8CED92E00E94C703D09161
:100820002202D13208F092C00E94A3016B017C0128
:100830008091F801811165C082E08093F80181E028
:100840008093FA018FEF8093F70110921C02D093EE
:100850001B02ADE6B1E0EBEFF1E080E0D81385C01C
:1008600010921D0280911D02CC0FC82BC0931D0257
:100870008091F901813009F07CC01092F9010E9449
:10088000A3016B017C0180911D028093BB008091CC
:10089000AF019091B001A091B101B091B201892B4B
:1008A0008A2B8B2B99F00E94A3010091AF0110912C
:1008B000B0012091B1013091B2016C197D098E090E
:1008C0009F090617170728073907E0F18091BC0038
:1008D00083FDD9CF85EC8093BC000E94A3016B01FE
:1008E0007C018091F801823009F445C08091F701C4
:1008F0008F3F61F18091F701803241F18091F701E2
:1009000025C08091AF019091B001A091B101B0914B
:10091000B201892B8A2B8B2B09F48ACF0E94A30169
:100920000091AF011091B0012091B1013091B2015D
:100930006C197D098E099F090617170728073907C3
:1009400008F076CF8091AE010E944F0310922302EF
:100950001092220210928D01DF91CF911F910F9181
:10096000FF90EF90DF90CF9008959D9191938F5FCE
:1009700075CF85EEB0CF8091AF019091B001A0917D
:10098000B101B091B201892B8A2B8B2B09F4A9CF2D
:100990000E94A3010091AF011091B0012091B1011B
:1009A0003091B2016C197D098E099F09061717074E
:1009B0002807390708F095CFC5CF089590E080E06B
:1009C0000895DC01ED91FD918081ED91FD91908183
:1009D000ED91FD916C9163708E2309F064609F230B
:1009E00009F06860EEEFF4E0E60FF11D659565959E
:1009F0006D936D917D918D919D91099423C01AC045
:100A000012C016C010C01EC009C014C013C006C05A
:100A100019C009C00DC007C00DC014C0625070409D
:100A2000804090400BC0615070408040904006C0B4
:100A30006E5F01C06F5F7F4F8F4F9F4F9E938E936E
:100A40007E936E9308958091E8029091E9020C9450
:100A5000E1048091EA029091EB020C94E1040F937F
:100A60001F93CF938C01C62F0E94F6036C2F6460F6
:100A7000C8010E94F6036C2F6B7FC8010E94F60329
:100A800083EC90E00197F1F7CF911F910F910895BA
:100A90000F931F93CF93DF938C01D62FC42F607FCA
:100AA000642B0E942F0580E1D89FB00111246C2B8C
:100AB000C801DF91CF911F910F910C942F05CF9317
:100AC000DF93CDB7DEB728970FB6F894DEBF0FBE21
:100AD000CDBF98E0E9E2F1E0DE01119601900D92C0
:100AE0009A95E1F790910003961708F46FEF262F7F
:100AF00030E0220F331F41E050E04C0F5D1F240F08
:100B0000351FF9016081680F606840E088EF92E06E
:100B100028960FB6F894DEBF0FBECDBFDF91CF9100
:100B20000C94480541E00E94480581E090E008955A
:100B30008F929F92AF92BF920F931F93CF93DF93A9
:100B4000CDB7DEB7A1970FB6F894DEBF0FBECDBF0D
:100B500019A2423008F44AE08E010F5D1F4F842E27
:100B6000912CB12CA12CA50194010E94290DE62FF6
:100B7000B901CA01EA3044F5E05DD801EE938D0178
:100B8000232B242B252B79F790E080E0109769F038
:100B9000FD0101900020E9F73197AF014A1B5B0B83
:100BA000BD0188EF92E00E94FD01A1960FB6F89476
:100BB000DEBF0FBECDBFDF91CF911F910F91BF90D0
:100BC000AF909F908F900895E95CD7CFFC01019082
:100BD0000020E9F73197AF01481B590BBC0188EFA2
:100BE00092E00C94FD0185ED8093BC008091AF01F3
:100BF0009091B001A091B101B091B2010796A11DF1
:100C0000B11D23E0B695A795979587952A95D1F7BD
:100C10002091BC0024FD03C01092F801089540917A
:100C2000AF015091B0016091B1017091B201452BBB
:100C3000462B472B69F30097A105B10541F02AE245
:100C40002A95F1F700C00197A109B109E1CF809180
:100C5000AE010C944F031F920F920FB60F92112406
:100C60002F933F938F939F93AF93BF9380913702BE
:100C700090913802A0913902B0913A023091360237
:100C800023E0230F2D3758F50196A11DB11D2093A8
:100C900036028093370290933802A0933902B093C2
:100CA0003A0280913B0290913C02A0913D02B091AA
:100CB0003E020196A11DB11D80933B0290933C0220
:100CC000A0933D02B0933E02BF91AF919F918F914F
:100CD0003F912F910F900FBE0F901F90189526E80F
:100CE000230F0296A11DB11DD2CF1F920F920FB6F6
:100CF0000F9211242F933F934F935F936F937F93A2
:100D00008F939F93AF93BF93EF93FF93E091020173
:100D1000F09103010995FF91EF91BF91AF919F91E0
:100D20008F917F916F915F914F913F912F910F9094
:100D30000FBE0F901F9018951F920F920FB60F9233
:100D400011242F933F934F935F936F937F938F93D0
:100D50009F93AF93BF93EF93FF93E0910001F091C6
:100D600001010995FF91EF91BF91AF919F918F91F3
:100D70007F916F915F914F913F912F910F900FBE97
:100D80000F901F9018951F920F920FB60F9211247B
:100D90002F933F934F935F936F937F938F939F9383
:100DA000AF93BF93EF93FF938FE392E00E947B0298
:100DB000FF91EF91BF91AF919F918F917F916F9133
:100DC0005F914F913F912F910F900FBE0F901F9009
:100DD00018951F920F920FB60F9211242F938F9395
:100DE0009F93EF93FF93E0914F02F0915002808127
:100DF000E0915502F091560282FD1BC090818091D6
:100E000058028F5F8F7320915902821741F0E09151
:100E10005802F0E0E15CFD4F958F80935802FF91FE
:100E2000EF919F918F912F910F900FBE0F901F9078
:100E300018958081F4CF1F920F920FB60F92112454
:100E40002F933F934F935F936F937F938F939F93D2
:100E5000AF93BF93EF93FF938091B900887F803663
:100E600009F44AC0F0F5883209F4A7C018F58031BA
:100E700009F49BC0B8F4882309F4F9C0883009F458
:100E800094C0FF91EF91BF91AF919F918F917F910E
:100E90006F915F914F913F912F910F900FBE0F90E7
:100EA0001F901895883109F488C0803251F78093DB
:100EB000F70114C0803409F49DC040F48033B9F3C5
:100EC0008833F9F68093F70185ECB0C0803509F4DA
:100ED00085C0883509F496C0883499F60E94F305D8
:100EE000D0CF883909F48CC038F5883729F050F410
:100EF000883611F0803729F683E08093F80110924C
:100F0000F60157C0883809F47BC0803919F0803861
:100F100009F0B7CF8091F601803208F071C0E091FE
:100F2000F60181E08E0F8093F6018091BB00F0E026
:100F3000EA52FE4F80833DC0803B39F0E0F4803AB6
:100F400009F479C0883A09F09CCF84E08093F801D5
:100F50001092D5011092D401E0912002F09121026B
:100F600009958091D40181110FC081E08093D40153
:100F70001092B40109C0803C09F4A6CF883C09F462
:100F8000A3CF883B09F07DCFE091D50181E08E0FA2
:100F90008093D501F0E0EC54FE4F80818093BB003C
:100FA0009091D5018091D40129C080911D02809338
:100FB000BB0085EC8093BC0064CF90911C028091B3
:100FC0001B02981758F5E0911C0281E08E0F809368
:100FD0001C02F0E0E550FE4F8081E9CFE0911C0259
:100FE00081E08E0F80931C028091BB00F0E0E55001
:100FF000FE4F808390911C0280911B029817C8F2CB
:1010000085E8D8CFE0911C0281E08E0F80931C020E
:101010008091BB00F0E0E550FE4F80838091FA01A3
:1010200081115CCF81E08093F90184EA8093BC0058
:101030001092F80126CF85EC8093BC001092F80145
:101040008091F601803230F4E091F601F0E0EA524E
:10105000FE4F10826091F60170E0E0911E02F09167
:101060001F0286ED91E009951092F6010ACF1092C9
:10107000F70134CFCF93DF931092420210924102D6
:1010800088EE93E0A0E0B0E08093430290934402A6
:10109000A0934502B093460225E331E0309340022D
:1010A00020933F0225EC30E030934C0220934B021A
:1010B00024EC30E030934E0220934D0220EC30E0DF
:1010C0003093500220934F0221EC30E030935202D3
:1010D0002093510222EC30E03093540220935302CB
:1010E00026EC30E0309356022093550210925802BD
:1010F0001092590210925A0210925B021092DF0273
:101100001092DE028093E0029093E102A093E2024B
:10111000B093E30287E491E09093DD028093DC02D8
:101120001092FB021092FA0289E591E09093F90285
:101130008093F80287E28093FC0280E180930103B0
:1011400082E0809302031092030362E085E00E9434
:10115000030162E086E00E940301E3EFF0E0E49126
:10116000F0E0EE0FFF1FEC51FF4FA591B491B0934B
:10117000ED02A093EC02E5EDF0E044914093F00223
:10118000E4EFF0E0E491F0E0EE0FFF1FEC51FF4FD1
:10119000C591D491D093EF02C093EE02E6EDF0E05A
:1011A000E491E093F1021092F3021092F402109293
:1011B000F5021092F6022BE33FE1C9010197F1F726
:1011C0009C91842F892391E009F490E08881E823A1
:1011D00009F092609093F2021092F702DF91CF91A2
:1011E0000895CF93DF93CDB7DEB72C970FB6F89461
:1011F000DEBF0FBECDBF789484B5826084BD84B558
:10120000816084BD85B5826085BD85B5816085BD01
:1012100080916E00816080936E00109281008091B9
:101220008100826080938100809181008160809341
:101230008100809180008160809380008091B10066
:1012400084608093B1008091B00081608093B00091
:1012500080917A00846080937A0080917A00826025
:1012600080937A0080917A00816080937A008091E7
:101270007A00806880937A001092C10061E082E079
:101280000E94030161E083E00E94030161E084E0C9
:101290000E94030162E087E00E94030161E08AE0AE
:1012A0000E94030161E08BE00E940301109225027D
:1012B0001092240210922302109222020E94310303
:1012C0008AEF91E090932102809320028BEF91E0CE
:1012D00090931F0280931E021092FD0280910203E0
:1012E000823018F098E09093FD028093000362E34F
:1012F00070E080E090E00E94C8016091030388EFF5
:1013000092E00E94F60368EE73E080E090E00E94B5
:10131000C80160E388EF92E00E942F050BE416E419
:10132000C8010197F1F760E388EF92E00E942F0572
:10133000C8010197F1F760E388EF92E00E942F0562
:1013400083E592E00197F1F760E288EF92E00E9476
:101350002F056091FD02606240E088EF92E00E94FC
:10136000480584E08093FE0240E06CE088EF92E064
:101370000E94480540E061E088EF92E00E94480545
:101380000BE31FE1C8010197F1F782E08093FF02B0
:1013900040E066E088EF92E00E94480540E062E0AD
:1013A00088EF92E00E944805C8010197F1F788E0B4
:1013B0008093030360E088EF92E00E94F60368E602
:1013C000E62E60E0F62E10E05E0129E0A20EB11CD0
:1013D00048E050E0B701CE0101960E94F60C40E0D3
:1013E000612F606488EF92E00E944805AE014F5F74
:1013F0005F4F6A01F60161916F0188EF92E00E94F0
:101400009205AC14BD04B1F7F8E0EF0EF11C185FC3
:101410001034F1F6E0914F02F091500282E08083A7
:10142000E0914B02F0914C021082E0914D02F0915C
:101430004E028FE3808310925702E0915302F091A5
:10144000540286E08083E0915102F0915202808143
:1014500080618083E0915102F09152028081886026
:101460008083E0915102F0915202808180688083F4
:10147000E0915102F091520280818F7D808380E162
:101480000E94910160903402709035029C012619EF
:1014900037092D5F3F4F2730310508F03C0123E32A
:1014A00033E343E35FE36091300270913102809156
:1014B0003202909133020E94020F6B017C01B30152
:1014C000072C000C880B990B0E94710E2AE939E950
:1014D00049E95EE30E94020F9B01AC01C701B6011E
:1014E0000E945B0D6B017C01C0923002D0923102F0
:1014F000E0923202F092330220E030EC4FE754E405
:101500000E94C70D9B01AC0160E070E080E89FE3A2
:101510000E945A0D1B012C0120E030E0A901C701F7
:10152000B6010E94FD0E20E030E040E05FE387FD61
:1015300051C2C701B6010E945B0D0E94390EA7E09F
:10154000B0E09B01AC010E941E0D2FEF33E040E0A4
:1015500050E00E94FF0C2B87022F10E0B8018AE0B8
:101560000E94340164E070E0601B710B77FF02C0E1
:1015700070E060E08BE00E94340141E2E42E41E043
:10158000F42E55E0C52E51E0D52E2DE031E03A87FE
:10159000298710E061E082E00E94D50061E083E0ED
:1015A0000E94D50061E084E00E94D5008EE00E9498
:1015B00091012FE730E0DC010E94930F2FEF33E021
:1015C00040E050E00E94FF0C822F90E0F701308154
:1015D000831B910937FD939597FF03C091958195E2
:1015E0009109029714F0F7012083F701008110FFA1
:1015F0005DC031976081062E000C770B880B990B2C
:101600000E94710E4B015C01A201910160E070E04B
:1016100080E89FE30E945A0D9B01AC01C501B40113
:101620000E94020F4B015C01602F002E000C770B13
:10163000880B990B0E94710EA20191010E94020F6A
:101640009B01AC01C501B4010E945B0D0E94390EE3
:101650004B01E12FE695F0E0E35EFE4F8081082E1E
:10166000000C990B9401281B390BC90137FF03C0EB
:101670009195819591090297CCF08082E985FA8550
:10168000F181FC87E985FA8560816150770B606B99
:101690008FE392E00E949D026C858FE392E00E94AE
:1016A0009D02682D8FE392E00E949D02A02F000F03
:1016B000BB0B27E030E00E94930F2FE730E040E0C3
:1016C00050E00E94FF0C022FF6018081082E000CD2
:1016D000990B2817190651F480910401082E000C6B
:1016E000990B20912F022817190661F060E088E01D
:1016F000810F0E945F05602F88EF92E00E949205A3
:10170000F60100831F5FFFEFEF1AFF0A2FEFC21AE7
:10171000D20A49855A854E5F5F4F5A8749871830EC
:1017200009F038CF60E080E00E945F0581E691E03B
:101730000E94E60560912F0270E06F5F7F4F072ED9
:10174000000C880B990B4AE00E94980583E691E013
:101750000E94E60585E691E00E94E605E0912F02F1
:10176000F0E0EE0FFF1FE35FFE4F608170E090E05E
:1017700080E04AE00E94980587E691E00E94E60535
:10178000E0912F02F0E0EE0FFF1FE35FFE4F61815B
:1017900070E090E080E04AE00E94980561E080E01F
:1017A0000E945F0589E691E00E94E6056B8588EF5F
:1017B00092E00E94920561E088E00E945F050DE1E1
:1017C00011E0F801A1918F010A2E000CBB0B27E05C
:1017D00030E00E94930F2FE730E040E050E00E949D
:1017E000FF0CF22E622F88EF92E00E9492056F2D7F
:1017F00088EF92E00E94920521E231E02017310744
:1018000001F7709235026092340280912F0280932A
:101810000401E3ECF0E08491E7EDF0E00491E5EF02
:10182000F0E01491112309F4DAC081110E94AC0098
:10183000E12FF0E0EE0FFF1FEC51FF4FA591B491A7
:101840008C91082331E020E009F430E0832F922FBF
:10185000182F11702FB7F894409137025091380229
:101860006091390270913A022FBF453151056105EF
:101870007105C0F0892BB1F480912602882391F084
:1018800080912F0290E001968370992780932F0218
:1018900040E061E088EF92E00E9448058BE39FE121
:1018A0000197F1F7109326028091F702823008F039
:1018B00099C0F8948CEE92E00E94E104C090F3028B
:1018C000D090F402E090F502F090F60278948091C6
:1018D0002B0290912C02A0912D02B0912E028C151A
:1018E0009D05AE05BF0509F468C02FB7F894809137
:1018F000370290913802A0913902B0913A022FBF7D
:1019000040912702509128026091290270912A0289
:10191000841B950BA60BB70B4597A105B10508F4E1
:101920004CC080912B0290912C02A0912D02B0917D
:101930002E02A7019601281B390B4A0B5B0BCA012B
:10194000B90124E030E040E050E00E94FF0C222387
:10195000A1F140912F0250E0440F551FFA01E35FBF
:10196000FE4F8181022E000C330B280F311D37FDF5
:101970003BC02038310514F02FE730E0435F5E4F65
:10198000FA0121832FB7F8948091370290913802A1
:10199000A0913902B0913A022FBF80932702909311
:1019A0002802A0932902B0932A02C0922B02D0925F
:1019B0002C02E0922D02F0922E0220E030E0232B48
:1019C00009F45DCD0E946702882309F458CD0E9476
:1019D000000055CDC701B6010E945A0DAECD90E072
:1019E00080E036CFF8946ACF20E0C8CFFB01DC015D
:1019F00002C005900D9241505040D8F70895052E31
:101A000097FB1EF400940E94160D57FD07D00E940C
:101A1000290D07FC03D04EF40C94160D50954095FB
:101A2000309521953F4F4F4F5F4F0895909580958A
:101A3000709561957F4F8F4F9F4F08950E944B0D7A
:101A4000A59F900DB49F900DA49F800D911D112412
:101A50000895A1E21A2EAA1BBB1BFD010DC0AA1FEF
:101A6000BB1FEE1FFF1FA217B307E407F50720F007
:101A7000A21BB30BE40BF50B661F771F881F991F82
:101A80001A9469F760957095809590959B01AC01CB
:101A9000BD01CF010895A29FB001B39FC001A39FD4
:101AA000700D811D1124911DB29F700D811D112497
:101AB000911D08955058BB27AA270E94720D0C94BF
:101AC000C30E0E94B50E38F00E94BC0E20F039F40F
:101AD0009F3F19F426F40C94B20E0EF4E095E7FB48
:101AE0000C94AC0EE92F0E94D40E58F3BA1762077B
:101AF00073078407950720F079F4A6F50C94F60E89
:101B00000EF4E0950B2EBA2FA02D0B01B901900118
:101B10000C01CA01A0011124FF27591B99F0593F5C
:101B200050F4503E68F11A16F040A22F232F342FA4
:101B30004427585FF3CF469537952795A795F040F2
:101B40005395C9F77EF41F16BA0B620B730B840B07
:101B5000BAF09150A1F0FF0FBB1F661F771F881FBF
:101B6000C2F70EC0BA0F621F731F841F48F4879517
:101B700077956795B795F7959E3F08F0B0CF939509
:101B8000880F08F09927EE0F9795879508950E9482
:101B9000DB0D0C94C30E0E94BC0E58F00E94B50ED3
:101BA00040F029F45F3F29F00C94AC0E51110C94D5
:101BB000F70E0C94B20E0E94D40E68F39923B1F381
:101BC000552391F3951B550BBB27AA276217730763
:101BD000840738F09F5F5F4F220F331F441FAA1FF7
:101BE000A9F335D00E2E3AF0E0E832D091505040B3
:101BF000E695001CCAF72BD0FE2F29D0660F771F61
:101C0000881FBB1F261737074807AB07B0E809F046
:101C1000BB0B802DBF01FF2793585F4F3AF09E3FCB
:101C2000510578F00C94AC0E0C94F70E5F3FE4F382
:101C3000983ED4F3869577956795B795F7959F5F0E
:101C4000C9F7880F911D9695879597F90895E1E05A
:101C5000660F771F881FBB1F621773078407BA07B9
:101C600020F0621B730B840BBA0BEE1F88F7E09514
:101C700008950E94400E6894B1110C94F70E0895D7
:101C80000E94DC0E88F09F5798F0B92F9927B75122
:101C9000B0F0E1F0660F771F881F991F1AF0BA9510
:101CA000C9F714C0B13091F00E94F60EB1E008956A
:101CB0000C94F60E672F782F8827B85F39F0B93F5C
:101CC000CCF3869577956795B395D9F73EF49095C3
:101CD0008095709561957F4F8F4F9F4F0895E89441
:101CE00009C097FB3EF490958095709561957F4F64
:101CF0008F4F9F4F9923A9F0F92F96E9BB27939512
:101D0000F695879577956795B795F111F8CFFAF421
:101D1000BB0F11F460FF1BC06F5F7F4F8F4F9F4F52
:101D200016C0882311F096E911C0772321F09EE8B0
:101D3000872F762F05C0662371F096E8862F70E016
:101D400060E02AF09A95660F771F881FDAF7880FF0
:101D50009695879597F9089597F99F6780E870E0C1
:101D600060E008959FEF80EC089500240A94161611
:101D7000170618060906089500240A941216130679
:101D8000140605060895092E0394000C11F4882307
:101D900052F0BB0F40F4BF2B11F460FF04C06F5F23
:101DA0007F4F8F4F9F4F089557FD9058440F551FF9
:101DB00059F05F3F71F04795880F97FB991F61F0CD
:101DC0009F3F79F087950895121613061406551F44
:101DD000F2CF4695F1DF08C0161617061806991FB0
:101DE000F1CF86957105610508940895E894BB27A5
:101DF00066277727CB0197F908950E946F0F08F4A3
:101E00008FEF08950E94150F0C94C30E0E94B50E1B
:101E100038F00E94BC0E20F0952311F00C94AC0E0B
:101E20000C94B20E11240C94F70E0E94D40E70F391
:101E3000959FC1F3950F50E0551F629FF001729F6F
:101E4000BB27F00DB11D639FAA27F00DB11DAA1F7E
:101E5000649F6627B00DA11D661F829F2227B00DCB
:101E6000A11D621F739FB00DA11D621F839FA00D56
:101E7000611D221F749F3327A00D611D231F849FA6
:101E8000600D211D822F762F6A2F11249F575040FD
:101E90009AF0F1F088234AF0EE0FFF1FBB1F661F78
:101EA000771F881F91505040A9F79E3F510580F041
:101EB0000C94AC0E0C94F70E5F3FE4F3983ED4F311
:101EC000869577956795B795F795E7959F5FC1F7E5
:101ED000FE2B880F911D9695879597F90895990F78
:101EE0000008550FAA0BE0E8FEEF16161706E807E4
:101EF000F907C0F012161306E407F50798F0621B05
:101F0000730B840B950B39F40A2661F0232B242BD9
:101F1000252B21F408950A2609F4A140A6958FEFF8
:101F2000811D811D08950E944B0DB7FF0895821BEE
:101F3000930B0895EE0FFF1F0590F491E02D099487
:101F4000F894FFCFFC01FC01FFFFFFFFFFFFFFFF45
:101F5000FF0102010402060208030A031604210419
:101F60002CFFFFFFFFFFFFFFFFFFFFFFFF00004011
:101F70000014005400000000009D02FD012A02EA46
:101F8000025B0239024D0200000000C7039A03DE23
:101F9000047003930380037103000000009205FDA9
:101FA00001DE04DD045B005D004D004300580000CD
:107E0000112484B714BE81FFF0D085E080938100F7
:107E100082E08093C00088E18093C10086E0809377
:107E2000C20080E18093C4008EE0C9D0259A86E02C
:107E300020E33CEF91E0309385002093840096BBD3
:107E4000B09BFECF1D9AA8958150A9F7CC24DD24C4
:107E500088248394B5E0AB2EA1E19A2EF3E0BF2EE7
:107E6000A2D0813461F49FD0082FAFD0023811F036
:107E7000013811F484E001C083E08DD089C08234E0
:107E800011F484E103C0853419F485E0A6D080C0E4
:107E9000853579F488D0E82EFF2485D0082F10E0AE
:107EA000102F00270E291F29000F111F8ED06801E7
:107EB0006FC0863521F484E090D080E0DECF843638
:107EC00009F040C070D06FD0082F6DD080E0C81688
:107ED00080E7D80618F4F601B7BEE895C0E0D1E017
:107EE00062D089930C17E1F7F0E0CF16F0E7DF06D8
:107EF00018F0F601B7BEE89568D007B600FCFDCFD4
:107F0000A601A0E0B1E02C9130E011968C91119780
:107F100090E0982F8827822B932B1296FA010C0160
:107F200087BEE89511244E5F5F4FF1E0A038BF0790
:107F300051F7F601A7BEE89507B600FCFDCF97BE46
:107F4000E89526C08437B1F42ED02DD0F82E2BD052
:107F50003CD0F601EF2C8F010F5F1F4F84911BD097
:107F6000EA94F801C1F70894C11CD11CFA94CF0C13
:107F7000D11C0EC0853739F428D08EE10CD085E9AC
:107F80000AD08FE07ACF813511F488E018D01DD067
:107F900080E101D065CF982F8091C00085FFFCCF94
:107FA0009093C60008958091C00087FFFCCF809118
:107FB000C00084FD01C0A8958091C6000895E0E648
:107FC000F0E098E1908380830895EDDF803219F02E
:107FD00088E0F5DFFFCF84E1DECF1F93182FE3DFCA
:107FE0001150E9F7F2DF1F91089580E0E8DFEE27F6
:047FF000FF270994CA
:027FFE00040479
:00000001FF
